:020000040800F2
:100000004804002001010008090100080B01000854
:100010000D0100080F010008110100080000000098
:1000200000000000000000000000000013010008B4
:100030001501000800000000170100080D4300082A
:100040001B0100081B0100081B0100081B01000820
:100050001B0100081B0100081B0100081B01000810
:100060001B0100081B0100081B0100081B01000800
:100070001B0100081B0100081B0100081B010008F0
:100080001B0100081B0100081B0100081B010008E0
:100090001B0100081B0100081B0100081B010008D0
:1000A0001B0100081B0100081B0100081B010008C0
:1000B0001B0100081B0100081B0100081B010008B0
:1000C0001B0100081B0100081B0100081B010008A0
:1000D0001B0100081B0100081B0100081B01000890
:1000E0001B0100081B0100081B010008DFF80CD0F1
:1000F00004F054F900480047454200084804002035
:100100000648804706480047FEE7FEE7FEE7FEE7B1
:10011000FEE7FEE7FEE7FEE7FEE7FEE72501000853
:10012000ED0000082248016841F0010101604168CA
:10013000204A1140416001681F4A11400160016876
:1001400021F480210160416821F4FE0141604FF4F7
:100150001F0181601949C00308607047144910B538
:100160004868174A10F00C03164803D0042B01D03E
:10017000082B09D002604968134AC1F30311515C8E
:100180000268CA40026010BD4A684B6802F47012EF
:100190004FF0020413F4803F04EB924202D04B680C
:1001A0009B0301D5094B00E0054B5A43E2E70000F1
:1001B000001002400000FFF8FFFFF6FE08ED00E02F
:1001C00000127A0000000020DE43000800093D0014
:1001D0002DE9F84FDFF8B0A200220AF1040B144613
:1001E00001274FF00F090BF1040E00BF0B6807FA4F
:1001F00004F52B40AB4274D1DFF890C24E68A6EBF9
:100200000C0866452BD00DDC032E34D005DC36B34C
:10021000012E19D0022E2FD11BE0112E16D0122E36
:100220002AD119E0B8F5881F19D006DCB8F5803F4F
:1002300015D0B8F5801F1FD111E0B8F5001F0ED002
:10024000B8F5041F18D10AE0CA6815E0CA68121D83
:1002500012E0CA6808320FE0CA680C320CE08A6803
:100260002AB1012A4FF0080203D0456104E00422BC
:1002700002E0056100E00022FF2B01D8064601E004
:1002800000F104064FEA840501D9A5F12005D6F84E
:1002900000C009FA05F82CEA080C02FA05F54CEA48
:1002A000050CC6F800C04D68ED0057D5784DAE6915
:1002B00046F00106AE61AD6924F0030605F00105C4
:1002C0000095744D06EB050CDCF80850A6074FEAC4
:1002D000167809FA08F6B5436F4EB04202D10026EF
:1002E00010E03BE06D4EB04201D101260AE06C4EB9
:1002F000B04201D1022605E06A4EB04201D1032688
:1003000000E0042606FA08F62E43CCF808604D6893
:10031000DAF80060ED03554601D51E4300E09E4328
:100320002E604D68DBF80060AD035D4601D51E43CD
:1003300000E09E432E604D68DEF80060ED027546D9
:1003400001D51E4300E09E432E604D68AD02564D20
:100350002E6801D51E4300E09E432E60641C102CC5
:10036000FFF444AFBDE8F88F2DE9F04300230F24DC
:10037000DFF820C159E001229A400A4054D0FF2AF8
:1003800001D8074601E000F104074FEA830601D9CE
:10039000A6F12006D7F8008004FA06F54FF004090C
:1003A00028EA050809FA06F948EA0908C7F80080AA
:1003B000C56825EA0205C56023F003056544AF68FA
:1003C0004FEA83764FEA167604FA06F909EA070837
:1003D000314FB84201D100270FE0304FB84201D170
:1003E00001270AE02E4FB84201D1022705E02D4F28
:1003F000B84201D1032700E00427B740474513D195
:10040000AF6827EA0907AF601F4D2E6896432E603C
:100410002D1D2E6896432E602D1D2E6896432E604E
:100420002D1D2E6896432E605B1C31FA03F2A2D17B
:10043000BDE8F0838068084000D0012070470AB111
:10044000016170470904FBE7C2684A40C260704717
:1004500008B541F480320092826181610099816126
:10046000816900918069C00301D5002008BD012089
:1004700008BD70470C4910B508310A68024202D025
:100480000860FFF7F6FF10BD0004014000001110E6
:10049000001002400000014000080140000C014033
:1004A00000100140001401400C040140F0B5026846
:1004B000F84BF94CF94D4FF08047984205D0B842BF
:1004C00003D0A04201D0A84203D122F070064A68AE
:1004D0003243984205D0B84203D0A04201D0A8428E
:1004E00003D122F44074CA68224302608A68C2625F
:1004F0000A688262984201D1096901630121416160
:10050000F0BD704710B5040003D094F8390010B165
:1005100007E0012010BD002084F83800204603F0D9
:1005200011FF022084F83900211D2068FFF7BEFF6B
:10053000012084F83900002010BD704710B5044632
:10054000022084F839002068016A41F21112114238
:1005500007D1016A9210114203D1016821F0010113
:100560000160204603F008FF002084F8390084F879
:10057000380010BD022180F8391001680A6842F085
:1005800001020A60012180F8391000207047022121
:1005900080F8391001680A6A41F211131A4207D132
:1005A0000A6A9B101A4203D10A6822F001020A600B
:1005B000012180F83910002070470168CA6842F0B4
:1005C0000102CA600068016841F001010160002079
:1005D00070470168CA6822F00102CA600068016AB7
:1005E00041F21112114207D1016A9210114203D156
:1005F000016821F00101016000207047704710B5CB
:10060000406A012180F83910FFF7F8FF10BD7047EC
:1006100010B5406A012180F83910FFF7F8FF10BDCE
:1006200070B5044690F83900022805D094F83900D6
:10063000012805D109B902B170BD022084F8390042
:10064000E36997489862AFF24900E3691863256847
:10065000134605F12C02E06902F02FF82068C1680A
:1006600041F48071C1602068016841F001010160BE
:10067000002070BD0168CA6822F48072CA600168F7
:100680000A6A41F211131A4207D10A6A9B101A42F0
:1006900003D10A6822F001020A60012180F83910B2
:1006A00000207047704710B5040003D094F839005B
:1006B00010B107E0012010BD002084F8380020466A
:1006C000FFF7F0FF022084F83900211D2068FFF7B2
:1006D000EDFE012084F83900002010BD704710B5F0
:1006E0000446022084F839002068016A41F21112A0
:1006F000114207D1016A9210114203D1016821F021
:10070000010101602046FFF7E9FF002084F839006D
:1007100084F8380010BD10B50123046A8B409C4357
:100720000462036A8A401343036210BD10B5044695
:1007300000680122FFF7EFFF56492068884203D185
:10074000416C41F4004141642068016841F00101BD
:100750000160002010BD10B5044600680022FFF7BC
:10076000DAFF4C4841F2111221689310814209D1FD
:10077000086A104206D1086A184203D1486C20F476
:10078000004048642068016A114206D1016A19429A
:1007900003D1016821F001010160002010BD10B5F6
:1007A0000268044631B1042908D008291DD00C295B
:1007B00008D11EE0D06840F0020002E0D06840F0AE
:1007C0000400D06001222068FFF7A5FF31492068AE
:1007D000884203D1416C41F40041416420680168C2
:1007E00041F001010160002010BDD06840F0080018
:1007F000E7E7D06840F01000E3E710B50268044670
:1008000031B1042908D008292CD00C2908D12DE0B9
:10081000D06820F0020002E0D06820F00400D06030
:1008200000222068FFF777FF1A4B41F2111220686F
:100830009110984209D1036A134206D1036A0B4210
:1008400003D1436C23F4004343642068036A1342DA
:1008500006D1026A0A4203D1016821F00101016058
:10086000002010BDD06820F00800D8E7D06820F044
:100870001000D4E7704710B5446A012184F839109C
:10088000226A824201D1217616E0616A814209D151
:10089000022010E0002C014000040040000800404D
:1008A00011060008A16A814201D1042003E0E16A37
:1008B000814201D1082020762046FFF7DBFF00208F
:1008C000207610BD70B5044690F8390016460D46E6
:1008D000022805D094F83900012805D10EB903B1DA
:1008E00070BD022084F83900AFF27500AFF2F1213B
:1008F00035B1042D13D0082D34D00C2D1ED140E07D
:10090000226A9062206A0163226831463432206A8A
:1009100001F0D3FE2068C16841F400710DE0626A05
:100920009062606A0163226831463832606A01F081
:10093000C4FE2068C16841F48061C160012229467B
:100940002068FFF7E8FEF9492068884203D1416C2E
:1009500041F4004141642068016841F001010160F7
:10096000002070BDA26A9062A06A016322683146CD
:100970003C32A06A01F0A1FE2068C16841F4006128
:10098000DBE7E26A9062E06A016322683146403246
:10099000E06A01F092FE2068C16841F48051CCE722
:1009A00010B50268044631B1042908D008292FD0B7
:1009B0000C2908D130E0D06820F4007002E0D06843
:1009C00020F48060D06000222068FFF7A4FED74B9F
:1009D00041F2111120688A10984209D1036A0B4232
:1009E00006D1036A134203D1436C23F400434364EA
:1009F0002068036A0B4206D1016A114203D10168E3
:100A000021F001010160012084F83900002010BDAF
:100A1000D06820F40060D5E7D06820F48050D1E79A
:100A2000704710B5040003D094F8390010B107E006
:100A3000012010BD002084F838002046FFF7F0FFA9
:100A4000022084F83900211D2068FFF72FFD0120C6
:100A500084F83900002010BD704710B5044602200C
:100A600084F839002068016A41F21112114207D15D
:100A7000016A9210114203D1016821F00101016065
:100A80002046FFF7E9FF002084F8390084F8380099
:100A900010BD10B5044600680122FFF73CFEA349D3
:100AA0002068884203D1416C41F4004141642068D0
:100AB000016841F001010160002010BD10B504463D
:100AC00000680022FFF727FE984B41F211112068C1
:100AD0008A10984209D1036A0B4206D1036A134275
:100AE00003D1436C23F4004343642068036A0B4240
:100AF00006D1016A114203D1016821F001010160B0
:100B0000012084F83900002010BD10B502680446A9
:100B100031B1042908D008291DD00C2908D11EE0C4
:100B2000D06840F0020002E0D06840F00400D060DD
:100B300001222068FFF7EFFD7C492068884203D13D
:100B4000416C41F4004141642068016841F00101B9
:100B50000160002010BDD06840F00800E7E7D068D1
:100B600040F01000E3E710B50268044631B10429F3
:100B700008D008292CD00C2908D12DE0D06820F00D
:100B8000020002E0D06820F00400D060002220685B
:100B9000FFF7C1FD654B41F2111220689110984298
:100BA00009D1036A134206D1036A0B4203D1436C95
:100BB00023F4004343642068036A134206D1026AA7
:100BC0000A4203D1016821F001010160002010BD3B
:100BD000D06820F00800D8E7D06820F01000D4E7F3
:100BE00070B5044690F8390016460D46022805D027
:100BF00094F83900012805D10EB903B170BD022067
:100C000084F83900AFF29130AFF20D6135B1042DA7
:100C100013D0082D34D00C2D1ED140E0226A9062F2
:100C2000206A0163226831463432206A01F045FDB2
:100C30002068C16841F400710DE0626A9062606AE8
:100C40000163226831463832606A01F036FD20685F
:100C5000C16841F48061C160012229462068FFF724
:100C60005AFD32492068884203D1416C41F4004169
:100C700041642068016841F001010160002070BDFD
:100C8000A26A9062A06A0163226831463C32A06A7F
:100C900001F013FD2068C16841F40061DBE7E26AFE
:100CA0009062E06A0163226831464032E06A01F0F6
:100CB00004FD2068C16841F48051CCE710B502689A
:100CC000044631B1042908D0082931D00C2908D1B3
:100CD00032E0D06820F4007002E0D06820F4806038
:100CE000D06000222068FFF716FD104B41F2111171
:100CF00020688A10984209D1036A0B4206D1036A20
:100D0000134203D1436C23F4004343642068036A15
:100D10000B4206D1016A114203D1016821F00101A1
:100D20000160012084F83900002010BD002C014032
:100D3000D06820F40060D3E7D06820F48050CFE77B
:100D4000704710B5040003D094F8390010B107E0E3
:100D50000120EAE7002084F838002046FFF7F0FF82
:100D6000022084F83900211D2068FFF79FFB012035
:100D700084F839000020D8E7704710B504460220F7
:100D800084F839002068016A41F21112114207D13A
:100D9000016A9210114203D1016821F00101016042
:100DA0002046FFF7E9FF002084F8390084F8380076
:100DB000BBE710B5044600680122FFF7ACFC2068D1
:100DC000016841F0010101600020AEE710B5044662
:100DD00000680022FFF79FFC2068016A41F21112AF
:100DE000114207D1016A9210114203D1016821F02A
:100DF00001010160002098E710B50268044631B196
:100E0000042908D0082915D00C2908D116E0D0688B
:100E100040F0020002E0D06840F00400D0600122FF
:100E20002068FFF778FC2068016841F0010101604B
:100E300000207AE7D06840F00800EFE7D06840F083
:100E40001000EBE710B50268044631B1042908D060
:100E500008291ED00C2908D11FE0D06820F002001C
:100E600002E0D06820F00400D06000222068FFF784
:100E700052FC2068016A41F21112114207D1016A45
:100E80009210114203D1016821F00101016000209C
:100E90004BE7D06820F00800E6E7D06820F01000AB
:100EA000E2E7704710B5446A012184F83910226ADC
:100EB000824201D121760EE0616A814201D1022095
:100EC00008E0A16A814201D1042003E0E16A814285
:100ED00001D1082020762046FFF7E3FF002020768E
:100EE00023E770B5044690F839000E46022805D075
:100EF00094F83900012805D10AB903B170BD022068
:100F000084F83900AFF26300AFF60D1536B1042E48
:100F100012D0082E2AD00C2E1CD135E0216A88620E
:100F2000206A05632168206A343101F0C6FB20681D
:100F3000C16841F400710CE0616A8862606A05630F
:100F40002168606A383101F0B8FB2068C16841F45B
:100F50008061C160012231462068FFF7DCFB206818
:100F6000016841F001010160002070BDA16A886242
:100F7000A06A05632168A06A3C3101F09EFB2068ED
:100F8000C16841F40061E4E7E16A8862E06A0563F0
:100F90002168E06A403101F090FB2068C16841F4AB
:100FA0008051D6E710B50268044631B1042908D053
:100FB000082921D00C2908D122E0D06820F4007043
:100FC00002E0D06820F48060D06000222068FFF743
:100FD000A2FB2068016A41F21112114207D1016A95
:100FE0009210114203D1016821F00101016001203A
:100FF00084F83900002098E6D06820F40060E3E728
:10100000D06820F48050DFE7704770B50D460400CB
:1010100003D094F8390010B107E0012070BD002022
:1010200084F838002046FFF7EFFF022084F83900EB
:10103000211D2068FFF73AFA2068016821F00801B5
:1010400001602068016829430160012084F83900AB
:10105000002070BD704710B50446022084F83900A6
:101060002068016A41F21112114207D1016A9210FF
:10107000114203D1016821F0010101602046FFF710
:10108000E9FF002084F8390084F838004DE610B5F7
:101090000446006801220021FFF73DFB01220421E4
:1010A0002068FFF738FBFE492068884203D1416C75
:1010B00041F400414164002037E610B504460022A7
:1010C00000681146FFF727FB002204212068FFF784
:1010D00022FBF34B41F2111120688A10984209D18A
:1010E000036A0B4206D1036A134203D1436C23F413
:1010F000004343642068036A0B4206D1016A11422F
:1011000003D1016821F00101016000200DE610B556
:1011100004460068C16841F00201C1602068C168EE
:1011200041F00401C160012200212068FFF7F3FAB9
:10113000012204212068FFF7EEFAD949206888428D
:1011400003D1416C41F4004141640020EDE510B54C
:1011500004460068C16821F00201C1602068C168CE
:1011600021F00401C160002211462068FFF7D3FA84
:10117000002204212068FFF7CEFAC94B41F2111179
:1011800020688A10984209D1036A0B4206D1036A8B
:10119000134203D1436C23F4004343642068036A81
:1011A0000B4206D1016A114203D1016821F001010D
:1011B00001600020B9E570472DE9F0410D460400BB
:1011C00003D094F8390018B108E00120BDE8F0819F
:1011D000002084F838002046FFF7EDFF022084F855
:1011E00039002068816821F007018160211D206895
:1011F000FFF75CF9226890689169166A2B68AF69FD
:10120000034340F20330814341EA0721A868EF69B4
:1012100008434FF6FC418843E96840EA0720014350
:1012200028692F6A000140EA0730084369686D6940
:1012300026F0AA0646EA05152943936022689061C4
:1012400020680162012084F839000020BEE7704761
:1012500010B50446022084F839002068016A41F282
:101260001112114207D1016A9210114203D1016893
:1012700021F0010101602046FFF7E9FF002084F81A
:10128000390084F8380050E510B50446006891B183
:10129000042904D001220021FFF73DFA2068012231
:1012A0005FF00401FFF737FA2068016841F001019F
:1012B0000160002039E501220021F3E710B5044662
:1012C0000068D9B1042904D000221146FFF723FA9F
:1012D000206800225FF00401FFF71DFA2068016A10
:1012E00041F21112114207D1016A9210114203D149
:1012F000016821F001010160002016E5002211467D
:10130000EAE710B50446006889B104294FF00102EC
:1013100016D00021FFF7FFF9012204212068FFF712
:10132000FAF92068C16841F00201C1600BE00122B6
:101330000021FFF7F0F92068C16841F0020106E0E2
:101340000421FFF7E8F92068C16841F00401C16099
:101350002068016841F0010101600020E5E410B55A
:101360000446006841B304294FF000022DD000214B
:10137000FFF7D1F9002204212068FFF7CCF920689B
:10138000C16821F00201C1602068C16821F0040138
:10139000C1602068016A41F21112114207D1016A4D
:1013A0009210114203D1016821F001010160012076
:1013B00084F839000020B8E400221146FFF7ABF9A9
:1013C0002068C16821F00201E2E70421FFF7A3F9D8
:1013D000DAE72DE9F041044690F83900069F984677
:1013E000022809D094F83900012809D112B1B8F1C6
:1013F000000F02D10FB10120E8E6022084F8390085
:10140000AFF25F55AFF6096621B104291AD0182949
:1014100064D132E0206A3B468562206A0663216817
:10142000206A343101F049F92068C16841F4007143
:10143000C1602068016841F00101016001220021C2
:10144000206817E0606A3B4642468562606A066330
:101450002168606A383101F030F92068C16841F4D0
:101460008061C1602068016841F0010101600122D2
:1014700004212068FFF74FF930E0206A3B4685627F
:10148000206A06632168206A343101F016F9606A27
:101490003B4642468562606A06632168383101E056
:1014A000002C0140606A01F008F92068016841F0F1
:1014B00001010160012200212068FFF72CF90122BF
:1014C00004212068FFF727F92068C16841F4007102
:1014D000C1602068C16841F48061C160002075E688
:1014E00010B50446006841B304294FF000022DD026
:1014F0000021FFF710F9002204212068FFF70BF903
:101500002068C16821F40071C1602068C16821F4BD
:101510008061C1602068016A41F21112114207D155
:10152000016A9210114203D1016821F001010160AA
:10153000012084F8390000200BE400221146FFF757
:10154000EAF82068C16821F40071E2E70421FFF79E
:10155000E2F8DAE77047704770B504460068016941
:101560004FF00005C943890715D4C168C9438907ED
:1015700011D4E91E0161012020762068806980076E
:10158000204602D0FFF78DFC04E0FFF7E4FF204681
:10159000FFF770F9257620680169C943490717D418
:1015A000C168C943490713D46FF0040101610220E7
:1015B00020762068806910F4407F204602D0FFF733
:1015C00070FC04E0FFF7C7FF2046FFF753F92576CC
:1015D00020680169C943090716D4C168C9430907CE
:1015E00012D46FF008010161042020762068C069E0
:1015F0008007204602D0FFF754FC04E0FFF7ABFF62
:101600002046FFF737F9257620680169C943C906E6
:1016100017D4C168C943C90613D46FF01001016122
:10162000082020762068C06910F4407F204602D050
:10163000FFF737FC04E0FFF78EFF2046FFF71AF9AB
:10164000257620680169C943C90708D1C168C94323
:10165000C90704D1891E01612046FEF7D8FF206822
:101660000169C943090609D4C168C943090605D4FB
:101670006FF080010161204602F0ACFD2068016935
:10168000C943490609D4C168C943490605D46FF066
:10169000400101612046FFF75DFF20680169C943F1
:1016A00089060BD4C168C943890607D46FF02001AD
:1016B00001612046BDE8704002F0FCBC70BD30B551
:1016C000026A22F480520262046A4268C3690D68A9
:1016D00023F4E64343EA05238D6824F4005444EAE6
:1016E0000534FE4DA84204D14D6922F4804242EAFD
:1016F00085124260C36149680164046230BD30B53F
:10170000026A22F480720262036A4268C46923F4A6
:10171000007324F073050C682C438D6843EA05239D
:10172000EE4DA8420ED1CD6823F4006343EA0523B1
:101730004D6922F4405242EA05128D6923F4806318
:1017400042EA05124260C4614968C163036230BD68
:1017500030B5026A22F010020262026A43688469AC
:101760000D6824F4E64444EA05248D6822F0200242
:1017700042EA0512D94DA8420ED1CD6822F080026E
:1017800042EA05124D6923F4406343EA85038D69FB
:1017900022F0400243EA8503436084614968816323
:1017A000026230BD30B5026A22F001020262026AB2
:1017B0004368846924F073050C682C4322F0020509
:1017C0008A682A43C54DA8420BD122F00805CA6891
:1017D00023F440732A434D6922F004021D438B69B0
:1017E0002B434360846149684163026230BD70B538
:1017F000044690F8380001280DD0012584F83850AF
:10180000022084F8390042B1042A0AD0082A0CD0F8
:101810000C2A11D10DE0022070BD2068FFF7C2FF35
:101820000AE02068FFF794FF06E02068FFF767FFF3
:1018300002E02068FFF743FF84F83950002084F865
:10184000380070BD30B5046A24F010040462846965
:10185000056A24F4407444EA022222F470444FF6EC
:10186000FF7202EA03322243A02425F0A00304EA17
:10187000011119438261016230BD70B5046A24F020
:10188000010404628469056A944EB04208D0B0F144
:10189000804F05D0924EB04202D0924EB04203D15A
:1018A00024F00304144301E044F001041A0724F077
:1018B000F00444EA126225F00A0301F00A01194318
:1018C0008261016270BD2DE9F041044690F8380054
:1018D0000D4601283BD0012684F83860022084F8A8
:1018E00039009AB3042A44D02068082A53D0D5E995
:1018F0000027E968036A23F480530362D0F81CC010
:10190000036A2CF4407C4CEA07274FF6FF7C27F44F
:1019100070470CEA013139434FF4204723F4204348
:1019200007EA02321A43C16102622068C16921F4E8
:101930004061C1612068C169AA6841EA0221C161B0
:1019400084F83960002084F838003FE401E0022088
:101950003CE4D5E90012EB682068FFF78EFF2068B1
:10196000816921F00C01816120688169AA681143B5
:101970000FE0D5E90012EB682068FFF763FF2068ED
:10198000816921F44061816120688169AA6841EA26
:1019900002218161D4E7D5E9002C2F7B016A21F473
:1019A00080710162C169036A21F0030141EA0C01FF
:1019B00021F0F00C39074FF420674CEA116123F451
:1019C000206307EA02221A43C16102622068C169EA
:1019D00021F00C01C1612068C169AA681143AEE71A
:1019E00070B5044690F838000D4601280DD0012648
:1019F00084F83860022084F8390042B1042A18D0F3
:101A0000082A2AD00C2A4DD139E0022070BD206866
:101A1000FFF7C8FE2068816941F0080181612068F4
:101A2000816921F004018161206881692A6911437B
:101A300011E02068FFF78CFE2068816941F40061A5
:101A400081612068816921F48061816120688169F8
:101A50002A6941EA0221816124E02068FFF74FFEF4
:101A60002068C16941F00801C1612068C16921F0A5
:101A70000401C1612068C1692A69114311E020682D
:101A8000FFF71DFE2068C16941F40061C161206853
:101A9000C16921F48061C1612068C1692A6941EA94
:101AA0000221C16184F83960002084F8380070BDDB
:101AB000F0B51E4687B00D460446B2426AD094F88F
:101AC000380001281CD0012784F83870022084F8DF
:101AD0003900286800906868019005E0002C0140FA
:101AE0000004004000080040A8680290E8680390E5
:101AF00028690590686906902AB1042A0CD107E08C
:101B0000022007B0F0BD69462068FFF74BFE03E0F6
:101B100069462068FFF71CFE16B1042E34D114E08C
:101B20001835206895E80E00FFF7A7FE2068816948
:101B300021F00C0181612068816821F070018160D1
:101B40002068816841F0500113E01835206895E85D
:101B50000E00FFF777FE2068816921F44061816102
:101B60002068816821F0700181602068816841F0FF
:101B7000600181602068816821F007018160206830
:101B8000816841F00601816084F83970002084F892
:101B90003800B6E70120B4E710B5406A012180F8AB
:101BA0003910FFF7D7FC06E42DE9F041044690F820
:101BB0003900069D9C4616468846022807D094F8B0
:101BC0003900012807D1BCF1000F01D105B113E4A0
:101BD000022084F839000127F548F64907EB152360
:101BE000B6F5006F39D009DCB6F5807F10D0B6F5B8
:101BF000007F15D0B6F5806F1CD127E0B6F5805F69
:101C000032D0B6F5005F36D0B6F5804F12D13AE04B
:101C1000E269E9499162E16908632268E06905E0E7
:101C2000226A9162216A08632268206A61464C3206
:101C300000F043FD216848EA050088642068C16817
:101C40003143C16084F83970002048E4626A9162CF
:101C5000616A08632268606AE8E7A26A9162A16A21
:101C600008632268A06AE1E7E26A9162E16A0863B8
:101C70002268E06ADAE7226BD0499162216B08633F
:101C80002268206BD2E7626BCD499162616B086379
:101C90002268606BCAE770B50D460446B1F5006F67
:101CA00021D009DCB5F5807F10D0B5F5007F0FD0CD
:101CB000B5F5806F0FD114E0B5F5805F15D0B5F59F
:101CC000005F14D0B5F5804F05D112E0E06900E067
:101CD000206A00F01EFD2068C168A943C160002091
:101CE00070BD606AF5E7A06AF3E7E06AF1E7206B90
:101CF000EFE7606BEDE72DE9F041044690F839001D
:101D0000069D9C4616468846022807D094F839005E
:101D1000012807D1BCF1000F01D105B115E6022061
:101D200084F83900A248012707EB1523AFF68B6131
:101D3000B6F5006F39D009DCB6F5807F10D0B6F566
:101D4000007F15D0B6F5806F1CD127E0B6F5805F17
:101D500032D0B6F5005F36D0B6F5804F12D13AE0FA
:101D6000E26995499162E16908632168E06905E0EB
:101D7000226A9162216A08632168206A62464C31B6
:101D800000F09BFC216848EA050088642068C1686F
:101D90003143C16084F839700020D6E5626A9162EF
:101DA000616A08632168606AE8E7A26A9162A16AD1
:101DB00008632168A06AE1E7E26A9162E16A086368
:101DC0002168E06ADAE7226B7C499162216B086343
:101DD0002168206BD2E7626B79499162616B08637D
:101DE0002168606BCAE770B50D460446B1F5006F17
:101DF00021D009DCB5F5807F10D0B5F5007F0FD07C
:101E0000B5F5806F0FD114E0B5F5805F15D0B5F54D
:101E1000005F14D0B5F5804F05D112E0E06900E015
:101E2000206A00F076FC2068C168A943C1600020E8
:101E300070BD606AF5E7A06AF3E7E06AF1E7206B3E
:101E4000EFE7606BEDE790F83820012A0CD0012213
:101E500000F8382F0223437050F8383C5961427023
:101E60000021017008467047022070472DE9F041BB
:101E700004460D4694F838100020174601290AD070
:101E8000012684F83860022184F83910696821B18C
:101E9000012910D104E0022057E5216888600AE09A
:101EA000D5E902212B69206800F07FF9206881685C
:101EB00041F00801816037B1042F0FD0082F19D0ED
:101EC0000C2F2DD121E0286800282068816902D0DC
:101ED00041F080010CE021F0800109E02868002831
:101EE0002068816902D041F4004101E021F4004101
:101EF000816115E0286800282068C16902D041F09E
:101F000080010CE021F0800109E0286800282068A9
:101F1000C16902D041F4004101E021F40041C161F6
:101F200084F83960002084F838000EE570B5044666
:101F300090F83800012817D0012584F83850022085
:101F400084F839002068826822F0770222F47F4208
:101F500082600868502841D00DDC202863D005DC61
:101F600028B310284BD15BE0022070BD30285DD033
:101F7000402844D149E0602838D070280BD0B0F513
:101F8000805F03D0B0F5005F39D11BE02068816825
:101F900021F0070120E0CB68D1E90121206800F0A1
:101FA00004F92168886840F07700886027E034E011
:101FB000FF0500087708000811060008B740000870
:101FC000991B0008CB68D1E90121206800F0EDF8E9
:101FD0002068816841F48041816010E0CA684968E6
:101FE000206800F0F4F85021206806E0CA684968CB
:101FF000206800F0FDF86021206800F0E0F884F827
:102000003950002084F8380070BDCA6849682068DB
:1020100000F0DDF840212068EFE700212068ECE7C0
:1020200010212068E9E720212068E6E730212068B8
:10203000E3E70268506820F0800008435060002009
:10204000704730B403689A6822F070044A682243EB
:1020500022F007040A6822439A604A6812F00F0FC0
:102060001FD11211082A1CD2DFE802F01B1B1B1B18
:102070000B1D23040B69D1E90221006830BC00F07C
:1020800094B80268136A146A24F0010414620268A6
:102090009469096924F0F00444EA0111916100682F
:1020A000036230BC70470A698968006830BC00F080
:1020B0008EB80A698968006830BC00F099B870B5BC
:1020C000044690F83800012818D0012584F83850CB
:1020D000022084F839002046FFF7B3FF2068C1686A
:1020E00021F04001C1602068C16821F48041C160D5
:1020F00084F83950002084F8380070BD022070BD8B
:1021000070B5044690F83800012818D0012584F8ED
:102110003850022084F839002046FFF792FF2068EB
:10212000C16841F04001C1602068C16821F480416C
:10213000C16084F83950002084F8380070BD022056
:1021400070BD90F838300022012B0AD0012380F8AE
:10215000383041B1042909D008290AD00C290DD101
:102160000AE00220704701684A6B07E001688A6B49
:1021700004E00168CA6B01E001680A6C002180F884
:1021800038101046704790F83900704790F83900C1
:10219000704790F83900704790F83900704790F810
:1021A0003900704790F83900704710B5846842EAEA
:1021B000032224F47F440A4322438260F3E48268CA
:1021C00022F070020A4342F007018160704710B5A7
:1021D000036A046A24F001040462846924F0F004B0
:1021E00044EA021423F00A020A4384610262DAE438
:1021F00010B5036A23F0100303628369046A23F4B1
:10220000704343EA023224F0A00343EA01118261E1
:102210000162C8E4734900F0070208684FF6FF0343
:10222000184040EA0220704A104308607047F0B43A
:102230006C4B1B680C46C3F30223C3F10705042D46
:1022400000D90425191D072901D2002300E0DB1E57
:10225000012606FA05F1491E214099409E40761E4E
:1022600016403143F0BC00F0ADB800F01F02012170
:1022700091404009800000F1E020C0F80011704753
:1022800000F01F02012191404009800000F1E02090
:10229000C0F880117047BFF34F8F52480168524A0F
:1022A00001F4E061121D11430160BFF34F8F00BFC5
:1022B000FDE710B5401EB0F1807F01D3012010BDB5
:1022C0004FF0E02460610F21601700F07BF80020E0
:1022D000A06107202061002010BD42480068C0F3C3
:1022E0000220704770B5002806DA00F00F0000F1F8
:1022F000E02090F8140D03E000F1E02090F80004D5
:10230000040901F00700C0F10705042D00D90425D8
:10231000011D072901D2002000E0C01E012124FA7E
:1023200000F601FA05F56D1E2E408140491E214040
:102330001660196070BD00F01F0201219140400934
:10234000800000F1E020C0F80012704741098900C8
:1023500001F1E021D1F8001200F01F0201209040AD
:10236000014201D0012070470020704700F01F0299
:10237000012191404009800000F1E020C0F8801266
:1023800070474109890001F1E021D1F8001300F004
:102390001F0201209040014201D00120704700201F
:1023A00070474FF0E0210428086903D020F00400B2
:1023B0000861704740F00400FAE7704710B5FFF776
:1023C000FCFF10BD0907090E002806DA00F00F0017
:1023D00000F1E02080F8141D704700F1E02080F843
:1023E000001470470CED00E00000FA05704710B5CE
:1023F000044601F003F94FF47A71B0FBF1F0FFF7F6
:1024000058FF00222146501EFFF711FF002010BD8B
:10241000394810B5016841F0100101600320FFF751
:10242000F9FE0020FFF7E3FF01F078FF002010BD68
:102430007047324810B54FF0FF31C1600022026191
:10244000C160C260FFF7F4FF002010BD2C48016896
:10245000491C016070472A480068704731B5FFF792
:10246000FAFF0446FFF7F7FF0099001B8842F9D3F3
:1024700038BD4FF0E020016921F002010161704791
:102480004FF0E020016941F00201016170474FF017
:10249000012070471B4800681B4991FAA1F1B1FA6D
:1024A00081F1C840704717480068C0F30B007047BF
:1024B0001448416841F0010141607047114841688A
:1024C00021F00101416070470E48416841F002016E
:1024D000416070470B48416821F00201416070473C
:1024E0000848416841F0040141607047054841686F
:1024F00021F00401416070470020024000100240BA
:1025000004000020002004E00000FFFF70B520B1AF
:1025100090F82110002411B103E0012070BD80F873
:102520002040022180F8211003681A6843F6F071F8
:102530008A43D0E901152943D0E90356354329439D
:102540004569294385692943C569294311431960B0
:102550004463012180F82110002070BDF0B540B324
:1025600090F82110022924D001680A6822F00102A3
:102570000A6001684FF0000EC1F800E00168C1F880
:1025800004E00168C1F808E00168C1F80CE0F94C0A
:10259000F84DF84EF74FF74ADFF8D8C30168143406
:1025A00028353C3650370CF1640C914203D102219E
:1025B0001BE00120F0BDA14201D1202115E0A9427C
:1025C00002D14FF4007110E0B14202D14FF400513A
:1025D0000BE0B94202D14FF4003106E0614502D16F
:1025E0004FF4001101E04FF00071E24B083B5960DD
:1025F0000168914201D1082119E0A14201D1802155
:1026000015E0A94202D14FF4006110E0B14202D1BD
:102610004FF400410BE0B94202D14FF4002106E033
:10262000614502D14FF4000101E04FF000615960B3
:102630000168914201D1042119E0A14201D1402158
:1026400015E0A94202D14FF4806110E0B14202D1FD
:102650004FF480410BE0B94202D14FF4802106E0F3
:10266000614502D14FF4800101E04FF08061596073
:10267000C0F834E080F821E080F820E00020F0BDD0
:1026800070B5044690F82000012814D0012084F889
:102690002000022084F821002068056825F001054B
:1026A0000560204600F0B6FA2068016841F001019B
:1026B0000160002070BD022070BD70B5044690F826
:1026C0002000012823D0012084F82000022084F873
:1026D00021002068056825F001050560204600F00E
:1026E00099FA2068016841F00201016020680168E0
:1026F00041F0040101602068016841F008010160B7
:102700002068016841F001010160002070BD0220D5
:1027100070BD2DE9F04104460068016821F0010117
:102720000160FFF798FE054600264FF47A770FE028
:10273000FFF791FE401BB8420AD954F8340F40F01D
:10274000200044F81409032060702670BDE8F08171
:1027500020680068C007EBD1012084F8210084F8CC
:1027600020600020F2E72DE9F74F82B0814D04464A
:10277000804EDFF80082DFF8FC91DFF8F8A1DFF887
:10278000F4B1143503990068283608F13C0809F1C2
:1027900050090AF1640A19B1584520D1042738E0DC
:1027A000584501D1022734E0A84201D1202730E06A
:1027B000B04202D14FF400772BE0404502D14FF4F4
:1027C000005726E0484502D14FF4003721E050453C
:1027D00002D14FF400171CE04FF0007719E0A84237
:1027E00001D1402715E0B04202D14FF4806710E0DC
:1027F000404502D14FF480470BE0484502D14FF4E9
:10280000802706E0504502D14FF4800701E04FF0E9
:102810008067FFF720FEDFF85CB10090ABF1080B9A
:1028200069E00168534A2068904201D1082219E00A
:10283000A84201D1802215E0B04202D14FF40062DB
:1028400010E0404502D14FF400420BE0484502D170
:102850004FF4002206E0504502D14FF4000201E09F
:102860004FF0006211422ED04249884201D1082027
:1028700019E0A84201D1802015E0B04202D14FF406
:10288000006010E0404502D14FF400400BE04845A5
:1028900002D14FF4002006E0504502D14FF4000071
:1028A00001E04FF00060CBF8040054F8340F40F022
:1028B000010044F8140904206070002020700120F9
:1028C00005B0BDE8F08F0498401C14D0049830B1D6
:1028D000FFF7C1FD0099411A049881420BD954F8C1
:1028E000340F40F0200044F81409032060700020E9
:1028F00020700320E4E7DBF800105846394290D0FE
:1029000003981C490028206803D0884223D1042062
:102910003EE0884201D1022019E0A84201D12020E6
:1029200015E0B04202D14FF4007010E0404502D1F2
:102930004FF400500BE0484502D14FF4003006E060
:10294000504502D14FF4001001E04FF00070CBF879
:10295000040001201FE0A84201D1402018E0B0424D
:1029600002D14FF4806013E0404505D14FF4804020
:102970000EE0000008000240484502D14FF48020DC
:1029800006E0504502D14FF4800001E04FF0806036
:10299000CBF80400112084F82100002084F82000E6
:1029A0008EE72DE9F05FDFF88C820446D8F800202E
:1029B000DFF880B29F4D9F4E9E4F0068DFF8749203
:1029C000DFF870A20BF1080B1C35303644374FF49A
:1029D00000614FF4004C4FF4002E09F158090AF140
:1029E0006C0A584501D1082316E0A84201D1802382
:1029F00012E0B04201D10B460EE0B84201D163466D
:102A00000AE0484501D1734606E0504502D14FF433
:102A1000000301E04FF000631A4231D00268D24354
:102A200012072DD4026822F008020260206858457F
:102A300001D1082114E0A84201D1802110E0B04268
:102A40000ED0B84201D161460AE0484501D1714635
:102A500006E0504502D14FF4000101E04FF0006163
:102A6000C8F80410606B40F001006063042084F833
:102A70002100002084F82000216B09B120468847FE
:102A80006C48D0F800C04FF4806120680A010B0444
:102A90004FF4802E584502D14FF0040816E0A842AA
:102AA00002D14FF0400811E0B04201D188460DE05C
:102AB000B84201D1904609E0484501D1F04605E011
:102AC000504502D14FF4800800E098461CEA080FF8
:102AD00033D0D0F800C06FEA0C0C5FEA4C7C2CD4E9
:102AE000D0F800C05FEA8C6C05D4D0F800C02CF0A0
:102AF000040CC0F800C02068584501D1042113E03F
:102B0000A84201D140210FE0B0420DD0B84201D11E
:102B1000114609E0484501D1714605E0504502D112
:102B20004FF4800100E0194642484160112084F8CA
:102B30002100E16A09B1204688473E4AD2F800C028
:102B40005B46206851154FF4005B4FF4003E9842FD
:102B500002D14FF0020817E0A84202D14FF020083E
:102B600012E0B04201D188460EE0B84201D1D84609
:102B70000AE0484501D1F04606E0504502D14FF445
:102B8000001801E04FF000781CEA080F3BD0D0F8A5
:102B900000C06FEA0C0C5FEA8C7C34D4D0F800C023
:102BA0005FEA8C6C05D4D0F800C02CF0020CC0F8A1
:102BB00000C02068984201D1022114E0A84201D14E
:102BC000202110E0B0420ED0B84201D159460AE0AF
:102BD000484501D1714606E0504502D14FF400113D
:102BE00001E04FF000715160606B6063012084F878
:102BF0002100002084F82000A16A002903D020468B
:102C0000BDE8F05F0847BDE8F09F90F821007047ED
:102C1000406B704710B5046863604368102B03680D
:102C200003D099600068C26010BD9A600068C160FE
:102C300010BD000000000240FD4810B5416821F0C1
:102C4000030141600168FB4A11400160016821F401
:102C500080210160002141600268F82494FAA4F404
:102C60001023B4FA84F422F0F802A3401A4302605D
:102C7000816010BD2DE9F84F05460078EC4EC00785
:102C80004FF0010425D070686704C0F3810001286B
:102C900007D07068C0F3810002281BD17068C003A0
:102CA00018D597FAA7F0B0FA80F040F0200040095C
:102CB00001D0306800E0706A97FAA7F1B1FA81F1AB
:102CC00001F01F0104FA01F1084202D068680028EF
:102CD00076D081E0306820F480303060306820F4B5
:102CE00080203060FFF7B7FB804605E0FFF7B3FBBD
:102CF000A0EB080064287CD897FAA7F0B0FA80F01F
:102D000040F02000400901D0306800E0706A97FA76
:102D1000A7F1B1FA81F101F01F0104FA01F10842B3
:102D2000E4D16868B0F5803F0BD010B1B0F5A02FAA
:102D300011D0306820F480303060306820F480207A
:102D400002E0306840F480303060686820B3FFF7FC
:102D500082FB80460AE0306840F480203060F0E773
:102D6000FFF779FBA0EB08006428C4D897FAA7F016
:102D7000B0FA80F040F02000400901D0306800E057
:102D8000706A97FAA7F1B1FA81F101F01F0104FA14
:102D900001F10842E4D01FE0FFF75DFB804605E04B
:102DA000FFF759FBA0EB08006428A4D897FAA7F016
:102DB000B0FA80F040F02000400902D0306801E015
:102DC000B7E0706A97FAA7F1B1FA81F101F01F013B
:102DD00004FA01F10842E3D12878DFF85C82800729
:102DE0004FF000094FF002075AD5706810F00C0F31
:102DF00000E07CE14FF0F80B07D07068C0F3810071
:102E000002281BD17068C00318D497FAA7F0B0FA53
:102E100080F040F02000400901D0306800E0706A86
:102E200097FAA7F1B1FA81F101F01F0104FA01F15B
:102E300008422AD0286901287BD126E0286980B37E
:102E400094FAA4F0B0FA80F048F82040FFF703FBB2
:102E5000824605E0FFF7FFFAA0EB0A00642884D859
:102E600097FAA7F0B0FA80F040F02000400901D0B6
:102E7000306800E0706A97FAA7F1B1FA81F101F0C9
:102E80001F0104FA01F10842E4D030689BFAABF26A
:102E90006969B2FA82F220F0F8009140084330608C
:102EA00025E0FFE794FAA4F1B1FA81F148F8219006
:102EB000FFF7D1FA824605E0FFF7CDFAA0EB0A0052
:102EC0006428CCD897FAA7F0B0FA80F040F0200040
:102ED000400901D0306800E0706A97FAA7F1B1FAB2
:102EE00081F101F01F0104FA01F10842E4D12878D0
:102EF00000076ED5A869B8B394FAA4F0B0FA80F0D0
:102F000008EB8000C0F88044FFF7A5FA824605E090
:102F1000FFF7A1FAA0EB0A006428A0D897FAA7F05F
:102F2000B0FA80F040F06000B4EB501F02D130687E
:102F30000CE098E197FAA7F0B0FA80F040F060005A
:102F4000B7EB501F01D1306A00E0706A97FAA7F121
:102F5000B1FA81F101F01F0104FA01F21042D7D059
:102F60000120FFF77BFA34E0FFE794FAA4F1B1FA0D
:102F700081F108EB8101C1F88094FFF76CFA824679
:102F800006E000BFFFF767FAA0EB0A00642898D8B4
:102F900097FAA7F0B0FA80F040F06000B4EB501F51
:102FA00001D130680BE097FAA7F0B0FA80F040F05A
:102FB0006000B7EB501F01D1306A00E0706A97FAE9
:102FC000A7F1B1FA81F101F01F0104FA01F21042F8
:102FD000D8D12878400772D5F06940F08050F06170
:102FE000F069DFF858B000F080500090DBF8001076
:102FF00041F48071CBF80010FFF72DFA824605E00E
:10300000FFF729FAA0EB0A00642870D8DBF800006B
:10301000C005F5D5306A20F001003062306A20F03A
:1030200004003062FFF717FA834641F2883A0DE058
:1030300000100240FFFFF6FE000042420070004018
:10304000FFF709FAA0EB0B01514550D897FAA7F00A
:10305000B0FA80F040F04000B4EB501F01D130686E
:103060000BE097FAA7F0B0FA80F040F04000B7EB21
:10307000501F01D1306A00E0706A97FAA7F1B1FAE7
:1030800081F101F01F0104FA01F10842D8D1E8688A
:1030900001280AD008B1052812D0306A20F00100BA
:1030A0003062306A20F0040002E0306A40F0010033
:1030B0003062E86898B3FFF7CEF983460CE05AE037
:1030C000306A40F004003062EFE700BFFFF7C3F959
:1030D000A0EB0B0151450AD897FAA7F0B0FA80F09F
:1030E00040F04000B4EB501F02D130680CE09DE08E
:1030F00097FAA7F0B0FA80F040F04000B7EB501F0D
:1031000001D1306A00E0706A97FAA7F1B1FA81F153
:1031100001F01F0204FA02F10842D7D02BE0FFE7CA
:10312000FFF799F9834605E0FFF795F9A0EB0B014E
:1031300051457BD897FAA7F0B0FA80F040F04000F4
:10314000B4EB501F01D130680BE097FAA7F0B0FA4A
:1031500080F040F04000B7EB501F01D1306A00E032
:10316000706A97FAA7F1B1FA81F101F01F0204FA2F
:1031700002F10842D8D1E86980B37168C1F38101D6
:10318000022970D04FF080714F000228484609D0C4
:1031900091FAA1F1B1FA81F148F82100FFF75BF94A
:1031A000054669E0894691FAA1F1B1FA81F1C2467A
:1031B00048F82100FFF74FF9804605E0FFF74BF98B
:1031C000A0EB0800642854D897FAA7F0B0FA80F072
:1031D00040F02000400902D0306801E061E0706AF0
:1031E00097FAA7F1B1FA81F101F01F0104FA01F198
:1031F0000842E3D1286AB0F5803F05D17068A9681C
:1032000020F4003008437060D5E908010843716874
:1032100021F474110843706099FAA9F0B0FA80F0B3
:103220004AF82040FFF717F9054606E021E000BF05
:10323000FFF711F9401B64281BD897FAA7F0B0FAE2
:1032400080F040F02000400901D0306800E0706A52
:1032500097FAA7F1B1FA81F101F01F0104FA01F127
:103260000842E5D01DE01EE0FFF7F5F8401B64289A
:1032700002D90320BDE8F88F97FAA7F0B0FA80F0E2
:1032800040F02000400901D0306800E0706A97FAF1
:10329000A7F1B1FA81F101F01F0104FA01F108422E
:1032A000E2D10020E6E70120E4E72DE9F047DFF86E
:1032B000F89305460E46D9F80000022300F00707F0
:1032C000012041044206F94C41F28838B74272D2DB
:1032D000D9F800C02CF0070C4CEA060CC9F800C065
:1032E000D9F8007007F00707B74270D12E78B607FB
:1032F00005D56668AF6826F0F0063E4366602E7816
:10330000F60757D06E68012E0BD0022E1ED093FA0E
:10331000A3F1B1FA81F141F02001490924D02168DB
:1033200023E091FAA1F2B2FA82F242F020025209AD
:1033300001D0226800E0626A91FAA1F1B1FA81F14C
:1033400001F01F018840024241D017E092FAA2F139
:10335000B1FA81F141F02001490901D0216800E072
:10336000616A92FAA2F202E0616A93FAA3F2B2FAF7
:1033700082F202F01F029040014228D0606820F0E3
:10338000030030436060FFF766F80646686801286E
:103390000AD00228474614D01FE000BFFFF75BF8B1
:1033A000801BB84201D992E047466068C0F38100B3
:1033B0000128F3D1A1E015E0FFF74DF8801BB842DA
:1033C00073D86068C0F381000228F5D195E092E0DF
:1033D000FFF741F8801BB84279D8606810F00C0FF5
:1033E000F6D18AE02F78BF0707D56768D5F808C0FF
:1033F00027F0F00747EA0C0767602F78FF076DD0CA
:103400006F68012F0BD0022F1ED093FAA3F1B1FAEF
:1034100081F141F02001490924D0216823E091FA8B
:10342000A1F2B2FA82F242F02002520901D02268DF
:1034300000E0626A91FAA1F1B1FA81F101F01F0195
:103440008840024257D017E092FAA2F1B1FA81F116
:1034500041F02001490901D0216800E0616A92FA37
:10346000A2F202E0616A93FAA3F2B2FA82F202F0E7
:103470001F02904001423ED0606820F003003843B4
:103480006060FEF7E8FF07466868012807D0022859
:1034900011D01FE0FEF7DFFFC11B414517D8606860
:1034A000C0F381000128F5D118E010E0FEF7D3FF4A
:1034B000C11B41450BD86068C0F381000228F5D1DB
:1034C0000CE000BFFEF7C7FFC11B414502D9032036
:1034D000BDE8F087606810F00C0FF3D1D9F8001048
:1034E00021F007013143C9F80010D9F8000000F0BD
:1034F0000700B04201D00120EAE72878400705D54F
:103500006068E96820F4E06008436060287800079C
:1035100006D56068296920F4605040EAC100606007
:103520000020FEF764FF0020D2E730B585B05F4C85
:1035300000200290A0690D4640F00400A061A0693F
:10354000694600F004000490A0150090022001904C
:10355000032003905648FCF73BFE606820F0E060D3
:103560002843606005B030BD0120C10491FAA1F18B
:10357000504AB1FA81F142F8210070474FF400211E
:1035800091FAA1F14B4AB1FA81F1002042F82100F1
:10359000704710B548A385B00FCB8DE80F004AA047
:1035A000424B006804905A68484802F00C01042914
:1035B00002D0082902D0464805B010BD4FF470145F
:1035C00094FAA4F402F47011B4FA84F4E140D20342
:1035D0001DF801100FD55A684FF4003393FAA3F386
:1035E00002F40032B3FA83F3DA4004AB9A5CB0FB26
:1035F000F2F04843E0E737484843DDE700B5FFF71E
:10360000C8FF2A494968F02292FAA2F201F0F001BB
:10361000B2FA82F2D140304A515CC8402F4908606A
:1036200000BD00B5FFF7EAFF204949684FF4E062AA
:1036300092FAA2F201F4E061B2FA82F2D140264A93
:10364000515CC84000BD00B5FFF7D8FF1749496875
:103650004FF4605292FAA2F201F46051B2FA82F28F
:10366000D1401D4A515CC84000BD30B50F210160FA
:103670000E490A6853034FF0000202D54FF4A0230D
:1036800004E00B68DB0303D54FF48033436000E0B4
:1036900042604B6803F4003383600B68DC074FF033
:1036A00001031DD003611CE0002002400010024015
:1036B0000008014000004242020304050607080911
:1036C0000A0B0C0D0E0F101001020000001BB700BA
:1036D00000127A0000093D00EE43000800000020BF
:1036E00002610C68F82595FAA5F504F0F804B5FA1E
:1036F00085F5EC4044610C6A640702D50524C4607A
:1037000005E00C6AE40701D0C36000E0C2604C6AC7
:10371000E40701D0836100E082610A68D20102D52A
:103720000222C26100E0C3614A6802F48032026290
:10373000496801F47011416230BD0F220260124AE3
:10374000536803F003034360536803F0F00383609E
:10375000536803F4E063C36052684FF4E06303EA24
:10376000D20202610948006800F007000860704753
:10377000704710B5044CA068000603D5FFF7F8FFAA
:103780008020A07210BD0000001002400020024006
:10379000704770B588B00E46040004D094F8390024
:1037A000002518B107E0012008B070BD84F838503A
:1037B0002046FFF7EDFF022084F83900211D206824
:1037C000FCF774FEB368316803222068FEF755F8F1
:1037D0002068816921F00C0181612068816972682B
:1037E000114381612068416841F080014160206897
:1037F000816821F0700181602068816841F040019A
:1038000081602068816821F00701816020688168FB
:1038100041F004018160702005950495069503959B
:1038200002950090F068019069462068FDF790FFCE
:103830002068416821F0700141602068416841F0D2
:1038400050014160012084F839000020ACE7704746
:1038500010B50446022084F839002068016A41F25C
:103860001112114207D1016A9210114203D101686D
:1038700021F0010101602046FFF7E9FF002084F8F4
:10388000390084F8380010BD10B5044600680122E4
:103890000021FCF740FF2068016841F00101016050
:1038A000002010BD10B50446002200681146FCF748
:1038B00032FF2068016A41F21112114207D1016AF8
:1038C0009210114203D1016821F001010160002032
:1038D00010BD10B504460068C16841F00201C16026
:1038E000012200212068FCF716FF2068016841F0E2
:1038F00001010160002010BD10B5044600220068DF
:103900001146FCF708FF2068C16821F00201C16080
:103910002068016A41F21112114207D1016A921026
:10392000114203D1016821F001010160002010BDA6
:1039300070B5044690F8390015460E46022805D0A9
:1039400094F83900012805D10EB905B170BD0220E7
:1039500084F83900012200212068FCF7DCFE216A8E
:10396000F8482B468862216AF74832460863216886
:10397000206A3431FEF7A1FE2068C16841F400716D
:10398000C1602068016841F001010160002070BD44
:1039900010B50446002200681146FCF7BCFE206802
:1039A000C16821F40071C1602068016A41F21112FE
:1039B000114207D1016A9210114203D1016821F02E
:1039C00001010160002010BD10B50446006804220A
:1039D00000F004FC2068416C41F40041416420681F
:1039E000016841F001010160002010BD10B50446DE
:1039F0000068002200F0F2FB2068036A41F2111116
:103A00000B4240F2444206D1036A134203D1436C95
:103A100023F4004343642068036A0B4206D1016A21
:103A2000114203D1016821F001010160002010BDA5
:103A300010B50268044631B1042908D008291FD006
:103A40000C2908D120E0D06840F0020002E0D068E4
:103A500040F00400D0602068C26842F08002C2607A
:103A60000422206800F0BAFB2068416C41F4004158
:103A700041642068016841F001010160002010BD2F
:103A8000D06840F00800E5E7D06840F01000E1E7BA
:103A900010B50268044631B1042908D0082932D093
:103AA0000C2908D133E0D06820F0020002E0D06891
:103AB00020F00400D0600022206800F08FFB206816
:103AC000026A40F244410A4203D1C26822F08002F5
:103AD000C2602068036A41F21112134206D1036AE0
:103AE0000B4203D1436C23F4004343642068036A10
:103AF000134206D1026A0A4203D1016821F0010192
:103B00000160002010BDD06820F00800D2E7D06826
:103B100020F01000CEE770B5044690F83900164644
:103B20000D46022805D094F83900012805D10EB9B8
:103B300003B170BD022084F839008448824935B150
:103B4000042D13D0082D31D00C2D1ED13DE0226A5A
:103B50009062206A0163226831463432206AFEF79F
:103B6000ACFD2068C16841F400710DE0626A9062AA
:103B7000606A0163226831463832606AFEF79DFD53
:103B80002068C16841F48061C16004222946206830
:103B900000F024FB2068416C41F40041416420683E
:103BA000016841F001010160002070BDA26A9062CD
:103BB000A06A0163226831463C32A06AFEF77DFDAF
:103BC0002068C16841F40061DEE7E26A9062E06A61
:103BD0000163226831464032E06AFEF76EFD2068DC
:103BE000C16841F48051CFE710B50268044631B195
:103BF000042908D008292DD00C2908D12EE0D0683E
:103C000020F4007002E0D06820F48060D0600022D0
:103C1000206800F0E3FA2068036A41F211121342AF
:103C200040F2444106D1036A0B4203D1436C23F4B2
:103C3000004343642068036A134206D1026A0A42C1
:103C400003D1016821F001010160012084F83900ED
:103C5000002010BDD06820F40060D7E7D06820F4C1
:103C60008050D3E710B504460068042200F0B6FA8D
:103C70002068416C41F4004141642068016841F0D2
:103C800001010160002010BD10B50446006800224B
:103C900000F0A4FA2068036A41F211110B4240F2CD
:103CA000444206D1036A134203D1436C23F4004318
:103CB00043642068036A0B4206D1016A114203D1B2
:103CC000016821F001010160002010BD10B50268FB
:103CD000044631B1042908D008291FD00C2908D185
:103CE00020E0D06840F0020002E0D06840F004001C
:103CF000D0602068C26842F08002C260042220685E
:103D000000F06CFA2068416C41F400414164206885
:103D1000016841F001010160002010BDD06840F051
:103D20000800E5E7D06840F01000E1E710B5026850
:103D3000044669B104290FD0082939D00C290FD1C4
:103D40003AE00000A50E0008FF050008770800080B
:103D5000D06820F0020002E0D06820F00400D060BB
:103D60000022206800F03AFA2068026A40F24441DA
:103D70000A4203D1C26822F08002C2602068036A4E
:103D800041F21112134206D1036A0B4203D1436C74
:103D900023F4004343642068036A134206D1026A95
:103DA0000A4203D1016821F001010160002010BD29
:103DB000D06820F00800D2E7D06820F01000CEE7ED
:103DC00070B5044690F8390016460D46022805D015
:103DD00094F83900012805D10EB903B170BD022055
:103DE00084F83900F848F94935B1042D13D0082D6D
:103DF00031D00C2D1ED13DE0226A9062206A016311
:103E0000226831463432206AFEF757FC2068C168C8
:103E100041F400710DE0626A9062606A0163226899
:103E200031463832606AFEF748FC2068C16841F4C8
:103E30008061C16004222946206800F0CFF9206823
:103E4000416C41F4004141642068016841F0010186
:103E50000160002070BDA26A9062A06A01632268BE
:103E600031463C32A06AFEF728FC2068C16841F464
:103E70000061DEE7E26A9062E06A0163226831462F
:103E80004032E06AFEF719FC2068C16841F48051B5
:103E9000CFE710B50268044631B1042908D00829DB
:103EA0002DD00C2908D12EE0D06820F4007002E05B
:103EB000D06820F48060D0600022206800F08EF985
:103EC0002068036A41F21112134240F2444106D1C4
:103ED000036A0B4203D1436C23F40043436420681C
:103EE000036A134206D1026A0A4203D1016821F033
:103EF00001010160012084F83900002010BDD06864
:103F000020F40060D7E7D06820F48050D3E710B5E4
:103F100004460068042200F061F92068416C41F415
:103F200000414164002010BD10B504460068002225
:103F300000F054F92068036A41F211110B4240F27B
:103F4000444206D1036A134203D1436C23F4004375
:103F500043642068036A0B4206D1016A114203D10F
:103F6000016821F001010160002010BD10B5044678
:103F70000068C26842F00202C2602068C26842F073
:103F80000402C2600422206800F028F92068416C15
:103F900041F400414164002010BD10B504460068A2
:103FA000C26822F00202C2602068C26822F00402E5
:103FB000C2600022206800F011F92068036A41F213
:103FC00011110B4240F2444206D1036A134203D15D
:103FD000436C23F4004343642068036A0B4206D118
:103FE000016A114203D1016821F001010160002042
:103FF00010BD10B590F83830012B0AD0012380F89D
:10400000383041B1102906D0202904D0302902D0FF
:104010000AE0022010BD03689C6824F070049C60D4
:1040200003689C680C439C6001684B6843F0010383
:104030004B6001684B6823F004034B6001684B68D8
:1040400013434B60002180F83810084610BD10B5AE
:1040500090F83830012B0AD0012380F8383041B174
:10406000102906D0202904D0302902D00AE00220ED
:1040700010BD03689C6824F070049C6003689C6811
:104080000C439C6001684B6843F001034B6001687E
:104090004B6823F004034B6001684B6813434B608B
:1040A0000168CA6842F02002CA60002180F8381016
:1040B000084610BD704710B5406A012180F83910DC
:1040C000FFF7F8FF10BD10B590F83830012B0AD07B
:1040D000012380F8383041B1102906D0202904D0BE
:1040E000302902D00AE0022010BD03689C6824F049
:1040F00070049C6003689C680C439C6001684B687A
:1041000043F001034B6001684B6823F004034B60EC
:1041100001684B6813434B60AFF26501026B91621B
:10412000026B2A4911630168CA6842F40052CA60EE
:10413000002180F83810084610BD30B590F83820BE
:10414000012A19D0012200F8382F02234370D1E947
:1041500000342343D1E902452C4323430C69234314
:104160004C69896923430B4350F8381C4B644270F7
:1041700000210170084630BD022030BD30B590F8F6
:104180003820012A24D0012280F83820022380F828
:10419000393003685C6824F070045C6003685C6814
:1041A0000D682C435C6003689C6824F080049C606C
:1041B00003689C6849680C439C6080F839200021A2
:1041C00080F83810084630BD77080008FF05000861
:1041D0000220F8E7704790F83900704710B50423C3
:1041E000046A8B409C430462036A8A40134303625F
:1041F00010BD000030B58FB001252804CDE9005076
:10420000002407946846FEF735FD0520CDE90A0530
:10421000A802CDE90C4000210AA80E94FFF745F84A
:10422000FFF7ECF94FF47A71B0FBF1F0FEF741F8CB
:104230000420FEF7B6F800221146501EFDF7F7FFE6
:104240000FB030BD08B5FEF7E3F8FFF7D3FF2D48F8
:10425000816941F020018161816901F020010091B3
:10426000816941F004018161806900F004000090DF
:1042700000F01BF804212448FCF70BFC4FF4FA76FD
:10428000214D771E0024286884630A20FEF7E6F893
:10429000641CB442F7DB3C46286884630A20FEF7BE
:1042A000DDF8641E002CF7DCECE710B516488EB084
:1042B0004FF08041016017210024C0E9011440F251
:1042C000F311C0E90314FCF71DF94FF48050079077
:1042D00007A90D48FDF72AFE0B48FCF7A2FB0B943B
:1042E0000BA909480C94FFF749FF602000900A20B1
:1042F000CDE901040422694603480494FDF770FBEC
:104300000EB010BD001002400800002010B5FEF7EE
:104310009DF8BDE81040FEF751B800001D4808B5F3
:10432000816941F001018161806900F00100009024
:104330000320FDF76FFF0022BDE808401146501E24
:10434000FDF775BF00B5006885B0B0F1804F11D1A1
:104350001048C16941F00101C161C069694600F0BE
:1043600001000490022000900190012003900A486F
:10437000FBF72EFF05B000BD0068B0F1804F08D1FB
:104380000448C16921F00101C16102210248FBF723
:10439000EBBF70470010024000080140064C074D7B
:1043A00006E0E06840F0010394E807009847103405
:1043B000AC42F6D3FBF79EFE004400082044000800
:1043C00002E008C8121F08C1002AFAD170477047DE
:1043D000002001E001C1121F002AFBD1704700003C
:1043E00000000000000001020304060708090000A5
:1043F000000001020304010203040607080900008B
:10440000204400080000002008000000C04300080D
:10441000284400080800002040040000D0430008A1
:0844200000A24A0400000000A4
:04000005080000ED02
:00000001FF
