:020000040800F2
:10000000600200206D010008710100087301000802
:100010007501000877010008790100080000000060
:100020000000000000000000000000007B0100084C
:100030007D010008000000007F0100088101000828
:100040008301000883010008830100088301000880
:100050008301000883010008830100088301000870
:100060008301000883010008830100088301000860
:100070008301000883010008830100088301000850
:100080008301000883010008830100088301000840
:100090008301000883010008830100088301000830
:1000A0008301000883010008830100088301000820
:1000B0008301000883010008830100088301000810
:1000C0008301000883010008830100088301000800
:1000D00083010008830100088301000883010008F0
:1000E00083010008830100088301000800F002F882
:1000F00000F02CF80AA090E8000C82448344AAF196
:100100000107DA4501D100F021F8AFF2090EBAE893
:100110000F0013F0010F18BFFB1A43F0010318473B
:100120008C0100009C010000002300240025002613
:10013000103A28BF78C1FBD8520728BF30C148BF4A
:100140000B6070471FB51FBD10B510BD00F073F8F0
:100150001146FFF7F7FF00F04AF800F091F803B4FA
:10016000FFF7F2FF03BC00F099F8000008480047D1
:10017000FEE7FEE7FEE7FEE7FEE7FEE7FEE7FEE757
:10018000FEE7FEE703480449024A044B70470000BB
:10019000ED000008600000206002002060000020E8
:1001A0001F48806940F00C001D4988611D480068A7
:1001B00020F440001B4908600846006840F48010A5
:1001C00008601948006820F4404017490860084654
:1001D000006840F4004008600820134910310860AE
:1001E000704701E000BF401E0028FBD17047FFF7B9
:1001F000D7FF14E00C480830006800F0080070B920
:1002000020200849103108600848FFF7EAFF4FF442
:1002100000100449103108600448FFF7E2FFE9E7E5
:1002200000100240000C014000080140400D030096
:10023000704770477047754600F02CF8AE460500D1
:100240006946534620F00700854618B020B5FFF7F1
:1002500099FFBDE820404FF000064FF000074FF037
:1002600000084FF0000B21F00701AC46ACE8C009D4
:10027000ACE8C009ACE8C009ACE8C0098D467047DD
:1002800010B50446AFF300802046BDE81040FFF7EC
:1002900066BF000000487047000000200149182098
:1002A000ABBEFEE72600020070470000BC0200085B
:0C02B0000000002060020000280100088F
:04000005080000ED02
:00000001FF
