:020000040800F2
:10000000001000209D010008E7010008E901000838
:1000100000000000000000000000000000000000E0
:10002000000000000000000000000000EB010008DC
:100030000000000000000000ED010008EF010008D2
:10004000F3010008F5010008F7010008F9010008B4
:10005000FB010008FD010008FF0100080102000883
:100060000302000805020008070200080902000850
:100070000B0200080D0200080F0200081102000820
:1000800013020008150200081702000819020008F0
:100090001B0200081D0200081F02000821020008C0
:1000A0002302000825020008270200082902000890
:1000B0002B0200082D0200082F0200083102000860
:1000C0003302000810B5064C2378002B07D1054BEE
:1000D000002B02D0044800E000BF0123237010BDB4
:1000E0006800002000000000C4040008084B10B5A0
:1000F000002B03D00749084800E000BF0748036809
:10010000002B00D110BD064B002BFBD09847F9E720
:10011000000000006C000020C404000868000020FB
:1001200000000000164B002B00D1144B9D464022CE
:1001300092029A1A924600218B460F461348144A9F
:10014000121A00F0A5F90F4B002B00D098470E4B68
:10015000002B00D098470020002104000D000D481E
:10016000002802D00C4800E000BF00F06BF920002E
:10017000290000F019F900F04FF9C046000008000E
:1001800000100020000000000000000068000020B7
:100190008400002000000000000000000749084A19
:1001A000084B9B1A05DD00240859105104349C4269
:1001B000FADB05488047054800470000D0040008E6
:1001C00000000020680000203D0200082501000812
:1001D0001849194A002301E00B6004319142FBD316
:1001E00000F0E2F8FEE7FEE7FEE7FEE7FEE7FEE7E7
:1001F000FEE7FEE7FEE7FEE7FEE7FEE7FEE7FEE7D7
:10020000FEE7FEE7FEE7FEE7FEE7FEE7FEE7FEE7C6
:10021000FEE7FEE7FEE7FEE7FEE7FEE7FEE7FEE7B6
:10022000FEE7FEE7FEE7FEE7FEE7FEE7FEE7FEE7A6
:10023000FEE7FEE7680000208400002080B500AFE4
:100240001B4B1B4A126801210A431A60184B184ABB
:10025000526818490A405A60154B154A12681649E7
:100260000A401A60124B124A126814490A401A6076
:100270000F4B0F4A526812490A405A600C4B0C4A05
:10028000D26A0F218A43DA62094B094A126B0D497F
:100290000A401A63064B064A526B01218A435A638D
:1002A000034B00229A6000F00FF8C046BD4680BDA7
:1002B000001002400CB8FFF8FFFFF6FEFFFFFBFF47
:1002C000FFFFC0FFACFEFFFF80B582B000AF002390
:1002D0007B6000233B60314B304A12688021490229
:1002E0000A431A602D4B1A6880239B0213403B601F
:1002F0007B6801337B603B68002B04D17A68A023C4
:10030000DB019A42EED1254B1A6880239B021340F1
:1003100002D001233B6001E000233B603B68012BDE
:1003200038D11F4B11221A601C4B1C4A52685A606C
:100330001A4B1A4A52685A60184B184A526819499F
:100340000A405A60154B154A5268882149030A43EE
:100350005A60124B114A1268802149040A431A60FC
:10036000C0460E4B1A6880239B041340F9D00B4BF8
:100370000A4A526803218A435A60084B074A526866
:1003800002210A435A60C046044B5B680C221340AA
:10039000082BF9D1C046BD4602B080BD0010024016
:1003A00000200240FF7FC0FF80B582B000AF174B36
:1003B000164A5269802189020A435A619023DB055B
:1003C0009022D2051268802149000A431A609023C6
:1003D000DB0510229A6100237B6002E07B68013319
:1003E0007B607B680A4A9342F8DD9023DB0580221C
:1003F00052039A6100237B6002E07B6801337B60DB
:100400007B68044A9342F8DDE1E7C04600100240F1
:10041000FFFF2400FFFF0F00084B10B50400002B66
:1004200002D0002100E000BF054B1868836A002B52
:1004300000D09847200000F033F8C04600000000CC
:10044000C00400080E4B70B500251E000D4CE41AC8
:10045000A410A54204D0AB00F35898470135F8E743
:1004600000F020F8084B00251E00084CE41AA410E8
:10047000A54204D0AB00F35898470135F8E770BDAA
:100480006000002060000020600000206400002068
:1004900003008218934202D019700133FAE77047C3
:1004A000FEE70000F8B5C046F8BC08BC9E467047A1
:1004B000F8B5C046F8BC08BC9E4670474300000033
:0804C000000000200000000014
:0804C8005CFCFF7F0100000055
:1004D000000000000000000000000000000000001C
:1004E000000000000000000000000000000000000C
:1004F000BC04000800000000000000000000000034
:1005000000000000000000000000000000000000EB
:1005100000000000000000000000000000000000DB
:1005200000000000000000000000000000000000CB
:08053000ED000008C500000801
:0400000508000000EF
:00000001FF
