:020000040800F2
:1000000048040020ED43000859430008F743000866
:10001000F9430008FB430008FD430008000000000E
:10002000000000000000000000000000FF43000886
:100030000144000800000000034400085D4300087C
:100040000744000807440008074400080744000864
:100050000744000807440008074400080744000854
:100060000744000807440008074400080744000844
:100070000744000807440008074400080744000834
:100080000744000807440008074400080744000824
:100090000744000807440008074400080744000814
:1000A0000744000807440008074400080744000804
:1000B00007440008074400080744000807440008F4
:1000C00007440008074400080744000807440008E4
:1000D00007440008074400080744000807440008D4
:1000E000074400080744000807440008DFF80CD064
:1000F00004F08EF9004800479342000848040020AD
:100100002448016841F0010101604168224A114020
:1001100041600168214A11400160016821F4802199
:100120000160416821F4FE0141604FF41F018160CC
:100130001B49C00308607047164A10B55068194B38
:1001400010F00C01184803D0042903D0082903D06B
:10015000036016E0154913E05168536801F470110B
:100160004FF0020413F4803F04EB914104D0536834
:100170009B0303D50E4B02E00E4B00E00B4B5943A3
:10018000016051680C4AC1F30311515C0268CA4016
:10019000026010BD001002400000FFF8FFFFF6FEF5
:1001A00008ED00E000127A0000000020001BB700FC
:1001B000808D5B0000093D00524400082DE9F84F96
:1001C000DFF8CCA200220AF1040B144601274FF0FD
:1001D0000F090BF1040E00BF0B6807FA04F52B4062
:1001E000AB4276D1DFF8ACC24E68A6EB0C08664590
:1001F0002BD00DDC032E34D005DC36B3012E19D004
:10020000022E2FD11BE0112E16D0122E2AD119E06A
:10021000B8F5881F19D006DCB8F5803F15D0B8F5C1
:10022000801F1FD111E0B8F5001F0ED0B8F5041FD4
:1002300018D10AE0CA6815E0CA68121D12E0CA683F
:1002400008320FE0CA680C320CE08A682AB1012A31
:100250004FF0080203D0456104E0042202E005618A
:1002600000E00022FF2B01D8054601E000F1040563
:100270004FEA840601D9A6F12006D5F800C009FA94
:1002800006F82CEA080C02FA06F64CEA060CC5F849
:1002900000C04D68ED0065D57F4DAE6946F00106A2
:1002A000AE61AD6924F0030605F0010500957B4DB4
:1002B00006EB050CDCF80850A607360F09FA06F81D
:1002C00025EA0805DFF8D881404503D14FF0000842
:1002D00017E047E0DFF8CC81404502D14FF001083C
:1002E0000FE0DFF8C481404502D14FF0020808E07A
:1002F000DFF8B881404502D14FF0030801E04FF02C
:10030000040808FA06F848EA0508CCF808804D68A1
:10031000DAF80060ED03002D554601DA1E4300E0D7
:100320009E432E604D68DBF80060AD03002D5D46F6
:1003300001DA1E4300E09E432E604D68DEF8006047
:10034000ED02002D754601DA1E4300E09E432E604B
:100350004D68AD02002D564D2E6801DA1E4300E0B7
:100360009E432E60641C102CFFF436AFBDE8F88F5E
:100370002DE9F04300230F24DFF820C159E00122CA
:100380009A400A4054D0FF2A01D8074601E000F104
:1003900004074FEA830601D9A6F12006D7F80080AA
:1003A00004FA06F54FF0040928EA050809FA06F9E7
:1003B00048EA0908C7F80080C56825EA0205C56053
:1003C00023F003056544AF684FEA83764FEA16765B
:1003D00004FA06F909EA0708314FB84201D10027AB
:1003E0000FE0304FB84201D101270AE02E4FB8424A
:1003F00001D1022705E02D4FB84201D1032700E0CB
:100400000427B740474513D1AF6827EA0907AF6013
:100410001F4D2E6896432E602D1D2E6896432E602C
:100420002D1D2E6896432E602D1D2E6896432E603E
:100430005B1C31FA03F2A2D1BDE8F083806808406A
:1004400000D0012070470AB1016170470904FBE741
:10045000C2684A40C260704708B541F480320092D9
:100460008261816100998161816900918069C00325
:1004700001D5002008BD012008BD70470C4910B50A
:1004800008310A68024202D00860FFF7F6FF10BD8B
:100490000004014000001110001002400000014063
:1004A00000080140000C0140001001400014014010
:1004B0000C040140F0B50268F84BF94CF94D4FF0CF
:1004C0008047984205D0B84203D0A04201D0A8424C
:1004D00003D122F070064A683243984205D0B842F0
:1004E00003D0A04201D0A84203D122F44074CA68CC
:1004F000224302608A68C2620A688262984201D11D
:100500000969016301214161F0BD704710B5040024
:1005100003D094F8390010B107E0012010BD00208D
:1005200084F83800204603F035FF022084F83900B3
:10053000211D2068FFF7BEFF012084F8390000204C
:1005400010BD704710B50446022084F839002068B9
:10055000016A41F21112114207D1016A921011424F
:1005600003D1016821F001010160204603F02CFF56
:10057000002038346070207010BD022180F83910DE
:1005800001680A6842F001020A60012180F839100E
:1005900000207047022180F8391001680A6A41F290
:1005A00011131A4207D10A6A9B101A4203D10A6832
:1005B00022F001020A60012180F839100020704702
:1005C0000168CA6842F00102CA600068016841F02F
:1005D00001010160002070470168CA6822F0010231
:1005E000CA600068016A41F21112114207D1016A22
:1005F0009210114203D1016821F001010160002035
:100600007047704710B5406A012180F83910FFF734
:10061000F8FF10BD704710B5406A012180F839100D
:10062000FFF7F8FF10BD70B5044690F839000228B6
:1006300005D094F83900012805D109B902B170BD7F
:10064000022084F83900E36997489862AFF24B00C2
:10065000E3691863256813462C352A46E06902F0E1
:100660003CF82068C16841F48071C160206801686D
:1006700041F001010160002070BD0168CA6822F4E8
:100680008072CA6001680A6A41F211131A4207D1E6
:100690000A6A9B101A4203D10A6822F001020A601A
:1006A000012180F8391000207047704710B5040010
:1006B00003D094F8390010B107E0012010BD0020EC
:1006C00084F838002046FFF7F0FF022084F8390054
:1006D000211D2068FFF7EEFE012084F8390000207C
:1006E00010BD704710B50446022084F83900206818
:1006F000016A41F21112114207D1016A92101142AE
:1007000003D1016821F0010101602046FFF7E9FFF4
:10071000002038346070207010BD10B50123046AC9
:100720008B409C430462036A8A401343036210BDFA
:1007300010B5044600680122FFF7EFFF5749206813
:10074000884203D1416C41F4004141642068016852
:1007500041F001010160002010BD10B504460068A1
:100760000022FFF7DAFF4D4841F211122168931081
:10077000814209D1086A104206D1086A184203D1A1
:10078000486C20F4004048642068016A114206D198
:10079000016A194203D1016821F0010101600020C2
:1007A00010BD10B50268044631B1042908D00829EB
:1007B0001DD00C2908D11EE0D06840F0020002E0F4
:1007C000D06840F00400D06001222068FFF7A5FF48
:1007D00032492068884203D1416C41F400414164B0
:1007E0002068016841F001010160002010BDD0685F
:1007F00040F00800E7E7D06840F01000E3E710B5EC
:100800000268044631B1042908D0082919D00C29FE
:1008100008D11AE0D06820F0020002E0D06820F091
:100820000400D06000222068FFF777FF1B4B41F2E5
:10083000111220689110984212D1036A134208D015
:100840000EE0D06820F00800EBE7D06820F0100040
:10085000E7E7036A0B4203D1436C23F4004343648C
:100860002068036A134206D1026A0A4203D1016872
:1008700021F001010160002010BD704710B5446AED
:10088000012184F83910226A824201D1217617E0D1
:10089000616A81420AD1022011E00000002C01406F
:1008A000000400400008004017060008A16A8142C9
:1008B00001D1042003E0E16A814201D108202076C1
:1008C0002046FFF7DAFF0020207610BD70B5044601
:1008D00090F8390016460D46022805D094F83900E4
:1008E000012805D10EB903B170BD022084F839008A
:1008F000AFF27700AFF2F32135B1042D13D0082DFC
:1009000034D00C2D1ED140E0226A9062206A01632F
:10091000226831463432206A01F0DFFE2068C16867
:1009200041F400710DE0626A9062606A01632268BE
:1009300031463832606A01F0D0FE2068C16841F467
:100940008061C160012229462068FFF7E6FEFE496A
:100950002068884203D1416C41F400414164206821
:10096000016841F001010160002070BDA26A90623F
:10097000A06A0163226831463C32A06A01F0ADFEF4
:100980002068C16841F40061DBE7E26A9062E06AD6
:100990000163226831464032E06A01F09EFE206821
:1009A000C16841F48051CCE710B50268044631B10A
:1009B000042908D0082919D00C2908D11AE0D068D8
:1009C00020F4007002E0D06820F48060D060002243
:1009D0002068FFF7A2FEDC4B41F2111120688A105B
:1009E000984212D1036A0B4208D00EE0D06820F47E
:1009F0000060EBE7D06820F48050E7E7036A134219
:100A000003D1436C23F4004343642068036A0B4220
:100A100006D1016A114203D1016821F00101016090
:100A2000012084F83900002010BD704710B5040083
:100A300003D094F8390010B107E0012010BD002068
:100A400084F838002046FFF7F0FF022084F83900D0
:100A5000211D2068FFF72EFD012084F839000020B9
:100A600010BD704710B50446022084F83900206894
:100A7000016A41F21112114207D1016A921011422A
:100A800003D1016821F0010101602046FFF7E9FF71
:100A9000002038346070207010BD10B50446006826
:100AA0000122FFF73AFEA8492068884203D1416C31
:100AB00041F4004141642068016841F00101016096
:100AC000002010BD10B5044600680022FFF725FE87
:100AD0009D4B41F2111120688A10984209D1036A96
:100AE0000B4206D1036A134203D1436C23F4004343
:100AF00043642068036A0B4206D1016A114203D1A4
:100B0000016821F001010160012084F83900002012
:100B100010BD10B50268044631B1042908D0082977
:100B20001DD00C2908D11EE0D06840F0020002E080
:100B3000D06840F00400D06001222068FFF7EDFD8E
:100B400081492068884203D1416C41F400414164ED
:100B50002068016841F001010160002010BDD068EB
:100B600040F00800E7E7D06840F01000E3E710B578
:100B70000268044631B1042908D0082919D00C298B
:100B800008D11AE0D06820F0020002E0D06820F01E
:100B90000400D06000222068FFF7BFFD6A4B41F2DD
:100BA000111220689110984212D1036A134208D0A2
:100BB0000EE0D06820F00800EBE7D06820F01000CD
:100BC000E7E7036A0B4203D1436C23F40043436419
:100BD0002068036A134206D1026A0A4203D10168FF
:100BE00021F001010160002010BD70B5044690F8AD
:100BF000390016460D46022805D094F83900012820
:100C000005D10EB903B170BD022084F83900AFF2EE
:100C10009330AFF20F6135B1042D13D0082D34D0CD
:100C20000C2D1ED140E0226A9062206A0163226886
:100C300031463432206A01F050FD2068C16841F429
:100C400000710DE0626A9062606A01632268314659
:100C50003832606A01F041FD2068C16841F480616A
:100C6000C160012229462068FFF757FD36492068F8
:100C7000884203D1416C41F400414164206801681D
:100C800041F001010160002070BDA26A9062A06A7B
:100C90000163226831463C32A06A01F01EFD2068E3
:100CA000C16841F40061DBE7E26A9062E06A0163D7
:100CB000226831464032E06A01F00FFD2068C168C9
:100CC00041F48051CCE710B50268044631B10429E3
:100CD00008D0082919D00C2908D11AE0D06820F4CE
:100CE000007002E0D06820F48060D06000222068AC
:100CF000FFF713FD144B41F2111120688A1098423E
:100D000012D1036A0B4208D00EE0D06820F40060D4
:100D1000EBE7D06820F48050E7E7036A134203D181
:100D2000436C23F4004343642068036A0B4206D1FA
:100D3000016A114203D1016821F001010160012023
:100D400084F83900002010BD002C0140704710B518
:100D5000040003D094F8390010B107E00120F2E755
:100D6000002084F838002046FFF7F0FF022084F8C6
:100D70003900211D2068FFF79DFB012084F8390010
:100D80000020E0E7704710B50446022084F83900DF
:100D90002068016A41F21112114207D1016A9210D2
:100DA000114203D1016821F0010101602046FFF7E3
:100DB000E9FF0020383460702070C4E710B50446A5
:100DC00000680122FFF7A9FC2068016841F00101D9
:100DD00001600020B7E710B5044600680022FFF765
:100DE0009CFC2068016A41F21112114207D1016A8C
:100DF0009210114203D1016821F00101016000202D
:100E0000A1E710B50268044631B1042908D00829C9
:100E100015D00C2908D116E0D06840F0020002E09D
:100E2000D06840F00400D06001222068FFF775FC14
:100E30002068016841F001010160002083E7D0686B
:100E400040F00800EFE7D06840F01000EBE710B585
:100E50000268044631B1042908D0082915D00C29AC
:100E600008D116E0D06820F0020002E0D06820F03F
:100E70000400D06000222068FFF74FFC2068016A60
:100E800041F21112114208D010E0D06820F00800A1
:100E9000EFE7D06820F01000EBE7016A40F244422F
:100EA000114203D1016821F00101016000204AE7ED
:100EB000704710B5446A012184F83910226A8242D1
:100EC00001D121760EE0616A814201D1022008E061
:100ED000A16A814201D1042003E0E16A814201D18B
:100EE000082020762046FFF7E3FF002020762AE73F
:100EF00070B5044690F839000E46022805D094F8E3
:100F00003900012805D10AB903B170BD022084F867
:100F10003900AFF26100AFF6131536B1042E12D0CE
:100F2000082E2AD00C2E1CD135E0216A8862206A56
:100F300005632168206A343101F0CFFB2068C16865
:100F400041F400710CE0616A8862606A056321689F
:100F5000606A383101F0C1FB2068C16841F48061EA
:100F6000C160012231462068FFF7D7FB2068016885
:100F700041F001010160002070BDA16A8862A06A91
:100F800005632168A06A3C3101F0A7FB2068C168B5
:100F900041F40061E4E7E16A8862E06A0563216880
:100FA000E06A403101F099FB2068C16841F480514A
:100FB000D6E710B50268044631B1042908D00829E3
:100FC00015D00C2908D116E0D06820F4007002E09A
:100FD000D06820F48060D06000222068FFF79DFB7D
:100FE0002068016A41F21112114208D010E0D06865
:100FF00020F40060EFE7D06820F48050EBE7016A4E
:1010000040F24442114203D1016821F00101016024
:10101000012084F83900002095E6704770B50D4630
:10102000040003D094F8390010B107E0012070BD2E
:10103000002084F838002046FFF7EFFF022084F8F4
:101040003900211D2068FFF735FA2068016821F07A
:10105000080101602068016829430160012084F8CB
:101060003900002070BD704710B50446022084F896
:1010700039002068016A41F21112114207D1016A58
:101080009210114203D1016821F001010160204654
:10109000FFF7E9FF002038346070207053E610B588
:1010A0000446006801220021FFF737FB01220421DA
:1010B0002068FFF732FBFE492068884203D1416C6B
:1010C00041F40041416400203DE610B50446002291
:1010D00000681146FFF721FB002204212068FFF77A
:1010E0001CFBF34B41F2111120688A10984209D180
:1010F000036A0B4206D1036A134203D1436C23F403
:10110000004343642068036A0B4206D1016A11421E
:1011100003D1016821F001010160002013E610B540
:1011200004460068C16841F00201C1602068C168DE
:1011300041F00401C160012200212068FFF7EDFAAF
:10114000012204212068FFF7E8FAD9492068884283
:1011500003D1416C41F4004141640020F3E510B536
:1011600004460068C16821F00201C1602068C168BE
:1011700021F00401C160002211462068FFF7CDFA7A
:10118000002204212068FFF7C8FAC94B41F211116F
:1011900020688A10984209D1036A0B4206D1036A7B
:1011A000134203D1436C23F4004343642068036A71
:1011B0000B4206D1016A114203D1016821F00101FD
:1011C00001600020BFE570472DE9F0410D460400A5
:1011D00003D094F8390018B108E00120BDE8F0818F
:1011E000002084F838002046FFF7EDFF022084F845
:1011F00039002068816821F007018160211D206885
:10120000FFF758F9226890689169166A2B68AF69F0
:10121000034340F20330814341EA0721A868EF69A4
:1012200008434FF6FC418843E96840EA0720014340
:1012300028692F6A000140EA0730084369686D6930
:1012400026F0AA0646EA05152943936022689061B4
:1012500020680162012084F839000020BEE7704751
:1012600010B50446022084F839002068016A41F272
:101270001112114207D1016A9210114203D1016883
:1012800021F0010101602046FFF7E9FF002038341A
:101290006070207057E510B50446006889B10429D4
:1012A00004D001220021FFF738FA2068012204212E
:1012B000FFF733FA2068016841F001010160002066
:1012C00041E501220021F3E710B50446006891B121
:1012D000042904D000221146FFF71FFA20680022DB
:1012E0005FF00401FFF719FA2068016A41F2111258
:1012F000114203D00BE000221146F3E7016A40F2ED
:101300004442114203D1016821F001010160002033
:1013100019E510B50446006889B104294FF00102AF
:1013200016D00021FFF7F9F9012204212068FFF708
:10133000F4F92068C16841F00201C1600BE00122AC
:101340000021FFF7EAF92068C16841F0020106E0D8
:101350000421FFF7E2F92068C16841F00401C1608F
:101360002068016841F0010101600020EBE410B544
:1013700004460068E1B104294FF0000221D00021A9
:10138000FFF7CBF9002204212068FFF7C6F9206897
:10139000C16821F00201C1602068C16821F0040128
:1013A000C1602068016A41F2111211420DD015E0AE
:1013B00000221146FFF7B1F92068C16821F002014F
:1013C000EEE70421FFF7A9F9E6E7016A40F244429B
:1013D000114203D1016821F001010160012084F86C
:1013E00039000020AFE42DE9F041044690F83900BF
:1013F000069F9846022809D094F83900012809D19F
:1014000012B1B8F1000F02D10FB10120E6E60220BF
:1014100084F83900AFF26555AFF6176621B104299B
:101420001AD0182964D132E0206A3B468562206ACE
:1014300006632168206A343101F04FF92068C168E1
:1014400041F40071C1602068016841F00101016050
:1014500001220021206817E0606A3B46424685620F
:10146000606A06632168606A383101F036F92068E5
:10147000C16841F48061C1602068016841F00101E8
:101480000160012204212068FFF747F930E0206A5B
:101490003B468562206A06632168206A343101F088
:1014A0001CF9606A8562606A06632168383101E070
:1014B000002C01403B464246606A01F00EF920686C
:1014C000016841F001010160012200212068FFF75D
:1014D00024F9012204212068FFF71FF92068C16860
:1014E00041F40071C1602068C16841F48061C1604D
:1014F000002073E610B504460068E1B104294FF0FE
:10150000000221D00021FFF708F900220421206801
:10151000FFF703F92068C16821F40071C1602068F9
:10152000C16821F48061C1602068016A41F2111232
:1015300011420DD015E000221146FFF7EEF82068A9
:10154000C16821F40071EEE70421FFF7E6F8E6E751
:10155000016A40F24442114203D1016821F00101C5
:101560000160012084F8390000200AE470477047C8
:1015700070B50446006801694FF00005C94389074A
:1015800015D4C168C943890711D4E91E016101203E
:101590002076206880698007204602D0FFF788FC0B
:1015A00004E0FFF7E4FF2046FFF767F9257620689F
:1015B0000169C943490717D4C168C943490713D40E
:1015C0006FF004010161022020762068806910F428
:1015D000407F204602D0FFF76BFC04E0FFF7C7FF17
:1015E0002046FFF74AF9257620680169C9430907B3
:1015F00016D4C168C943090712D46FF0080101610C
:10160000042020762068C0698007204602D0FFF7BA
:101610004FFC04E0FFF7ABFF2046FFF72EF92576DD
:1016200020680169C943C90617D4C168C943C906FE
:1016300013D46FF010010161082020762068C06982
:1016400010F4407F204602D0FFF732FC04E0FFF7A1
:101650008EFF2046FFF711F9257620680169C943FE
:10166000C90708D1C168C943C90704D1891E0161EE
:101670002046FEF7CFFF20680169C943090609D457
:10168000C168C943090605D46FF080010161204695
:1016900002F0C0FD20680169C943490609D4C16848
:1016A000C943490605D46FF0400101612046FFF7A8
:1016B0005DFF20680169C94389060BD4C168C9432D
:1016C000890607D46FF0200101612046BDE8704013
:1016D00002F010BD70BD30B5026A22F48052026281
:1016E000046A4268C3690D6823F4E64343EA0523AC
:1016F0008D6824F4005444EA0534FE4DA84204D118
:101700004D6922F4804242EA85124260C361496811
:101710000164046230BD30B5026A22F48072026254
:10172000036A4268C46923F4007324F073050C68EB
:101730002C438D6843EA0523EE4DA8420ED1CD68B7
:1017400023F4006343EA05234D6922F4405242EA40
:1017500005128D6923F4806342EA05124260C46178
:101760004968C163036230BD30B5026A22F01002DD
:101770000262026A436884690D6824F4E64444EA1C
:1017800005248D6822F0200242EA0512D94DA842B4
:101790000ED1CD6822F0800242EA05124D6923F491
:1017A000406343EA85038D6922F0400243EA8503E2
:1017B0004360846149688163026230BD30B5026A6A
:1017C00022F001020262026A4368846924F0730510
:1017D0000C682C4322F002058A682A43C54DA842B2
:1017E0000BD122F00805CA6823F440732A434D69DF
:1017F00022F004021D438B692B43436084614968D6
:101800004163026230BD70B5044690F8380001288B
:101810000DD0012584F83850022084F8390042B1F7
:10182000042A0AD0082A0CD00C2A11D10DE002207B
:1018300070BD2068FFF7C2FF0AE02068FFF794FF41
:1018400006E02068FFF767FF02E02068FFF743FF2C
:10185000383465700020207070BD30B5046A24F003
:10186000100404628469056A24F4407444EA022284
:1018700022F470444FF6FF7202EA03322243A0249E
:1018800025F0A00304EA011119438261016230BD11
:1018900070B5046A24F0010404628469056A954EF7
:1018A000B04208D0B0F1804F05D0934EB04202D084
:1018B000924EB04203D124F00304144301E044F0FB
:1018C00001041A0724F0F00444EA126225F00A0326
:1018D00001F00A0119438261016270BD2DE9F041F6
:1018E000044690F838000D4601283AD0012684F8C5
:1018F0003860022084F8390092B3042A43D020686B
:10190000082A52D0D5E90027E968036A23F48053F6
:101910000362D0F81CC0036A2CF4407C4CEA072711
:101920004FF6FF7C27F470470CEA013139434FF43E
:10193000204723F4204307EA02321A43C1610262BE
:101940002068C16921F44061C1612068C169AA6849
:1019500041EA0221C16138346670002020703DE404
:1019600001E002203AE4D5E90012EB682068FFF7B5
:101970008FFF2068816921F00C01816120688169F5
:10198000AA6811430FE0D5E90012EB682068FFF761
:1019900064FF2068816921F4406181612068816968
:1019A000AA6841EA02218161D5E7D5E9002C2F7BA5
:1019B000016A21F480710162C169036A21F00301A7
:1019C00041EA0C0121F0F00C39074FF420674CEA92
:1019D000116123F4206307EA02221A43C161026203
:1019E0002068C16921F00C01C1612068C169AA6841
:1019F0001143AFE770B5044690F838000D46012852
:101A00000DD0012684F83860022084F8390042B1F4
:101A1000042A18D0082A2AD00C2A4DD139E00220F5
:101A200070BD2068FFF7CAFE2068816941F0080197
:101A300081612068816921F00401816120688169E8
:101A40002A69114311E02068FFF78EFE2068816942
:101A500041F4006181612068816921F480618161C4
:101A6000206881692A6941EA0221816124E02068B5
:101A7000FFF751FE2068C16941F00801C16120688B
:101A8000C16921F00401C1612068C1692A6911435B
:101A900011E02068FFF71FFE2068C16941F4006172
:101AA000C1612068C16921F48061C1612068C16998
:101AB0002A6941EA0221C161383466700020207031
:101AC00070BDF0B51E4687B00D460446B24267D0E1
:101AD00094F8380001281CD0012784F838700220BF
:101AE00084F839002868009068680190A86802901E
:101AF000E86805E0002C01400004004000080040B8
:101B0000039028690590686906902AB1042A0CD1CF
:101B100007E0022007B0F0BD69462068FFF74EFEDF
:101B200003E069462068FFF71FFE16B1042E32D18C
:101B300013E0183520680ECDFFF7AAFE20688169F2
:101B400021F00C0181612068816821F070018160C1
:101B50002068816841F0500112E0183520680ECDF0
:101B6000FFF77BFE2068816921F440618161206874
:101B7000816821F0700181602068816841F0600116
:101B800081602068816821F0070181602068816898
:101B900041F0060181603834677000202070B9E799
:101BA0000120B7E710B5406A012180F83910FFF72E
:101BB000DDFC17E42DE9F041044690F83900069D5C
:101BC0009C4616468846022807D094F8390001281A
:101BD00007D1BCF1000F01D105B117E4022084F850
:101BE00039000127FA48FB4907EB1523B6F5006FCA
:101BF0003BD009DCB6F5807F10D0B6F5007F16D05B
:101C0000B6F5806F1DD128E0B6F5805F35D0B6F50A
:101C1000005F3AD0B6F5804F13D13FE0E269EE495C
:101C20009162E16908632268E0694C3206E0226A49
:101C30009162216A08632268206A4C32614600F092
:101C40004CFD216848EA050088642068C16831437A
:101C5000C16084F8397000204BE4626A9162616A65
:101C600008632268606A4C32E8E7A26A9162A16A5E
:101C700008632268A06A4C32E0E7E26A9162E16A96
:101C800008632268E06A4C32D8E7226BD34991623C
:101C9000216B08632268206B4C32CFE7626BD0491E
:101CA0009162616B08632268606B4C32C6E770B565
:101CB0000D460446B1F5006F21D009DCB5F5807FF3
:101CC00010D0B5F5007F0FD0B5F5806F0FD114E0BF
:101CD000B5F5805F15D0B5F5005F14D0B5F5804F30
:101CE00005D112E0E06900E0206A00F022FD2068E2
:101CF000C168A943C160002070BD606AF5E7A06AB1
:101D0000F3E7E06AF1E7206BEFE7606BEDE72DE9C1
:101D1000F041044690F83900069D9C4616468846D8
:101D2000022807D094F83900012807D1BCF1000F30
:101D300001D105B113E6022084F83900A448012737
:101D400007EB1523AFF69561B6F5006F3BD009DCC4
:101D5000B6F5807F10D0B6F5007F16D0B6F5806F4F
:101D60001DD128E0B6F5805F35D0B6F5005F3AD0DA
:101D7000B6F5804F13D13FE0E26997499162E1697E
:101D800008632168E0694C3106E0226A9162216AA9
:101D900008632168206A4C31624600F09EFC21688D
:101DA00048EA050088642068C1683143C16084F84E
:101DB00039700020D3E5626A9162616A0863216824
:101DC000606A4C31E8E7A26A9162A16A08632168FF
:101DD000A06A4C31E0E7E26A9162E16A0863216837
:101DE000E06A4C31D8E7226B7C499162216B086331
:101DF0002168206B4C31CFE7626B79499162616B4E
:101E000008632168606B4C31C6E770B50D46044627
:101E1000B1F5006F21D009DCB5F5807F10D0B5F5A4
:101E2000007F0FD0B5F5806F0FD114E0B5F5805F5E
:101E300015D0B5F5005F14D0B5F5804F05D112E08F
:101E4000E06900E0206A00F074FC2068C168A943E2
:101E5000C160002070BD606AF5E7A06AF3E7E06A40
:101E6000F1E7206BEFE7606BEDE790F83820012A8F
:101E70000CD0012200F8382F0223437050F8383C70
:101E80005961427000210170084670470220704776
:101E90002DE9F04104460D4694F83810002017460D
:101EA00001290AD0012684F83860022184F839100B
:101EB000696821B1012910D104E002204FE52168B1
:101EC00088600AE0D5E902212B69206800F07DF9DD
:101ED0002068816841F00801816037B1042F0FD07C
:101EE000082F19D00C2F2DD121E028680028206858
:101EF000816902D041F080010CE021F0800109E00D
:101F0000286800282068816902D041F4004101E07E
:101F100021F40041816115E0286800282068C1692A
:101F200002D041F080010CE021F0800109E0286836
:101F300000282068C16902D041F4004101E021F489
:101F40000041C161383466700020207007E570B52B
:101F5000044690F83800012817D0012584F838503D
:101F6000022084F839002068826822F0770222F487
:101F70007F4282600868502841D00DDC202862D062
:101F800005DC78B310284BD15AE0022070BD302810
:101F90005CD0402844D148E0602838D070280BD06D
:101FA000B0F5805F03D0B0F5005F39D11BE0206849
:101FB000816821F0070120E04A68083120680AC9D9
:101FC00000F003F92168886840F07700886027E016
:101FD000050600087D08000817060008F7400008FD
:101FE000A51B000829E04A68083120680AC900F0EA
:101FF000ECF82068816841F48041816010E0CA6893
:102000004968206800F0F3F85021206806E0CA68AB
:102010004968206800F0FCF86021206800F0DFF8D3
:10202000383465700020207070BDCA684968206827
:1020300000F0DDF840212068F0E700212068EDE79E
:1020400010212068EAE720212068E7E73021206896
:10205000E4E70268506820F08000084350600020E8
:10206000704730B403689A6822F070044A682243CB
:1020700022F007040A6822439A604A6812F00F0FA0
:102080001FD11211082A1CD2DFE802F01B1B1B1BF8
:102090000B1D23048A680C3100680AC930BC00F0AB
:1020A00094B80268136A146A24F001041462026886
:1020B0009469096924F0F00444EA0111916100680F
:1020C000036230BC70470A698968006830BC00F060
:1020D0008EB80A698968006830BC00F099B870B59C
:1020E000044690F83800012818D0012584F83850AB
:1020F000022084F839002046FFF7B3FF2068C1684A
:1021000021F04001C1602068C16821F48041C160B4
:1021100084F83950002084F8380070BD022070BD6A
:1021200070B5044690F83800012818D0012584F8CD
:102130003850022084F839002046FFF792FF2068CB
:10214000C16841F04001C1602068C16821F480414C
:10215000C16084F83950002084F8380070BD022036
:1021600070BD90F838300022012B0AD0012380F88E
:10217000383041B1042909D008290AD00C290DD1E1
:102180000AE00220704701684A6B07E001688A6B29
:1021900004E00168CA6B01E001680A6C002180F864
:1021A00038101046704790F83900704790F83900A1
:1021B000704790F83900704790F83900704790F8F0
:1021C0003900704790F83900704710B5846842EACA
:1021D000032224F47F440A4322438260E9E48268B4
:1021E00022F070020A4342F007018160704710B587
:1021F000036A046A24F001040462846924F0F00490
:1022000044EA021423F00A020A4384610262D0E421
:1022100010B5036A23F0100303628369046A23F490
:10222000704343EA023224F0A00343EA01118261C1
:102230000162BEE4724900F0070208684FF6FF032E
:10224000184040EA02206F4A104308607047F0B41B
:102250006B4B1B680C46C3F30223C3F10705042D27
:1022600000D90425191D072901D2002300E0DB1E37
:10227000012606FA05F1491E214099409E40761E2E
:1022800016403143F0BC00F0AFB800F01F0201214E
:10229000914040094FF0E02202EB8000C0F80011AD
:1022A000704700F01F020121914040094FF0E022E9
:1022B00002EB8000C0F880117047BFF34F8F504889
:1022C0000168504A01F4E061121D11430160BFF33F
:1022D0004F8F00BFFDE710B5401EB0F1807F01D3E6
:1022E000012010BD4FF0E02460610F21601700F065
:1022F0007BF80020A06107202061002010BD40482D
:102300000068C0F30220704770B5002804DA3C4C26
:1023100000F00F00083400E03B4C005D040901F0C0
:102320000700C0F10705042D00D90425011D072968
:1023300001D2002000E0C01E012124FA00F601FABB
:1023400005F56D1E2E408140491E21401660196022
:1023500070BD00F01F020121914040094FF0E022C2
:1023600002EB8000C0F80012704741094FF0E022F4
:1023700002EB8101D1F8001200F01F020120904011
:10238000014201D0012070470020704700F01F0279
:102390000121914040094FF0E02202EB8000C0F89B
:1023A0008012704741094FF0E02202EB8101D1F821
:1023B000001300F01F0201209040014201D00120D3
:1023C0007047002070474FF0E0210428086903D0CF
:1023D00020F004000861704740F00400FAE77047FD
:1023E00010B5FFF7FCFF10BD0907090E002804DA3D
:1023F000034A00F00F00083200E0034A815470479E
:102400000CED00E00000FA0500E400E0704710B5B4
:10241000044601F010F94FF47A71B0FBF1F0FFF7C8
:102420005AFF00222146501EFFF711FF002010BD69
:10243000394810B5016841F0100101600320FFF731
:10244000F9FE0020FFF7E3FF01F090FF002010BD30
:102450007047324810B54FF0FF31C1600022026171
:10246000C160C260FFF7F4FF002010BD2C48016876
:10247000491C016070472A480068704731B5FFF772
:10248000FAFF0446FFF7F7FF0099001B8842F9D3D3
:1024900038BD4FF0E020016921F002010161704771
:1024A0004FF0E020016941F00201016170474FF0F7
:1024B000012070471B4800681B4991FAA1F1B1FA4D
:1024C00081F1C840704717480068C0F30B0070479F
:1024D0001448416841F0010141607047114841686A
:1024E00021F00101416070470E48416841F002014E
:1024F000416070470B48416821F00201416070471C
:102500000848416841F0040141607047054841684E
:1025100021F0040141607047002002400010024099
:1025200004000020002004E00000FFFF70B520B18F
:1025300090F82110002411B103E0012070BD80F853
:102540002040022180F8211003681A6843F6F071D8
:102550008A43D0E901152943D0E90356354329437D
:102560004569294385692943C56929431143196090
:102570004463012180F82110002070BDF0B540B304
:1025800090F82110022924D001680A6822F0010283
:102590000A6001684FF0000EC1F800E00168C1F860
:1025A00004E00168C1F808E00168C1F80CE0F74CEC
:1025B000F64DF64EF54FF54ADFF8D0C301681434F6
:1025C00028353C3650370CF1640C914203D102217E
:1025D0001BE00120F0BDA14201D1202115E0A9425C
:1025E00002D14FF4007110E0B14202D14FF400511A
:1025F0000BE0B94202D14FF4003106E0614502D14F
:102600004FF4001101E04FF00071E04B083B5960BE
:102610000168914201D1082119E0A14201D1802134
:1026200015E0A94202D14FF4006110E0B14202D19D
:102630004FF400410BE0B94202D14FF4002106E013
:10264000614502D14FF4000101E04FF00061596093
:102650000168914201D1042119E0A14201D1402138
:1026600015E0A94202D14FF4806110E0B14202D1DD
:102670004FF480410BE0B94202D14FF4802106E0D3
:10268000614502D14FF4800101E04FF08061596053
:10269000C0F834E080F821E080F820E00020F0BDB0
:1026A00070B5044690F82000012814D0012084F869
:1026B0002000022084F821002068056825F001052B
:1026C0000560204600F0B2FA2068016841F001017F
:1026D0000160002070BD022070BD70B5044690F806
:1026E0002000012823D0012084F82000022084F853
:1026F00021002068056825F001050560204600F0EE
:1027000095FA2068016841F00201016020680168C3
:1027100041F0040101602068016841F00801016096
:102720002068016841F001010160002070BD0220B5
:1027300070BD2DE9F04104460068016821F00101F7
:102740000160FFF798FE054600264FF47A770EE009
:10275000FFF791FE401BB84209D92034606940F070
:1027600020006061032060702670BDE8F081206861
:102770000068C007ECD12034012060702670002072
:10278000F3E72DE9F74F82B0804D04467F4EDFF826
:10279000FC81DFF8F891DFF8F4A1DFF8F0B114352F
:1027A00003990068283608F13C0809F150090AF13C
:1027B000640A19B1584520D1042738E0584501D1A1
:1027C000022734E0A84201D1202730E0B04202D1F4
:1027D0004FF400772BE0404502D14FF4005726E03C
:1027E000484502D14FF4003721E0504502D14FF463
:1027F00000171CE04FF0007719E0A84201D14027F4
:1028000015E0B04202D14FF4806710E0404502D19C
:102810004FF480470BE0484502D14FF4802706E093
:10282000504502D14FF4800701E04FF08067FFF779
:1028300022FEDFF858B10090ABF1080B67E00168A9
:10284000524A2068904201D1082219E0A84201D1E1
:10285000802215E0B04202D14FF4006210E0404502
:1028600002D14FF400420BE0484502D14FF4002260
:1028700006E0504502D14FF4000201E04FF0006243
:1028800011422DD04149884201D1082019E0A842C7
:1028900001D1802015E0B04202D14FF4006010E079
:1028A000404502D14FF400400BE0484502D14FF4BF
:1028B000002006E0504502D14FF4000001E04FF047
:1028C0000060CBF804002034606940F001006061D2
:1028D0000420607000202070012005B0BDE8F08F5A
:1028E0000498401C13D0049830B1FFF7C4FD009940
:1028F000411A049881420AD92034606940F02000CE
:10290000606103206070002020700320E5E7DBF8A1
:1029100000105846394292D003981C49002820687C
:1029200003D0884223D104203EE0884201D1022016
:1029300019E0A84201D1202015E0B04202D14FF4A5
:10294000007010E0404502D14FF400500BE04845C4
:1029500002D14FF4003006E0504502D14FF4001090
:1029600001E04FF00070CBF8040001201FE0A84206
:1029700001D1402018E0B04202D14FF4806013E052
:10298000404505D14FF480400EE0000008000240B1
:10299000484502D14FF4802006E0504502D14FF463
:1029A000800001E04FF08060CBF80400112084F833
:1029B0002100002084F820008FE72DE9F05FDFF888
:1029C0008C820446D8F80020DFF880B29F4D9F4EDD
:1029D0009E4F0068DFF87492DFF870A20BF1080BCD
:1029E0001C35303644374FF400614FF4004C4FF43F
:1029F000002E09F158090AF16C0A584501D1082343
:102A000016E0A84201D1802312E0B04201D10B466A
:102A10000EE0B84201D163460AE0484501D1734651
:102A200006E0504502D14FF4000301E04FF000638F
:102A30001A4231D00268D24312072DD4026822F024
:102A4000080202602068584501D1082114E0A8421C
:102A500001D1802110E0B0420ED0B84201D16146D0
:102A60000AE0484501D1714606E0504502D14FF4D5
:102A7000000101E04FF00061C8F80410606B40F005
:102A800001006063042084F82100002084F8200005
:102A9000216B09B1204688476C48D0F800C04FF43C
:102AA000806120680A010B044FF4802E584502D142
:102AB0004FF0040816E0A84202D14FF0400811E0A0
:102AC000B04201D188460DE0B84201D1904609E0FC
:102AD000484501D1F04605E0504502D14FF4800849
:102AE00000E098461CEA080F33D0D0F800C06FEA27
:102AF0000C0C5FEA4C7C2CD4D0F800C05FEA8C6CE4
:102B000005D4D0F800C02CF0040CC0F800C0206838
:102B1000584501D1042113E0A84201D140210FE022
:102B2000B0420DD0B84201D1114609E0484501D16B
:102B3000714605E0504502D14FF4800100E019468E
:102B400042484160112084F82100E16A09B1204621
:102B500088473E4AD2F800C05B46206851154FF4C2
:102B6000005B4FF4003E984202D14FF0020817E09C
:102B7000A84202D14FF0200812E0B04201D18846AD
:102B80000EE0B84201D1D8460AE0484501D1F046EE
:102B900006E0504502D14FF4001801E04FF00078F4
:102BA0001CEA080F3BD0D0F800C06FEA0C0C5FEABB
:102BB0008C7C34D4D0F800C05FEA8C6C05D4D0F89B
:102BC00000C02CF0020CC0F800C02068984201D16F
:102BD000022114E0A84201D1202110E0B0420ED021
:102BE000B84201D159460AE0484501D1714606E094
:102BF000504502D14FF4001101E04FF000715160D7
:102C0000606B6063012084F82100002084F82000BC
:102C1000A16A002903D02046BDE8F05F0847BDE85F
:102C2000F09F90F821007047406B704710B5046822
:102C300063604368102B036803D099600068C2602A
:102C400010BD9A600068C16010BD00000000024025
:102C5000FE4810B5416821F0030141600168FC4A5B
:102C600011400160016821F4802101600021416070
:102C70000268F82494FAA4F41023B4FA84F422F03D
:102C8000F802A3401A430260816010BD2DE9F84F9D
:102C900005460078ED4EC0074FF0010425D070685E
:102CA0006704C0F38100012807D07068C0F3810079
:102CB00002281BD17068C00318D597FAA7F0B0FAA4
:102CC00080F040F02000400901D0306800E0706AD8
:102CD00097FAA7F1B1FA81F101F01F0104FA01F1AD
:102CE000084202D06868002876D081E0306820F47D
:102CF00080303060306820F480203060FFF7BBFB0C
:102D0000804605E0FFF7B7FBA0EB080064287CD8FD
:102D100097FAA7F0B0FA80F040F02000400901D007
:102D2000306800E0706A97FAA7F1B1FA81F101F01A
:102D30001F0104FA01F10842E4D16868B0F5803F50
:102D40000BD010B1B0F5A02F11D0306820F4803036
:102D50003060306820F4802002E0306840F4803039
:102D60003060686820B3FFF786FB80460AE0306871
:102D700040F480203060F0E7FFF77DFBA0EB080017
:102D80006428C4D897FAA7F0B0FA80F040F0200089
:102D9000400901D0306800E0706A97FAA7F1B1FAF3
:102DA00081F101F01F0104FA01F10842E4D01FE0B3
:102DB000FFF761FB804605E0FFF75DFBA0EB080035
:102DC0006428A4D897FAA7F0B0FA80F040F0200069
:102DD000400902D0306801E0B1E0706A97FAA7F1CB
:102DE000B1FA81F101F01F0104FA01F10842E3D1C7
:102DF0002878DFF8608280074FF000094FF0020763
:102E000032D5706810F00C0F00E088E14FF0F80B3D
:102E100007D07068C0F38100022826D17068C00313
:102E200023D497FAA7F0B0FA80F040F020004009D0
:102E300001D0306800E0706A97FAA7F1B1FA81F129
:102E400001F01F0104FA01F1084202D028690128AB
:102E500075D130689BFAABF26969B2FA82F220F060
:102E6000F80091400843306059E0286988B394FA2B
:102E7000A4F1B1FA81F148F82140FFF7FCFA82464B
:102E800006E000BFFFF7F7FAA0EB0A00642898D825
:102E900097FAA7F0B0FA80F040F02000400901D086
:102EA000306800E0706A97FAA7F1B1FA81F101F099
:102EB0001F0104FA01F10842E4D030689BFAABF23A
:102EC00020F0F8016869B2FA82F290400143316063
:102ED00025E0FFE794FAA4F2B2FA82F248F82290D1
:102EE000FFF7C9FA824605E0FFF7C5FAA0EB0A0032
:102EF0006428CCD897FAA7F0B0FA80F040F0200010
:102F0000400901D0306800E0706A97FAA7F1B1FA81
:102F100081F101F01F0104FA01F10842E4D128789F
:102F200000076AD54C48A969A9B394FAA4F1B1FA8B
:102F300081F140F82140FFF79EFA824606E0AAE1BF
:102F4000FFF799FAA0EB0A006428A0D897FAA7F037
:102F5000B0FA80F040F06000B4EB501F01D130684F
:102F60000BE097FAA7F0B0FA80F040F06000B7EB02
:102F7000501F01D1306A00E0706A97FAA7F1B1FAE8
:102F800081F101F01F0104FA01F21042D8D00120B2
:102F9000FFF774FA31E0FFE794FAA4F2B2FA82F292
:102FA00040F82290FFF767FA824605E0FFF763FAE0
:102FB000A0EB0A0064289CD897FAA7F0B0FA80F03A
:102FC00040F06000B4EB501F01D130680BE097FA7D
:102FD000A7F0B0FA80F040F06000B7EB501F01D1CD
:102FE000306A00E0706A97FAA7F1B1FA81F101F056
:102FF0001F0104FA01F21042D8D12878400776D593
:10300000F06940F08050F061F069DFF850B000F0F6
:1030100080500090DBF8001041F48071CBF8001074
:10302000FFF729FA824605E0FFF725FAA0EB0A0030
:10303000642874D8DBF80000C005F5D5306A20F0AC
:1030400001003062306A20F0040009E00010024004
:10305000FFFFF6FE00004242800442420070004042
:103060003062FFF708FA834641F2883A06E000BF73
:10307000FFF701FAA0EB0B01514550D897FAA7F0E2
:10308000B0FA80F040F04000B4EB501F01D130683E
:103090000BE097FAA7F0B0FA80F040F04000B7EBF1
:1030A000501F01D1306A00E0706A97FAA7F1B1FAB7
:1030B00081F101F01F0104FA01F10842D8D1E8685A
:1030C00001280AD008B1052812D0306A20F001008A
:1030D0003062306A20F0040002E0306A40F0010003
:1030E0003062E86898B3FFF7C6F983460CE05AE00F
:1030F000306A40F004003062EFE700BFFFF7BBF931
:10310000A0EB0B0151450AD897FAA7F0B0FA80F06E
:1031100040F04000B4EB501F02D130680CE09DE05D
:1031200097FAA7F0B0FA80F040F04000B7EB501FDC
:1031300001D1306A00E0706A97FAA7F1B1FA81F123
:1031400001F01F0204FA02F10842D7D02BE0FFE79A
:10315000FFF791F9834605E0FFF78DF9A0EB0B012E
:1031600051457BD897FAA7F0B0FA80F040F04000C4
:10317000B4EB501F01D130680BE097FAA7F0B0FA1A
:1031800080F040F04000B7EB501F01D1306A00E002
:10319000706A97FAA7F1B1FA81F101F01F0204FAFF
:1031A00002F10842D8D1E86980B37168C1F38101A6
:1031B000022970D04FF080714F0002284A4609D092
:1031C00091FAA1F1B1FA81F148F82120FFF753F902
:1031D000054669E08A4691FAA1F1B1FA81F1C1464A
:1031E00048F82120FFF747F9804605E0FFF743F94B
:1031F000A0EB0800642854D897FAA7F0B0FA80F042
:1032000040F02000400902D0306801E061E0706ABF
:1032100097FAA7F1B1FA81F101F01F0104FA01F167
:103220000842E3D1286AB0F5803F05D17068A968EB
:1032300020F4003008437060D5E908010843716844
:1032400021F47411084370609AFAAAF1B1FA81F17D
:1032500049F82140FFF70FF9054606E021E000BFDD
:10326000FFF709F9401B64281BD897FAA7F0B0FABA
:1032700080F040F02000400901D0306800E0706A22
:1032800097FAA7F1B1FA81F101F01F0104FA01F1F7
:103290000842E5D01DE01EE0FFF7EDF8401B642872
:1032A00002D90320BDE8F88F97FAA7F0B0FA80F0B2
:1032B00040F02000400901D0306800E0706A97FAC1
:1032C000A7F1B1FA81F101F01F0104FA01F10842FE
:1032D000E2D10020E6E70120E4E72DE9F047DFF83E
:1032E000049405460E46D9F80000022300F00707B3
:1032F000012041044206FC4C41F28838B74272D2A8
:10330000D9F800C02CF0070C4CEA060CC9F800C034
:10331000D9F8007007F00707B74270D12E78B607CA
:1033200005D56668AF6826F0F0063E4366602E78E5
:10333000F60757D06E68012E0BD0022E1ED093FADE
:10334000A3F1B1FA81F141F02001490924D02168AB
:1033500023E091FAA1F2B2FA82F242F0200252097D
:1033600001D0226800E0626A91FAA1F1B1FA81F11C
:1033700001F01F018840024241D017E092FAA2F109
:10338000B1FA81F141F02001490901D0216800E042
:10339000616A92FAA2F202E0616A93FAA3F2B2FAC7
:1033A00082F202F01F029040014228D0606820F0B3
:1033B000030030436060FFF75EF806466868012846
:1033C0000AD00228474614D01FE000BFFFF753F889
:1033D000801BB84201D992E047466068C0F3810083
:1033E0000128F3D1A1E015E0FFF745F8801BB842B2
:1033F00073D86068C0F381000228F5D195E092E0AF
:10340000FFF739F8801BB84279D8606810F00C0FCC
:10341000F6D18AE02F78BF0707D56768D5F808C0CE
:1034200027F0F00747EA0C0767602F78FF076DD099
:103430006F68012F0BD0022F1ED093FAA3F1B1FABF
:1034400081F141F02001490924D0216823E091FA5B
:10345000A1F2B2FA82F242F02002520901D02268AF
:1034600000E0626A91FAA1F1B1FA81F101F01F0165
:103470008840024257D017E092FAA2F1B1FA81F1E6
:1034800041F02001490901D0216800E0616A92FA07
:10349000A2F202E0616A93FAA3F2B2FA82F202F0B7
:1034A0001F02904001423ED0606820F00300384384
:1034B0006060FEF7E0FF07466868012807D0022831
:1034C00011D01FE0FEF7D7FFC11B414517D8606838
:1034D000C0F381000128F5D118E010E0FEF7CBFF22
:1034E000C11B41450BD86068C0F381000228F5D1AB
:1034F0000CE000BFFEF7BFFFC11B414502D903200E
:10350000BDE8F087606810F00C0FF3D1D9F8001017
:1035100021F007013143C9F80010D9F8000000F08C
:103520000700B04201D00120EAE72878400705D51E
:103530006068E96820F4E06008436060287800076C
:1035400006D56068296920F4605040EAC1006060D7
:103550000020FEF75CFF0020D2E730B585B0624C5A
:1035600000200290A0690D4640F00400A061A0690F
:10357000694600F004000490A0150090022001901C
:10358000032003905948FCF719FE606820F0E060C2
:103590002843606005B030BD0120C204544992FA4E
:1035A000A2F2B2FA82F241F8220070474FF40022F0
:1035B0004F4992FAA2F2B2FA82F2002041F82200B8
:1035C000704710B585B04BA301ACD3E901011A686F
:1035D000DB6800920BC44BA0434B006804905A6810
:1035E000494802F00C01042902D0082902D04748BA
:1035F00005B010BD4FF4701494FAA4F402F47011E5
:10360000B4FA84F421FA04F1D2031DF801100FD5A5
:103610005A684FF4003393FAA3F302F40032B3FA7A
:1036200083F3DA4004AB9A5CB0FBF2F04843DFE787
:1036300037484843DCE700B5FFF7C3FF2A4949682C
:10364000F02292FAA2F201F0F001B2FA82F2D14035
:10365000304A515CC8403049086000BD00B5FFF7F2
:10366000EAFF214949684FF4E06292FAA2F201F4BC
:10367000E061B2FA82F2D140264A515CC84000BDF6
:1036800000B5FFF7D8FF184949684FF4605292FA25
:10369000A2F201F46051B2FA82F2D1401D4A515CAB
:1036A000C84000BD30B50F2101600F490A685303BF
:1036B0004FF0000202D54FF4A02304E00B68DB03B7
:1036C00003D54FF48033436000E042604B6803F45D
:1036D000003383600B68DC074FF001031ED00361E9
:1036E0001DE00000002002400010024000080140E0
:1036F0000000424202030405060708090A0B0C0DEC
:103700000E0F101001020000001BB70000127A001B
:1037100000093D00624400080000002002610C68BE
:10372000F82595FAA5F504F0F804B5FA85F524FA1C
:1037300005F444610C6A640702D50524C46005E001
:103740000C6AE40701D0C36000E0C2604C6AE40781
:1037500001D0836100E082610A68D20102D50222B1
:10376000C26100E0C3614A6802F4803202624968C3
:1037700001F47011416230BD0F220260114A53689A
:1037800003F003034360536803F0F003836053685E
:1037900003F4E063C36052684FF4E06303EAD202CB
:1037A00002610948006800F0070008607047704730
:1037B00010B5044CA068000603D5FFF7F8FF802081
:1037C000A07210BD0010024000200240704770B58A
:1037D00088B00E46040004D094F83900002518B1D2
:1037E00007E0012008B070BD84F838502046FFF78C
:1037F000EDFF022084F83900211D2068FCF75AFEF5
:10380000B368316803222068FEF742F820688169B6
:1038100021F00C0181612068816972681143816126
:103820002068416841F0800141602068816821F092
:10383000700181602068816841F0400181602068EA
:10384000816821F0070181602068816841F00401EE
:10385000816070200595049506950395029500906A
:10386000F068019069462068FDF77EFF2068416896
:1038700021F0700141602068416841F050014160D1
:10388000012084F839000020ACE7704710B50446E9
:10389000022084F839002068016A41F211121142B5
:1038A00007D1016A9210114203D1016821F0010190
:1038B00001602046FFF7E9FF002038346070207077
:1038C00010BD10B50446006801220021FCF725FF59
:1038D0002068016841F001010160002010BD10B5B1
:1038E0000446002200681146FCF717FF2068016AB1
:1038F00041F21112114207D1016A9210114203D113
:10390000016821F001010160002010BD10B50446DE
:103910000068C16841F00201C160012200212068F5
:10392000FCF7FBFE2068016841F001010160002006
:1039300010BD10B50446002200681146FCF7EDFEEC
:103940002068C16821F00201C1602068016A41F26B
:103950001112114207D1016A9210114203D101687C
:1039600021F001010160002010BD70B5044690F8FF
:10397000390015460E46022805D094F83900012872
:1039800005D10EB905B170BD022084F839000122BD
:1039900000212068FCF7C1FE216AF9482B468862A5
:1039A000216AF848324608632168206A3431FEF7FC
:1039B00094FE2068C16841F40071C160206801680C
:1039C00041F001010160002070BD10B504460022E5
:1039D00000681146FCF7A1FE2068C16821F400715F
:1039E000C1602068016A41F21112114207D1016AD7
:1039F0009210114203D1016821F001010160002001
:103A000010BD10B504460068042200F007FC2068D1
:103A1000416C41F4004141642068016841F00101BA
:103A20000160002010BD10B504460068002200F0BF
:103A3000F5FB2068036A41F211110B4240F2444247
:103A400006D1036A134203D1436C23F40043436459
:103A50002068036A0B4206D1016A114203D1016852
:103A600021F001010160002010BD10B5026804467C
:103A700031B1042908D008291FD00C2908D120E031
:103A8000D06840F0020002E0D06840F00400D0604E
:103A90002068C26842F08002C2600422206800F000
:103AA000BDFB2068416C41F400414164206801681D
:103AB00041F001010160002010BDD06840F0080015
:103AC000E5E7D06840F01000E1E710B50268044671
:103AD00031B1042908D0082915D00C2908D116E0E5
:103AE000D06820F0020002E0D06820F00400D0602E
:103AF0000022206800F092FB2068026A40F24441F4
:103B00000A4208D00BE0D06820F00800EFE7D06848
:103B100020F01000EBE7C26822F08002C26020684B
:103B2000036A41F21112134206D1036A0B4203D118
:103B3000436C23F4004343642068036A134206D1B4
:103B4000026A0A4203D1016821F0010101600020EC
:103B500010BD70B5044690F8390016460D4602288F
:103B600005D094F83900012805D10EB903B170BD14
:103B7000022084F839008448824935B1042D13D0DD
:103B8000082D31D00C2D1ED13DE0226A9062206AB2
:103B90000163226831463432206AFEF79EFD2068B8
:103BA000C16841F400710DE0626A9062606A01636D
:103BB000226831463832606AFEF78FFD2068C1689E
:103BC00041F48061C16004222946206800F026FB90
:103BD0002068416C41F4004141642068016841F073
:103BE00001010160002070BDA26A9062A06A0163B9
:103BF000226831463C32A06AFEF76FFD2068C1683A
:103C000041F40061DEE7E26A9062E06A01632268E3
:103C100031464032E06AFEF760FD2068C16841F439
:103C20008051CFE710B50268044631B1042908D0AD
:103C3000082917D00C2908D118E0D06820F40070AA
:103C400002E0D06820F48060D0600022206800F09C
:103C5000E5FA2068036A41F21112134240F244412E
:103C600008D00EE0D06820F40060EDE7D06820F4C2
:103C70008050E9E7036A0B4203D1436C23F400430D
:103C800043642068036A134206D1026A0A4203D1E0
:103C9000016821F001010160012084F83900002051
:103CA00010BD10B504460068042200F0B7FA206881
:103CB000416C41F4004141642068016841F0010118
:103CC0000160002010BD10B504460068002200F01D
:103CD000A5FA2068036A41F211110B4240F24442F6
:103CE00006D1036A134203D1436C23F400434364B7
:103CF0002068036A0B4206D1016A114203D10168B0
:103D000021F001010160002010BD10B502680446D9
:103D100031B1042908D008291FD00C2908D120E08E
:103D2000D06840F0020002E0D06840F00400D060AB
:103D30002068C26842F08002C2600422206800F05D
:103D40006DFA2068416C41F40041416420680168CB
:103D500041F001010160002010BDD06840F0080072
:103D6000E5E7D06840F01000E1E710B502680446CE
:103D700061B104290ED008291BD00C290ED11CE0FA
:103D8000B30E0008050600087D080008D06820F082
:103D9000020002E0D06820F00400D0600022206819
:103DA00000F03CFA2068026A40F244410A4208D01E
:103DB0000BE0D06820F00800EFE7D06820F010009A
:103DC000EBE7C26822F08002C2602068036A41F219
:103DD0001112134206D1036A0B4203D1436C23F440
:103DE000004343642068036A134206D1026A0A4210
:103DF00003D1016821F001010160002010BD70B500
:103E0000044690F8390016460D46022805D094F86D
:103E10003900012805D10EB903B170BD022084F824
:103E20003900F948F94935B1042D13D0082D31D0A6
:103E30000C2D1ED13DE0226A9062206A0163226847
:103E400031463432206AFEF748FC2068C16841F4EC
:103E500000710DE0626A9062606A01632268314617
:103E60003832606AFEF739FC2068C16841F480612D
:103E7000C16004222946206800F0D0F92068416C16
:103E800041F4004141642068016841F00101016092
:103E9000002070BDA26A9062A06A01632268314668
:103EA0003C32A06AFEF719FC2068C16841F4006149
:103EB000DEE7E26A9062E06A0163226831464032DE
:103EC000E06AFEF70AFC2068C16841F48051CFE740
:103ED00010B50268044631B1042908D0082917D06A
:103EE0000C2908D118E0D06820F4007002E0D068F6
:103EF00020F48060D0600022206800F08FF92068F4
:103F0000036A41F21112134240F2444108D00EE01C
:103F1000D06820F40060EDE7D06820F48050E9E735
:103F2000036A0B4203D1436C23F4004343642068CB
:103F3000036A134206D1026A0A4203D1016821F0E2
:103F400001010160012084F83900002010BD10B586
:103F500004460068042200F061F92068416C41F4D5
:103F600000414164002010BD10B5044600680022E5
:103F700000F054F92068036A41F211110B4240F23B
:103F8000444206D1036A134203D1436C23F4004335
:103F900043642068036A0B4206D1016A114203D1CF
:103FA000016821F001010160002010BD10B5044638
:103FB0000068C26842F00202C2602068C26842F033
:103FC0000402C2600422206800F028F92068416CD5
:103FD00041F400414164002010BD10B50446006862
:103FE000C26822F00202C2602068C26822F00402A5
:103FF000C2600022206800F011F92068036A41F2D3
:1040000011110B4240F2444206D1036A134203D11C
:10401000436C23F4004343642068036A0B4206D1D7
:10402000016A114203D1016821F001010160002001
:1040300010BD10B590F83830012B0AD0012380F85C
:10404000383041B1102906D0202904D0302902D0BF
:104050000AE0022010BD03689C6824F070049C6094
:1040600003689C680C439C6001684B6843F0010343
:104070004B6001684B6823F004034B6001684B6898
:1040800013434B60002180F83810084610BD10B56E
:1040900090F83830012B0AD0012380F8383041B134
:1040A000102906D0202904D0302902D00AE00220AD
:1040B00010BD03689C6824F070049C6003689C68D1
:1040C0000C439C6001684B6843F001034B6001683E
:1040D0004B6823F004034B6001684B6813434B604B
:1040E0000168CA6842F02002CA60002180F83810D6
:1040F000084610BD704710B5406A012180F839109C
:10410000FFF7F8FF10BD10B590F83830012B0AD03A
:10411000012380F8383041B1102906D0202904D07D
:10412000302902D00AE0022010BD03689C6824F008
:1041300070049C6003689C680C439C6001684B6839
:1041400043F001034B6001684B6823F004034B60AC
:1041500001684B6813434B60AFF26501026B9162DB
:10416000026B2A4911630168CA6842F40052CA60AE
:10417000002180F83810084610BD30B590F838207E
:10418000012A19D0012200F8382F02234370D1E907
:1041900000342343D1E902452C4323430C692343D4
:1041A0004C69896923430B4350F8381C4B644270B7
:1041B00000210170084630BD022030BD30B590F8B6
:1041C0003820012A24D0012280F83820022380F8E8
:1041D000393003685C6824F070045C6003685C68D4
:1041E0000D682C435C6003689C6824F080049C602C
:1041F00003689C6849680C439C6080F83920002162
:1042000080F83810084630BD7D0800080506000813
:104210000220F8E7704790F83900704710B5042382
:10422000046A8B409C430462036A8A40134303621E
:1042300010BD000030B58FB00120009000040024B4
:10424000CDE901040225CDE90750C0000990684678
:10425000FEF71CFD0320CDE90A059020CDE90C04F2
:1042600000210AA80E94FFF738F8FFF795F9FFF739
:10427000E2F94FF47A71B0FBF1F0FEF72CF804206C
:10428000FEF7A1F800221146501EFDF7E0FF0FB027
:1042900030BD08B5FEF7CCF8FFF7CCFF2C4881699C
:1042A00041F020018161816901F020010091816963
:1042B00041F004018161806900F00400009000F089
:1042C0001BF804212348FCF7E8FB4FF4FA76214D54
:1042D000771E0024286884630A20FEF7CFF8641C48
:1042E000B442F7DB3C46286884630A20FEF7C6F830
:1042F000641E002CF7DCECE710B516488EB04FF0CA
:104300008041016017210024C0E9011440F2F3113B
:10431000C0E90314FCF7FAF84FF48050079007A99E
:104320000C48FDF714FE0B48FCF780FB0B940BA91F
:1043300008480C94FFF742FF6020CDE90004029486
:104340000422694603480494FDF754FB0EB010BDE7
:104350000010024008000020FFF72ABA10B5FEF74F
:1043600085F8BDE81040FEF73BB800001D4808B5D1
:10437000816941F001018161806900F001000090D4
:104380000320FDF757FF0022BDE808401146501EEC
:10439000FDF75DBF00B5006885B0B0F1804F11D169
:1043A0001048C16941F00101C161C069694600F06E
:1043B00001000490022000900190032003900A481D
:1043C000FBF7FCFE05B000BD0068B0F1804F08D1DE
:1043D0000448C16921F00101C16102210248FBF7D3
:1043E000C7BF7047001002400008014006488047E0
:1043F00006480047FEE7FEE7FEE7FEE7FEE7FEE7CA
:10440000FEE7FEE7FEE7FEE701010008ED00000819
:10441000064C074D06E0E06840F0010394E8070011
:1044200098471034AC42F6D3FBF764FE744400089E
:104430009444000802E008C8121F08C1002AFAD1FB
:1044400070477047002001E001C1121F002AFBD114
:10445000704700000000000000000102030406078E
:10446000080900000000010203040102030406071A
:104470000809000094440008000000200800000023
:10448000344400089C440008080000204004000058
:0C4490004444000800A24A0400000000A0
:04000005080000ED02
:00000001FF
