:020000040800F2
:100000006806002065010008B5020008B302000878
:1000100000000000000000000000000000000000E0
:10002000000000000000000000000000D1020008F5
:100030000000000000000000B70200086D03000887
:100040009501000895010008950100089501000838
:100050009501000895010008950100089501000828
:100060009501000895010008950100089501000818
:100070009501000895010008950100089501000808
:100080009501000895010008000000009501000896
:1000900095010008950100089501000895010008E8
:1000A00095010008950100089501000895010008D8
:1000B0009501000800000000950100080000000004
:1000C00000F002F800F03EF80CA030C80838241800
:1000D0002D18A246671EAB4654465D46AC4201D180
:1000E00000F030F87E460F3E0FCCB6460126334274
:1000F00000D0FB1AA246AB46334318472403000046
:1001000044030000103A02D378C878C1FAD85207E5
:1001100001D330C830C101D504680C6070470000BD
:100120000023002400250026103A01D378C1FBD813
:10013000520700D330C100D50B6070471FB51FBDFB
:1001400010B510BD00F04BF81146FFF7F7FF00F0B7
:100150003FF900F063F803B4FFF7F2FF03BC00F0CF
:1001600069F800000F4880F308880F480168090EFD
:100170000E4A914205D10E480E4901600E480F49C2
:1001800001600F4880470F480047FEE7FEE7FEE7A3
:10019000FEE7FEE7FEE700000B480C490C4A0D4B5A
:1001A0007047000068060020040000001F000000E7
:1001B0001810024001000000000001400000000093
:1001C00071030008C10000086800002068060020D4
:1001D000680200206802002070477047704775462B
:1001E00000F024F8AE46050069465346C008C0003A
:1001F000854618B020B5FFF7CFFF60BC002749083F
:10020000B6460026C0C5C0C5C0C5C0C5C0C5C0C5AE
:10021000C0C5C0C5403D49008D46704710B5044675
:10022000C046C0462046FFF796FF10BD0048704705
:100230000800002001491820ABBEFEE7260002009E
:100240007047F0B50022012423460D6893401D40FD
:100250009D422AD10D79012D01D0022D12D187683E
:1002600055000326AE40B74387604E79AE4085689F
:100270002E43866085889D43858085888B79934051
:100280001D438580066855000323AB409E430660EE
:100290000E790768AE403E430660C6689E43C6605E
:1002A000CB79AB40C5682B43C360521C102ACBD31B
:1002B000F0BDFEE770477047044A0029516901D03C
:1002C000014300E08143516170470000001002408B
:1002D000704700001CB5002122480191009102687E
:1002E00001231B041A4302605B0005221203046809
:1002F0001C400094019C641C0194009C002C02D1C1
:10030000019C9442F3D10268920328D50121009107
:10031000154A11211160416841604168416041689E
:100320007F22D2039143416041681122120411439C
:1003300041600168012212061143016001688901D0
:10034000FCD5416889088900416041680222114357
:10035000416041680907890F0229FAD11CBD00914B
:100360001CBD000000100240002002407047000049
:1003700010B5144801680122114301604168124A16
:10038000114041600168114A114001600168012279
:1003900092049143016041683F22120491434160FD
:1003A000C16A09090901C162016BFF2254329143FC
:1003B0000163416B49084900416300218160FFF7F7
:1003C00089FF10BD001002400CB8FFF8FFFFF6FED9
:1003D00001214804FFF770FF0F4810240121046039
:1003E00001710021817103224271C1710925014609
:1003F000ED062846FFF725FF084E05231B04AC61D8
:1004000019460222521C8A42FCDB34810220401C25
:100410008842FCDBF3E700000000002020000048D9
:10042000400400080000002008000000040100084B
:1004300048040008080000206006000020010008B1
:080440000000000000000000B4
:04000005080000C12E
:00000001FF
