:020000040800F2
:1000000088060020550100085D0100085F01000816
:1000100000000000000000000000000000000000E0
:100020000000000000000000000000006101000866
:100030000000000000000000630100080903000840
:100040006701000800000000670100086701000860
:1000500067010008670100086701000867010008E0
:100060000000000067010008670100086701000840
:100070006701000867010008670100080000000030
:100080006701000800000000000000006701000890
:100090000000000067010008670100086701000810
:1000A0000000000067010008000000006701000870
:1000B00000F002F800F03EF80CA030C80838241810
:1000C0002D18A246671EAB4654465D46AC4201D190
:1000D00000F030F87E460F3E0FCCB6460126334284
:1000E00000D0FB1AA246AB4633431847E005000098
:1000F00000060000103A02D378C878C1FAD8520737
:1001000001D330C830C101D504680C6070470000CD
:100110000023002400250026103A01D378C1FBD823
:10012000520700D330C100D50B6070471FB51FBD0B
:1001300010B510BD00F02DF81146FFF7F7FF00F0E5
:10014000D1F900F045F803B4FFF7F2FF03BC00F06B
:100150004BF800000748804707480047FEE7FEE7E6
:10016000FEE7FEE7FEE7FEE704480549054A064BC1
:100170007047000021030008B1000008880000203B
:1001800088060020880200208802002070477047FF
:100190007047754600F024F8AE46050069465346A0
:1001A000C008C000854618B020B5FFF7DDFF60BC71
:1001B00000274908B6460026C0C5C0C5C0C5C0C591
:1001C000C0C5C0C5C0C5C0C5403D49008D467047CB
:1001D00010B50446C046C0462046FFF7B4FF10BD28
:1001E000004870472400002001491820ABBEFEE7FC
:1001F000260002007047000010B50A4C601E0A4934
:10020000884200D90CE0601E084948610321081F9C
:1002100000F0C0F80020054988610720086100BF90
:1002200010BD000080BB0000FFFFFF0000E000E009
:100230000CB50020019000903148006801210904AC
:1002400008432F49086000BF2D4800680121490478
:10025000084000900198401C01900098002804D1AB
:100260000521090301988842EED125480068012143
:1002700049040840002802D00120009001E000203D
:1002800000900098012839D111201E4908601C48AF
:1002900040681B4948600846406848600846406816
:1002A0003F210904884316494860084640681121E7
:1002B00009040843124948600846006801210906FC
:1002C00008430F49086000BF0D4800680121490636
:1002D00008400028F8D00A48406880088000084993
:1002E000486008464068022108430549486000BF4D
:1002F000034840680C2108400828F9D10CBD0000D3
:10030000001002400020024004480068002804D089
:1003100002480068401E0149086070470000002044
:1003200019480068012108431749086008464068D9
:1003300016490840144948600846006814490840B6
:1003400011490860084600680121890488430E4964
:100350000860084640683F21090488430A4948600C
:100360000846C06A00090001C8620846006BFF2108
:1003700014318843044908630846406B4008400034
:100380004863002088607047001002400CB8FF08E6
:10039000FFFFF6FE10B5002819DB1A4A03231B02E3
:1003A000D21883089B00D2588307DC0EFF23A3409A
:1003B0009A438B071B0E8407E40EA3401A43114B8C
:1003C000032424021B198408A4001A5118E00E4AC1
:1003D00003071B0F083B9B089B00D2588307DC0ECA
:1003E000FF23A3409A438B071B0E8407E40EA34010
:1003F0001A43054B0407240F083CA408A4001A5113
:1004000010BD000000E100E01CED00E001B5044972
:100410000098086000BF024800680028FBD108BDB2
:10042000000000200146002003E0034A1154421C52
:1004300090B22028F9DB70470400002010B500F0CE
:1004400063F80121FF2000F01DF90721FF2000F0D3
:1004500025F90021FF2000F000F90221FF2000F023
:1004600005F90020FFF7DEFF00F008F810BD10B519
:1004700004462146FF2000F01DF910BD7CB5002484
:100480002AE0002021E00022002114E0C5006D18C0
:10049000134E755D0126A6403540002D01D0012583
:1004A00000E000252B4607256E1A1D46B540154372
:1004B000EAB24B1CD9B20829E8DB611C09021143DE
:1004C00043006D46E952411CC8B20428DBDB684694
:1004D00000F0A6F8601CC4B2082CD2DB7CBD000082
:1004E00004000020FFF7A4FEFFF786FEFFF7A6FF3B
:1004F0000120FFF7BCFFFF20F530FFF787FF00204A
:10050000FFF7B5FF00BFFEE720484069012149041D
:1005100008431E49486108468069891408431B49FD
:1005200088610920C00600683F218902884315219F
:10053000C90240180921C90608600846006A00037C
:10054000000B086208464068102188430921C9064B
:100550004860084680680321090208430921C9064A
:10056000886008460068FF21013108430921C90657
:10057000086034200649086006484860084600685C
:100580004021084302490860704700000010024003
:100590000030014004170000FCB504460D46164625
:1005A000280230430746002011E0FF2C03D1410010
:1005B0006A46575209E0A04203D141006A465752A9
:1005C00003E0002142006B469952411CC8B2042846
:1005D000EBDB684600F024F8FCBD00000F49896899
:1005E00002221140022917D10104090E0B4A11738E
:1005F00000BF0A498968C907C90F0029F9D007490E
:10060000C968064A107300BF04498968C907C90F41
:100610000029F9D00149C968704700000030014045
:1006200010B503460920C0064069102188430921FE
:10063000C9064861002405E018889B1CFFF7CEFF1F
:10064000601CC4B2042CF7DB0920C00640691021ED
:1006500008430921C906486110BD30B505460C465E
:10066000224609212846FFF797FF30BD30B50546E1
:100670000C460F2C00DD0F2422460A212846FFF7E6
:100680008BFF30BD30B505460C46002C00D0012450
:1006900022460C212846FFF77FFF30BD30B50546C6
:1006A0000C46072C00DD072422460B212846FFF7C5
:1006B00073FF30BD30B505460C46002C00D0012438
:1006C00022460F212846FFF767FF30BDEC060008E1
:1006D0000000002004000000F4000008F0060008FC
:1006E0000400002084060000100100080000000043
:04000005080000B13E
:00000001FF
