:020000040800F2
:1000000080060020550100085D0100085F0100081E
:1000100000000000000000000000000000000000E0
:100020000000000000000000000000006101000866
:10003000000000000000000063010008090700083C
:100040006701000800000000670100086701000860
:1000500067010008670100086701000867010008E0
:100060000000000067010008670100086701000840
:100070006701000867010008670100080000000030
:100080006701000800000000000000006701000890
:100090000000000067010008670100086701000810
:1000A0000000000067010008000000006701000870
:1000B00000F002F800F03EF80CA030C80838241810
:1000C0002D18A246671EAB4654465D46AC4201D190
:1000D00000F030F87E460F3E0FCCB6460126334284
:1000E00000D0FB1AA246AB46334318476410000009
:1000F00084100000103A02D378C878C1FAD85207A9
:1001000001D330C830C101D504680C6070470000CD
:100110000023002400250026103A01D378C1FBD823
:10012000520700D330C100D50B6070471FB51FBD0B
:1001300010B510BD00F0FEF91146FFF7F7FF00F013
:100140002BFE00F016FA03B4FFF7F2FF03BC00F039
:100150004BFA00000748804707480047FEE7FEE7E4
:10016000FEE7FEE7FEE7FEE704480549054A064BC1
:100170007047000021070008B1000008800000203F
:100180008006002080020020800200200022030957
:100190008B422CD3030A8B4211D300239C464EE0A2
:1001A00003460B433CD4002243088B4231D303095E
:1001B0008B421CD3030A8B4201D394463FE0C30910
:1001C0008B4201D3CB01C01A524183098B4201D328
:1001D0008B01C01A524143098B4201D34B01C01A13
:1001E000524103098B4201D30B01C01A5241C3088B
:1001F0008B4201D3CB00C01A524183088B4201D3FA
:100200008B00C01A524143088B4201D34B00C01AE5
:100210005241411A00D201465241104670475DE0FA
:10022000CA0F00D04942031000D34042534000227D
:100230009C4603098B422DD3030A8B4212D3FC2226
:10024000890112BA030A8B420CD3890192118B42A5
:1002500008D3890192118B4204D389013AD09211BB
:1002600000E08909C3098B4201D3CB01C01A524176
:1002700083098B4201D38B01C01A524143098B423F
:1002800001D34B01C01A524103098B4201D30B0128
:10029000C01A5241C3088B4201D3CB00C01A52414D
:1002A00083088B4201D38B00C01A5241D9D2430834
:1002B0008B4201D34B00C01A5241411A00D2014671
:1002C000634652415B10104601D34042002B00D5DB
:1002D0004942704763465B1000D3404201B500209D
:1002E000C046C04602BD7047704770470121C9052E
:1002F0000123411842001B06D3185B0E0AD0C1101F
:100300000722D206891840075242D14201D5520035
:1003100089187047090208D50146002A03D0C10F89
:10032000C9070020704710467047420202D00020E3
:1003300002497047072109050143F4E70000F87FEF
:1003400010B501469E240002CA15A307002A02D058
:100350001843002A04DBA21A002A0CDDD04010BD8D
:100360001206120E01D140004008A21A03D4D04058
:1003700040420028F3DDFF2248001206904201D9D6
:10038000002010BDC817C043584010BD1F22030CE9
:1003900002D10F2200041CD0030E01D10002083A42
:1003A000030F01D10001121F830F01D18000921EA3
:1003B000002801DB4000521ED205511802125118CC
:1003C0001922904004D3491C002801D14908490052
:1003D00008467047C10FC90700D04042012292076A
:1003E0001143D3E701218907D0E70000F8B5224C7B
:1003F0004E00069DA6420AD8A64201D1002806D189
:100400005E00A64203D8A6420AD1002A08D00D24D5
:10041000240425422CD02946002000F061F8F8BDC4
:100420000C461C430CD4994202D0EFF30080F8BD77
:10043000904202D0EFF30080F8BDEFF30080F8BDEA
:1004400009242407E5008B4206D0EFF30080A04387
:10045000591A06D2284304E0101A05D3EFF300809E
:10046000A04380F30088F8BDEFF30080A043F1E7DC
:10047000009500F04DF8F8BD0000E0FF10B5FF2337
:100480001B0644009C421DD84C009C421AD80346CF
:10049000124A0B4307D4401A02D3EFF3008010BD79
:1004A000EFF3008010BD081A06D2EFF3008001219F
:1004B0009043C907084302E0EFF30080904380F3C4
:1004C000008810BD0D231B041A4204D011460020E1
:1004D00000F006F810BD00F025F810BD00000090F7
:1004E000C80212D54803400F002804D0C803C043F7
:1004F000012188407047EFF30080000100090321CB
:100500000907084380F30088704700207047000007
:1005100010B500200249029A00F033F810BD000027
:100520000000F87F10B5024800F02BF810BD000065
:100530000000C07F754600F053F8AE4605006946DE
:100540005346C008C000854618B020B5FFF70CFE22
:1005500060BC00274908B6460026C0C5C0C5C0C556
:10056000C0C5C0C5C0C5C0C5C0C5403D49008D4659
:10057000704710B50446C046C0462046FFF7E3FD6D
:1005800010BD10B50C461107090F092904D00A291E
:100590000AD008290CD104E011460820FFF7A0FF7B
:1005A00006E0510606D501E0510601D50120C0073D
:1005B000214610BDD10607D501010909CC0849071C
:1005C000000E0006044309E0410F20024907000A1B
:1005D0000143200E00061D22D14101430846E7E7F2
:1005E000004870472000002001491820ABBEFEE7FC
:1005F000260002007047000010B50A4C601E0A4930
:10060000884200D90CE0601E084948610321081F98
:1006100000F07AFB0020054988610720086100BFCF
:1006200010BD000080BB0000FFFFFF0000E000E005
:100630000CB50020019000903148006801210904A8
:1006400008432F49086000BF2D4800680121490474
:10065000084000900198401C01900098002804D1A7
:100660000521090301988842EED12548006801213F
:1006700049040840002802D00120009001E0002039
:1006800000900098012839D111201E4908601C48AB
:1006900040681B4948600846406848600846406812
:1006A0003F210904884316494860084640681121E3
:1006B00009040843124948600846006801210906F8
:1006C00008430F49086000BF0D4800680121490632
:1006D00008400028F8D00A4840688008800008498F
:1006E000486008464068022108430549486000BF49
:1006F000034840680C2108400828F9D10CBD0000CF
:10070000001002400020024004480068002804D085
:1007100002480068401E0149086070471800002028
:1007200019480068012108431749086008464068D5
:1007300016490840144948600846006814490840B2
:1007400011490860084600680121890488430E4960
:100750000860084640683F21090488430A49486008
:100760000846C06A00090001C8620846006BFF2104
:1007700014318843044908630846406B4008400030
:100780004863002088607047001002400CB8FF08E2
:10079000FFFFF6FE00B51121002000F059F81121ED
:1007A000012000F055F81121022000F051F811212C
:1007B000032000F04DF800BD074A1278012A01D14C
:1007C000802100E000217F2801D1C8B203E0034A64
:1007D000125C5218D0B270470200002006000020C0
:1007E00010B5174B1B78012B01D1802200E00022AD
:1007F00000210FE0435C7F2B02D10023435404E02F
:10080000435C104CE35C9B184354435C803343547B
:100810004B1CD9B20429EDDB0B4B1B78012B0DD1FE
:100820000A4B1B78032B09D0084B1B78C35C803321
:10083000064C247803550323044C237010BD00009C
:100840000200002006000020030000200400002019
:1008500070B504460D462846FFF7AEFF064600F089
:10086000A3F9442000F0E7F900F0BAF900F09CF990
:10087000C0212143084600F0DEF9304600F0DBF9E4
:1008800000F0AEF900F090F90348007800F0D3F9D9
:1008900000F0A6F970BD00000100002038B5054643
:1008A000002404E0285D69460855601CC4B2042C8D
:1008B000F8DB6846FFF794FF00F076F9402000F07F
:1008C000BAF900F08DF900F06FF90C48007800F0EB
:1008D000B2F9002405E06946085D00F0ACF9601C3F
:1008E000C4B2042CF7DB00F07BF900F05DF904489A
:1008F000007800F0A0F900F073F938BD0000002086
:1009000001000020F0B585B006463749304600F0BA
:100910007FFB01D205B0F0BD3449304600F0F6FA55
:1009200000D2F7E70021304600F072FB29D2032401
:100930000DE02F49304600F0E9FA05D22D49304646
:1009400000F00EFB064600E003E0601EC4B2002C7F
:10095000EFDC00BF3046FFF7F3FC05462846FFF703
:1009600039FD3146019000F07FFB0746FFF7BEFCE2
:100970000022214B0391029000F04EFA2AD26D1C06
:1009800028E003240DE01D49304600F041FB05D26C
:100990001849304600F0E4FA064600E003E0601E25
:1009A000C4B2012CEFDC00BF3046FFF7C9FC05469E
:1009B0002846FFF70FFD3146019000F061FB074626
:1009C000FFF794FC00220C4B0391029000F024FAF4
:1009D00000D26D1E0A48047000200A49087028469B
:1009E00000F012F800BF95E7003C1C4600C079C437
:1009F00000007A44000020410000E03F0000C8C22F
:100A0000040000200500002038B504463E4884421A
:100A100002DC3E48844200DA38BD002C2FDA102177
:100A200068460170E043441C64212046FFF7B8FB90
:100A3000C1B26846417064212046FFF7B1FB0C4605
:100A40000A212046FFF7ACFBC1B2684681700A213B
:100A50002046FFF7A5FB6846C1702D4800780028A6
:100A60004AD068464078002846D111216846417036
:100A70008078002840D11120694688703CE07D21B3
:100A8000C9002046FFF78CFBC1B2684601707D218A
:100A9000C9002046FFF784FB0C4664212046FFF77F
:100AA0007FFBC1B26846417064212046FFF778FBA6
:100AB0000C460A212046FFF773FBC1B268468170DD
:100AC0000A212046FFF76CFB6846C1701048007889
:100AD000002811D06846007800280DD11121684601
:100AE00001704078002807D168464170807800285E
:100AF00002D11120694688700120054908706846B6
:100B0000FFF7CCFE00BF87E70F27000019FCFFFFAF
:100B10000500002010B50446184840690121490429
:100B20000843164948610920C0064068032108436C
:100B30000921C9064860084680680F210843092139
:100B4000C906886008460068052108430921C906CE
:100B500008600B48047001200A49087008480078B2
:100B6000012802D10849087002E0002006490870F7
:100B7000032006490870FFF70DFE10BD001002406B
:100B800003000020050000200200002004000020D7
:100B900010B5034B1A700B18024C237010BD0000E7
:100BA000000000200100002000B50920C0064069B7
:100BB000012108430921C90648610846406902210C
:100BC00008430921C9064861022000F0D9F809202C
:100BD000C0064069022188430921C906486100BD59
:100BE00000B50920C0064069400840000921C90637
:100BF0004861012000F0C4F80920C00640690221C4
:100C000088430921C9064861012000F0B9F809208C
:100C1000C0064069012108430921C9064861012035
:100C200000F0AEF80920C0064069022108430921FE
:100C3000C906486100BD10B5024600242CE0092019
:100C4000C0064069400840000921C9064861D00734
:100C5000C00F002807D00846406902210843092137
:100C6000C906486107E00920C0064069022188439F
:100C70000921C9064861012000F082F852100920BC
:100C8000C0064069012108430921C90648610120C5
:100C900000F076F8601CC4B2082CD0DB0920C00636
:100CA0004069400840000921C9064861022000F05F
:100CB00067F80920C00600680C2188430921C9068D
:100CC000086000BF0920C006006902210840002812
:100CD000F8D10920C0060068042108430921C9068B
:100CE000086008464069012108430921C906486196
:100CF000012000F045F80920C00640694008400086
:100D00000921C906486110BD10B5002819DB1A4A2F
:100D100003231B02D21883089B00D2588307DC0EE2
:100D2000FF23A3409A438B071B0E8407E40EA340C6
:100D30001A43114B032424021B198408A4001A51DE
:100D400018E00E4A03071B0F083B9B089B00D25874
:100D50008307DC0EFF23A3409A438B071B0E8407F7
:100D6000E40EA3401A43054B0407240F083CA408D3
:100D7000A4001A5110BD000000E100E01CED00E0ED
:100D800001B504490098086000BF024800680028C7
:100D9000FBD108BD18000020FFF74AFCFFF72CFC30
:100DA0000120FFF7B7FEC02288210420FFF7F0FEE4
:100DB000C820FFF7E5FF03210220FFF749FD7D2052
:100DC0000001FFF7DDFF7A20C043FFF71DFE7D2005
:100DD0000001FFF7D5FFFFF7DDFC0D48FFF792FD9F
:100DE0007D200001FFF7CCFF11E000240CE0094852
:100DF000C470847044700470FFF750FD19204001E6
:100E0000FFF7BEFF601CC4B20F2CF0DD00BFECE7A3
:100E1000666666C01C00002070B501251C002D050B
:100E20000C4310D4EC4206D4AC420AD48B4200D01E
:100E300070BD824270BDEB4217D4E94215D48B429B
:100E400070BD9B4270BDEC4206D5AC42F9D59942CB
:100E500000D070BD904270BD6D005C00EC4204D2C9
:100E60004C00EC4201D2994270BD0FB4034C0CBC53
:100E700003BC30B4FFF7BAFA30BC70BD19001604D9
:100E800070B501250400ED074C4020D4441A01D26E
:100E9000001B0919C60D4B00F2B2FF2A29D01B0E08
:100EA0002CD000020C02D31A2C43DC402843051935
:100EB00010D2280A02D3401C6D0611D0761EF6050A
:100EC0008019FF2A00DA70BDC00DC00570BD6940F1
:100ED00000F0DCF801200543C541521C761CE8E710
:100EE00064089C40C90161408900E7D10124A04306
:100EF000E4E71B0E440200D0034870BD002AFCD179
:100F0000C00FC00770BD00BF0000C07F01230200FA
:100F1000DB050A430DD4DA4203D49A4207D488424F
:100F20007047D84214D4D94212D4884270478042C4
:100F30007047DA4203D59A42F9D5814270475B0087
:100F40004200DA4204D24A00DA4201D281427047BA
:100F500010B5024AFFF792FA10BD00BF090016044F
:100F600070B5420064414B005C41120E39D01B0E3B
:100F700038D0FF2A3CD0FF2B3AD040024902400A29
:100F8000490A060045184E43000A090AD218484388
:100F9000ED017F3A0104731A4019190C4318990F97
:100FA00004D001215B0849075B1A521CD80904D3FD
:100FB000401CF50301D19D0607D0FF2A08D2D505B4
:100FC00006D0E4072043401970BD0125A843F4E78B
:100FD000002A01DCE00770BD2402FF202043C00589
:100FE00070BD1B0EFF2A03D0FF2B01D0E00770BDA0
:100FF000FF2645003606B54206D84D00B54203D857
:10100000D218FF2A00D0E7E7004870BD0000C07F7B
:1010100001230A00DB0502430DD4DA4203D49A42CD
:1010200007D481427047D94214D4D84212D48142A5
:10103000704789427047DA4203D59A42F9D588420F
:1010400070475B004A00DA4204D24200DA4201D221
:10105000884270474840414010B5024A4840FFF777
:101060000DFA10BD0900160470B50125ED076840A2
:1010700004004C4002D5694000F008F8FFF706FF75
:1010800070B501250400ED074C4022D4441A02D269
:101090006C40001B0919C60D4B00F2B2FF2A4BD061
:1010A0001B0E50D000020C02D31A2C43DC40A84384
:1010B000051B05D5AD0019D36D08761E521E37D01D
:1010C000F605280A01D2801970BD70416D0603D063
:1010D00070BD6940FFF7DAFE9C400902614049009B
:1010E00001D0401E70BD0124A04370BD6D081DD00D
:1010F00001202B0C01D12D0410302B0E01D12D021B
:1011000008302B0F01D12D01001DAB0F01D1AD0017
:10111000801CEB0F01D16D00401C6D00361A121AB5
:10112000680AF5054019012A02DB70BD002070BD78
:10113000C036300AC00770BD1B0E440201D1FF2B20
:1011400000D1024870BD002AF0D070BD0000C07F01
:10115000701100080000002020000000F4000008CA
:101160009011000820000020600600001001000817
:101170000000000000003F065B4F666D7D077F6F3B
:10118000777C395E797140000000000000010203A5
:04000005080000B13E
:00000001FF
