:020000040800F2
:1000000068060020550100085D010008F70100089E
:1000100000000000000000000000000000000000E0
:100020000000000000000000000000006101000866
:1000300000000000000000006301000865010008E6
:100040006701000800000000670100086701000860
:1000500067010008670100086701000867010008E0
:100060000000000067010008670100086701000840
:100070006701000867010008670100080000000030
:100080006701000800000000000000006701000890
:10009000000000004903000867010008670100082C
:1000A0000000000067010008000000006701000870
:1000B00000F002F800F03EF80CA030C80838241810
:1000C0002D18A246671EAB4654465D46AC4201D190
:1000D00000F030F87E460F3E0FCCB6460126334284
:1000E00000D0FB1AA246AB46334318476404000015
:1000F00084040000103A02D378C878C1FAD85207B5
:1001000001D330C830C101D504680C6070470000CD
:100110000023002400250026103A01D378C1FBD823
:10012000520700D330C100D50B6070471FB51FBD0B
:1001300010B510BD00F02DF81146FFF7F7FF00F0E5
:1001400071F900F045F803B4FFF7F2FF03BC00F0CB
:100150004BF800000748804707480047FEE7FEE7E6
:10016000FEE7FEE7FEE7FEE704480549054A064BC1
:1001700070470000D5020008B100000868000020A8
:10018000680600206802002068020020704770475F
:100190007047754600F024F8AE46050069465346A0
:1001A000C008C000854618B020B5FFF7DDFF60BC71
:1001B00000274908B6460026C0C5C0C5C0C5C0C591
:1001C000C0C5C0C5C0C5C0C5403D49008D467047CB
:1001D00010B50446C046C0462046FFF7B4FF10BD28
:1001E000004870470400002001491820ABBEFEE71C
:1001F00026000200704700BFFEE700000CB500209B
:1002000001900090314800680121090408432F49FA
:10021000086000BF2D480068012149040840009093
:100220000198401C01900098002804D10521090381
:1002300001988842EED12548006801214904084010
:10024000002802D00120009001E0002000900098DA
:10025000012839D111201E4908601C4840681B49FB
:100260004860084640684860084640683F210904E5
:10027000884316494860084640681121090408432C
:1002800012494860084600680121090608430F49E1
:10029000086000BF0D480068012149060840002899
:1002A000F8D00A484068800880000849486008463D
:1002B0004068022108430549486000BF0348406880
:1002C0000C2108400828F9D10CBD000000100240A4
:1002D00000200240194800680121084317490860BE
:1002E00008464068164908401449486008460068B6
:1002F0001449084011490860084600680121890432
:1003000088430E490860084640683F210904884335
:100310000A4948600846C06A00090001C8620846E8
:10032000006BFF2114318843044908630846406B81
:100330004008400048630020886070470010024079
:100340000CB8FF08FFFFF6FE1548006902210840BF
:10035000002822D013480088022808DA1420104907
:10036000486310480088401C0E49088007E03C2084
:100370000B4948630B480088401C0A49088009481B
:100380000088042802D1002006490880044800693A
:100390000549084002490861704700BFFCE70000BA
:1003A0000044014000000020FDFDFFFF10B50028C3
:1003B00019DB1A4A03231B02D21883089B00D25868
:1003C0008307DC0EFF23A3409A438B071B0E840791
:1003D000E40EA3401A43114B032424021B19840882
:1003E000A4001A5118E00E4A03071B0F083B9B0894
:1003F0009B00D2588307DC0EFF23A3409A438B0750
:100400001B0E8407E40EA3401A43054B0407240F78
:10041000083CA408A4001A5110BD000000E100E04F
:100420001CED00E0FFF7EAFE1520002805DBC20600
:10043000D20E01219140434A116000BF00211520D6
:10044000FFF7B4FF404840690121490408433E4991
:100450004861084680690121490408433A49886196
:100460000920C006006A0521090608430921C906BA
:10047000086208464068502188430921C90648603F
:10048000084680683321090208430921C9068860AB
:1004900008460068FF21013108430921C9060860A8
:1004A00008460068032109038843012149034018D5
:1004B0000921C90608602F20244988626320C86288
:1004C0002820486308468069682108431F498861DD
:1004D0000846006A012108431C4908621B48403055
:1004E00040680121C9030843184940314860174852
:1004F000C068022108431549C86008460068012108
:1005000008431249086008464069012108430F4921
:10051000486116E010200921C9068861002400E026
:10052000641C152000048442FADB01200005092127
:10053000C9068861002400E0641C0120C0048442D4
:10054000FADBE7E700E100E0001002400044014070
:10055000700500080000002004000000F4000008FE
:100560007405000804000020640600001001000863
:040570000000000087
:04000005080000B13E
:00000001FF
