:020000040800F2
:1000000060080020550100085D0100085F0100083C
:1000100000000000000000000000000000000000E0
:100020000000000000000000000000006101000866
:100030000000000000000000630100087D040008CB
:100040006701000800000000670100086701000860
:1000500067010008670100086701000867010008E0
:100060000000000067010008670100086701000840
:100070006701000867010008670100080000000030
:100080006701000800000000000000006701000890
:100090000000000067010008670100086701000810
:1000A0000000000067010008000000006701000870
:1000B00000F002F800F03EF80CA030C80838241810
:1000C0002D18A246671EAB4654465D46AC4201D190
:1000D00000F030F87E460F3E0FCCB6460126334284
:1000E00000D0FB1AA246AB4633431847C00D0000B0
:1000F000E00D0000103A02D378C878C1FAD8520750
:1001000001D330C830C101D504680C6070470000CD
:100110000023002400250026103A01D378C1FBD823
:10012000520700D330C100D50B6070471FB51FBD0B
:1001300010B510BD00F0DAF81146FFF7F7FF00F038
:10014000E5FC00F0F2F803B4FFF7F2FF03BC00F0A7
:10015000F9F800000748804707480047FEE7FEE738
:10016000FEE7FEE7FEE7FEE704480549054A064BC1
:100170007047000095040008B100000860020020EC
:1001800060080020600400206004002000220309B1
:100190008B422CD3030A8B4211D300239C464EE0A2
:1001A00003460B433CD4002243088B4231D303095E
:1001B0008B421CD3030A8B4201D394463FE0C30910
:1001C0008B4201D3CB01C01A524183098B4201D328
:1001D0008B01C01A524143098B4201D34B01C01A13
:1001E000524103098B4201D30B01C01A5241C3088B
:1001F0008B4201D3CB00C01A524183088B4201D3FA
:100200008B00C01A524143088B4201D34B00C01AE5
:100210005241411A00D201465241104670475DE0FA
:10022000CA0F00D04942031000D34042534000227D
:100230009C4603098B422DD3030A8B4212D3FC2226
:10024000890112BA030A8B420CD3890192118B42A5
:1002500008D3890192118B4204D389013AD09211BB
:1002600000E08909C3098B4201D3CB01C01A524176
:1002700083098B4201D38B01C01A524143098B423F
:1002800001D34B01C01A524103098B4201D30B0128
:10029000C01A5241C3088B4201D3CB00C01A52414D
:1002A00083088B4201D38B00C01A5241D9D2430834
:1002B0008B4201D34B00C01A5241411A00D2014671
:1002C000634652415B10104601D34042002B00D5DB
:1002D0004942704763465B1000D3404201B500209D
:1002E000C046C04602BD704770477047754600F073
:1002F00025F8AE46050069465346C008C00085464D
:1003000018B020B5FFF730FF60BC00274908B6469B
:100310000026C0C5C0C5C0C5C0C5C0C5C0C5C0C514
:10032000C0C5403D49008D46704710B50446C046E3
:10033000C0462046FFF707FF10BD00000048704789
:10034000FC01002001491820ABBEFEE72600020098
:100350007047000010B50A4C601E0A49884200D957
:100360000CE0601E084948610321081F00F0CCF82A
:100370000020054988610720086100BF10BD00000A
:1003800080BB0000FFFFFF0000E000E001B5044972
:100390000098086000BF024800680028FBD108BD33
:1003A000000000200CB5002001900090314800684A
:1003B0000121090408432F49086000BF2D48006847
:1003C00001214904084000900198401C01900098C8
:1003D000002804D10521090301988842EED125485F
:1003E0000068012149040840002802D00120009043
:1003F00001E0002000900098012839D111201E4909
:1004000008601C4840681B494860084640684860CE
:10041000084640683F210904884316494860084659
:1004200040681121090408431249486008460068E1
:100430000121090608430F49086000BF0D48006804
:100440000121490608400028F8D00A484068800881
:100450008000084948600846406802210843054971
:10046000486000BF034840680C2108400828F9D1C3
:100470000CBD00000010024000200240044800684B
:10048000002804D002480068401E014908607047F7
:10049000000000201948006801210843174908603E
:1004A00008464068164908401449486008460068F4
:1004B0001449084011490860084600680121890470
:1004C00088430E490860084640683F210904884374
:1004D0000A4948600846C06A00090001C862084627
:1004E000006BFF2114318843044908630846406BC0
:1004F00040084000486300208860704700100240B8
:100500000CB8FF08FFFFF6FE10B5002819DB1A4AE9
:1005100003231B02D21883089B00D2588307DC0EEA
:10052000FF23A3409A438B071B0E8407E40EA340CE
:100530001A43114B032424021B198408A4001A51E6
:1005400018E00E4A03071B0F083B9B089B00D2587C
:100550008307DC0EFF23A3409A438B071B0E8407FF
:10056000E40EA3401A43054B0407240F083CA408DB
:10057000A4001A5110BD000000E100E01CED00E0F5
:1005800030B50920C0064069202188430921C906E9
:10059000486108464069802188430921C9064861AD
:1005A000402000F081FA802000F07EFA0920C00689
:1005B0004069802108430921C906486100240DE0F3
:1005C000002507E000215420604340190E4A1154D1
:1005D000681CC5B2542DF5DB601CC4B2062CEFDBE1
:1005E00000240EE0002508E0542161434919064A21
:1005F000505C00F059FA681CC5B2542DF4DB601C45
:10060000C4B2062CEEDB30BD04000020FFB583B081
:100610000E4614461F461348029005251DE0029918
:100620000398FFF7B3FDC0B20190B54209DC019811
:100630003030C2B2394620460C9B00F031F9A01D83
:10064000C4B202990398FFF7A1FD03910A21029811
:10065000FFF79CFD0290681EC5B2002DDFD107B0E8
:10066000F0BD000010270000FFB583B007460C4620
:100670001D46281BC0B20290029E0BE00C98234638
:10068000009021463846059A00F080F8601CC4B2FC
:10069000701EC6B2002EF1D107B0F0BD00B52F48D4
:1006A00040690121490408432C4948610920C006DA
:1006B00040686B21090188430921C9064860084642
:1006C0008068274908430921C906886008460068F0
:1006D000244908430921C9060860084640690121E8
:1006E000890288430921C9064861084640692021DA
:1006F00088430921C906486108464069102188439A
:100700000921C906486108464069102108430921AA
:10071000C906486108464069802188430921C90605
:100720004861212000F0C0F9C12000F0BDF904208B
:1007300000F0BAF9132000F0B7F9202000F0B4F966
:100740000C2000F0B1F90920C0064069802108435F
:100750000921C906486100F073F900BD001002408C
:1007600000CF3C0000451400F8B504460D46002CAF
:100770000BDD0120AE1DF3B2661EF2B26E1EF1B2A9
:10078000661E0090F0B200F001F8F8BDFFB587B02A
:1007900004460D460998001B40B206900A98401B7B
:1007A00040B205900698002804DB0698C6B20120E6
:1007B000049005E00998201AC6B20020C0430490B6
:1007C0000598002804DB0598C7B20120039005E0D6
:1007D0000A98281AC7B20020C043039002940195DA
:1007E000BE422BDB009625E0059800280ADD029921
:1007F000091B794308463146FFF7D2FC4019C0B2C5
:10080000019009E00299091B794308463146FFF738
:10081000C7FC281AC0B20190109A0199029800F002
:10082000AFF8049902984018C0B202900098401E98
:10083000C0B2009000980028D6DC2AE0009725E09E
:10084000059800280ADD0199491B7143084639467D
:10085000FFF7A6FC0019C0B2029009E00199691ADD
:10086000714308463946FFF79BFC0019C0B202905D
:10087000109A0199029800F083F8039901984018A2
:10088000C0B201900098401EC0B2009000980028AD
:10089000D6DC109A0A99099800F072F80BB0F0BDF6
:1008A000FFB584B004460D4616467F2E05DA314862
:1008B000039030462038C6B204E02F4803903046FB
:1008C000C038C6B26807400F0721081A0290F82006
:1008D0002840C7100020019047E00620704303998C
:1008E00041180198085C0090079800280BD10098E7
:1008F000C043C0B20090002D05DD681EC1B20122C8
:10090000204600F03DF800984006400E009054202C
:10091000784300191949095C07220298121A0098B5
:1009200090400143542078430019144A115402980E
:10093000072810DA781C54214843001911460A5C34
:100940000299491C009808410243781C54214843ED
:1009500000190A490A54601CC4B2532C01DD08B0C6
:10096000F0BD0198401CC0B2019001980628B4DB8C
:1009700000BFF4E7640C0008EA0D00080400002042
:1009800070B503461446542B01DC2F2900DD70BDE1
:10099000CD1054267543E8184E07760F0125B54053
:1009A000EAB2002C05D0064D2D5C1543044E35549B
:1009B00004E0034D2D5C9543014E355400BFE6E73E
:1009C00004000020F8B505460F4614461E46002ECA
:1009D00003D139462846FFF7C7FE08E022783346A0
:1009E00039462846FFF75CFFA81DC5B2641C207875
:1009F0000028F3D1F8BDFFB581B005460E46174675
:100A00000A9C33463A46314628460094FFF7BEFE1C
:100A100000943A46049B19462846FFF7B7FE009417
:100A20002A4631462846049BFFF7B0FE00943A461A
:100A300031463846049BFFF7A9FE05B0F0BD000023
:100A400030B50920C0064069202188430921C90624
:100A5000486108464069802188430921C9064861E8
:100A6000402000F021F8802000F01EF80920C00688
:100A70004069802108430921C906486100240EE02D
:100A8000002508E0542161434919064A505C00F0F2
:100A90000BF8681CC5B2542DF4DB601CC4B2062CE4
:100AA000EEDB30BD0400002000212BE0802202405C
:100AB000002A09D00922D206526901235B021A4397
:100AC0000923DB065A6108E00922D2065269012394
:100AD0005B029A430923DB065A614206100E092283
:100AE000D206526901239B029A430923DB065A610D
:100AF0001A46526901239B021A430923DB065A61F5
:100B00004A1CD1B20829D1DB7047000088B0FFF73A
:100B100049FCFFF71FFCFFF7C1FD01202E235222E5
:100B200001460090FFF767FF44A103C907910690B3
:100B300044A30FCB059302AB07C3012306AA0A21E6
:100B40001620FFF73FFF012302AA12210620FFF71C
:100B500039FFFFF775FF3F48FFF718FCFFF710FD5F
:100B600001202E23522201460090FFF744FF01236B
:100B700039A20A212020FFF725FF012337A21221E5
:100B80001820FFF71FFFFFF75BFF3248FFF7FEFB60
:100B9000FFF7F6FC51E001202E235222014600907F
:100BA000FFF729FF012306AA0A211620FFF70AFFF3
:100BB000012302AA12210620FFF704FFFFF740FFDE
:100BC0002448FFF7E3FBFFF7DBFC01202E23522232
:100BD00001460090FFF70FFF01231FA20A212020EA
:100BE000FFF7F0FE01231DA212211820FFF7EAFEF5
:100BF00001201A231622032100907B20FFF706FD17
:100C0000012332221A212E20FFF74AFE012026233B
:100C10004022202100900A20FFF7B8FD01202C235C
:100C20004822262100900820FFF71EFDFFF708FF4D
:100C30000848FFF7ABFBFFF7A3FCACE75043443891
:100C400035343400CDC02053544D333246305858DB
:100C500000000000DC050000CCCEC900C2C0D0C836
:100C6000C0CDD200000000000000002F00000000F6
:100C7000000300030000143E143E140012257F29D7
:100C800012001309043211001A25357A00000003FE
:100C9000000000000000001E2100211E00000000D6
:100CA00014081400000008083E0808004030000046
:100CB00000000808080800000020000000002018BC
:100CC000040300001E2525291E0020223F202000AD
:100CD000322929292600122121251A001814123F31
:100CE00010002725252519001E252525180001019E
:100CF000390503001A2525251A00062929291E0071
:100D0000001200000000C0B28080800000081422A1
:100D10000000141414140000002214080000020142
:100D2000290600000000000000003C0A090A3C00FF
:100D30003F2525251A001E21212112003F212112C5
:100D40000C003F25252521003F05050501001E213A
:100D500029291A003F0404043F0000213F2100001C
:100D60001020211F01003F040A1120003F202020F5
:100D700020003F020C023F003F0204083F001E21FA
:100D800021211E003F09090906001E2129313E408C
:100D90003F090919260012252529120001013F01EA
:100DA00001001F2020201F00031C201C03001F2007
:100DB00018201F00310A040A31000304380403001C
:100DC0003129252321000000003F210003041820C1
:100DD0000000213F00000000040201020400202066
:100DE000202020000001020000003C0A090A3C000B
:100DF0003F25252911003F2525251A003F01010126
:100E00000100603C223F60003F2525252100310A7A
:100E10003F0A3100122121251A003F1008043F002B
:100E20003F1009043F003F040A112000201E010169
:100E30003F003F0204023F003F0404043F001E2124
:100E400021211E003F0101013F003F090909060061
:100E50001E212121120001013F010100132424243D
:100E60001F001C123F121C00310A040A31003F20EF
:100E700020203F60070808083F003F203F203F0038
:100E80003F203F203F60013F242418003F243800CA
:100E90003F00003F24241800122125251E003F0496
:100EA0001E211E00261909093F000000CC0E000873
:100EB0000000002004000000F4000008D00E00082C
:100EC000040000205C080000100100080000000081
:04000005080000B13E
:00000001FF
