:020000040800F2
:1000000078020020890100088D0100088F01000896
:10001000910100089301000895010008000000000C
:100020000000000000000000000000009701000830
:1000300099010008000000009B0100089D010008D4
:100040009F0100089F0100089F0100089F01000810
:100050009F0100089F0100089F0100089F01000800
:100060009F0100089F0100089F0100089F010008F0
:100070009F0100089F0100089F0100089F010008E0
:100080009F0100089F0100089F0100089F010008D0
:100090009F0100089F0100089F0100089F010008C0
:1000A0009F0100089F0100089F0100089F010008B0
:1000B0009F0100089F0100089F0100089F010008A0
:1000C0009F0100089F0100089F0100089F01000890
:1000D0009F0100089F0100089F0100089F01000880
:1000E0009F0100089F0100089F01000800F002F82E
:1000F00000F03AF80AA090E8000C82448344AAF188
:100100000107DA4501D100F02FF8AFF2090EBAE885
:100110000F0013F0010F18BFFB1A43F0010318473B
:1001200090030000B0030000103A24BF78C878C1E3
:10013000FAD8520724BF30C830C144BF04680C60ED
:10014000704700000023002400250026103A28BF35
:1001500078C1FBD8520728BF30C148BF0B60704739
:100160001FB51FBD10B510BD00F067F91146FFF7B0
:10017000F7FF00F068F800F085F903B4FFF7F2FF2D
:1001800003BC00F08DF9000008480047FEE7FEE7D9
:10019000FEE7FEE7FEE7FEE7FEE7FEE7FEE7FEE737
:1001A00003480449024A044B70470000ED00000870
:1001B000780000207802002078000020264880691E
:1001C00040F00500244988612448006820F0C00000
:1001D000224908600846006820F080000860084650
:1001E000006840F0200008601B48C06940F0010032
:1001F0001949C8618804008C40F010008904088403
:100200000846008B40F4C040088340F2F310888514
:1002100017200885F92088848007008840F0800036
:1002200008800846008840F001000880704708B543
:100230000120009002E00098401C00900098B0F56A
:10024000704FF8D108BD00F07AF8FFF7B7FFF9203A
:100250008107088700BFFEE7001002400008014048
:100260000CB50020019000906A48006840F480308E
:100270006849086000BF6748006800F400300090DB
:100280000198401C0190009818B90198B0F5A06F32
:10029000F1D16048006800F4003010B101200090F6
:1002A00001E0002000900098012843D15A480068DE
:1002B00040F01000584908600846006820F003002C
:1002C00008600846006840F0020008605148406835
:1002D000504948600846406848600846406840F415
:1002E000806048600846406820F47C1048600846FA
:1002F000406840F4E81048600846006840F08070AC
:10030000086000BF4348006800F000700028F9D082
:100310004048406820F003003E4948600846406875
:1003200040F00200486000BF3A48406800F00C000E
:100330000828F9D10CBD10B5FFF792FF10BD10B51C
:100340003448006840F001003249086008464068BF
:10035000324908402F494860084600683049084043
:100360002C4908600846006820F480200860084690
:10037000406820F4FE0048604FF41F008860FFF7DB
:10038000DAFF10BD10B5002100200022214B5B6870
:1003900003F00C0121B1042906D0082928D107E077
:1003A000204B214C236027E01E4B1F4C236023E091
:1003B000184B5B6803F47010164B5B6803F48032D3
:1003C000022303EB904022B9184B4343164C2360A1
:1003D0000DE0104B5B6803F4003323B1134B434330
:1003E000114C236003E00F4B43430F4C236003E0A9
:1003F0000C4B0D4C236000BF00BF064B5B68C3F382
:1004000003130B4CE15C084B1B68CB40064C23608C
:1004100010BD000000100240002002400000FFF864
:10042000FFFFF6FE00127A000000002000093D00E8
:1004300004000020704770477047754600F02CF8A4
:10044000AE4605006946534620F00700854618B0C1
:1004500020B5FFF7A5FEBDE820404FF000064FF0A5
:1004600000074FF000084FF0000B21F00701AC46E9
:10047000ACE8C009ACE8C009ACE8C009ACE8C00908
:100480008D46704710B50446AFF300802046BDE8A6
:100490001040FFF772BE00000048704714000020B3
:1004A00001491820ABBEFEE726000200704700009D
:1004B000D0040008000000201400000028010008FB
:1004C000E404000814000020640200004401000855
:1004D00000A24A0400000000000000000102030422
:0404E00006070809FA
:04000005080000ED02
:00000001FF
