:020000040800F2
:10000000680600208901000891010008930100089A
:100010009501000897010008990100080000000000
:100020000000000000000000000000009B0100082C
:100030009D010008000000009F010008810F0008DA
:10004000A3010008A3010008A3010008A301000800
:10005000A3010008A3010008A3010008A3010008F0
:10006000A3010008A3010008A3010008A3010008E0
:10007000A3010008A3010008A3010008A3010008D0
:10008000A3010008A3010008A3010008A3010008C0
:10009000A3010008A3010008A3010008A3010008B0
:1000A000A3010008A3010008A3010008A3010008A0
:1000B000A3010008A3010008A3010008A301000890
:1000C000A3010008A3010008A3010008A301000880
:1000D000A3010008A3010008A3010008A301000870
:1000E000A3010008A3010008A301000800F002F822
:1000F00000F03AF80AA090E8000C82448344AAF188
:100100000107DA4501D100F02FF8AFF2090EBAE885
:100110000F0013F0010F18BFFB1A43F0010318473B
:10012000680F0000880F0000103A24BF78C878C11B
:10013000FAD8520724BF30C830C144BF04680C60ED
:10014000704700000023002400250026103A28BF35
:1001500078C1FBD8520728BF30C148BF0B60704739
:100160001FB51FBD10B510BD00F031F81146FFF7E7
:10017000F7FF00F05DFF00F04FF803B4FFF7F2FF68
:1001800003BC00F057F800000948804709480047C1
:10019000FEE7FEE7FEE7FEE7FEE7FEE7FEE7FEE737
:1001A000FEE7FEE704480549054A064B7047000094
:1001B000E90F0008ED000008680000206806002034
:1001C000680200206802002070477047704775463B
:1001D00000F02CF8AE4605006946534620F00700B3
:1001E000854618B020B5FFF7DDFFBDE820404FF091
:1001F00000064FF000074FF000084FF0000B21F011
:100200000701AC46ACE8C009ACE8C009ACE8C009DD
:10021000ACE8C0098D46704710B50446AFF30080C6
:100220002046BDE81040FFF7A8BF00000048704717
:100230000800002001491820ABBEFEE7260002009E
:10024000704731B500F0F0F8044600F0EDF8009981
:10025000001B8842F9D338BD2DE9F84FDFF890A193
:1002600000220AF1040B144601274FF00F090BF18D
:10027000040E00BF0B6807FA04F52B40AB4274D1A3
:10028000DFF870C14E68A6EB0C0866452BD00DDC7C
:10029000032E34D005DC36B3012E19D0022E2FD117
:1002A0001BE0112E16D0122E2AD119E0B8F5881FA6
:1002B00019D006DCB8F5803F15D0B8F5801F1FD1E6
:1002C00011E0B8F5001F0ED0B8F5041F18D10AE0F0
:1002D000CA6815E0CA68121D12E0CA6808320FE049
:1002E000CA680C320CE08A682AB1012A4FF0080271
:1002F00003D0456104E0042202E0056100E0002231
:10030000FF2B01D8064601E000F104064FEA840500
:1003100001D9A5F12005D6F800C009FA05F82CEAA4
:10032000080C02FA05F54CEA050CC6F800C04D6849
:10033000ED0057D5304DAE6946F00106AE61AD69AE
:1003400024F0030605F0010500952C4D06EB050C85
:10035000DCF80850A6074FEA167809FA08F6B54304
:10036000274EB04202D1002610E03BE0254EB042BD
:1003700001D101260AE0244EB04201D1022605E057
:10038000224EB04201D1032600E0042606FA08F608
:100390002E43CCF808604D68DAF80060ED0355464E
:1003A00001D51E4300E09E432E604D68DBF80060DF
:1003B000AD035D4601D51E4300E09E432E604D68AF
:1003C000DEF80060ED02754601D51E4300E09E4355
:1003D0002E604D68AD020E4D2E6801D51E4300E023
:1003E0009E432E60641C102CFFF444AFBDE8F88FD0
:1003F0000004014000001110001002400000014004
:1004000000080140000C01400010014000140140B0
:100410000C0401408068084000D0012070470AB1F8
:10042000016170470904FBE701480068704700005C
:100430000000002002480168491C0160704700006C
:1004400000000020074810B5016841F0100101606C
:10045000032000F059F8002000F006F800F016F82C
:10046000002010BD0020024010B5044600F0A2F9A3
:100470004FF47A71B0FBF1F000F024FD0022214628
:10048000501E00F021F8002010BD00000C4808B5F7
:10049000816941F001018161806900F001000090F3
:1004A000032000F031F800221146501E00F00CF835
:1004B0000448416821F0E06141F08071416008BD6D
:1004C0000010024000000140F0B40E4B1B680C46C7
:1004D000C3F30223C3F10705042D00D90425191D18
:1004E000072901D2002300E0DB1E012606FA05F1F0
:1004F000491E214099409E40761E16403143F0BC73
:1005000000F02EBD0CED00E0064900F0070208687F
:100510004FF6FF03184040EA0220034A10430860E8
:10052000704700000CED00E00000FA052DE9F047EF
:10053000DFF8789205460E46D9F80000022300F055
:100540000707012041044206994C41F28838B7421E
:1005500071D2D9F800C02CF0070C4CEA060CC9F88F
:1005600000C0D9F8007007F00707B7426FD12E78A6
:10057000B60705D56668AF6826F0F0063E436660AC
:100580002E78F60756D06E68012E0BD0022E1ED0A4
:1005900093FAA3F1B1FA81F141F02001490924D085
:1005A000216823E091FAA1F2B2FA82F242F020022D
:1005B000520901D0226800E0626A91FAA1F1B1FA11
:1005C00081F101F01F018840024240D017E092FA09
:1005D000A2F1B1FA81F141F02001490901D021686D
:1005E00000E0616A92FAA2F202E0616A93FAA3F271
:1005F000B2FA82F202F01F029040014227D06068F6
:1006000020F0030030436060FFF70EFF0646686885
:10061000012809D00228474613D01EE0FFF704FF47
:10062000801BB84201D992E047466068C0F3810060
:100630000128F3D1A1E015E0FFF7F6FE801BB842D8
:1006400073D86068C0F381000228F5D195E092E08C
:10065000FFF7EAFE801BB84279D8606810F00C0FF3
:10066000F6D18AE02F78BF0707D56768D5F808C0AC
:1006700027F0F00747EA0C0767602F78FF076DD077
:100680006F68012F0BD0022F1ED093FAA3F1B1FA9D
:1006900081F141F02001490924D0216823E091FA39
:1006A000A1F2B2FA82F242F02002520901D022688D
:1006B00000E0626A91FAA1F1B1FA81F101F01F0143
:1006C0008840024257D017E092FAA2F1B1FA81F1C4
:1006D00041F02001490901D0216800E0616A92FAE5
:1006E000A2F202E0616A93FAA3F2B2FA82F202F095
:1006F0001F02904001423ED0606820F00300384362
:100700006060FFF791FE07466868012807D002285D
:1007100011D01FE0FFF788FEC11B414517D8606864
:10072000C0F381000128F5D118E010E0FFF77CFE4E
:10073000C11B41450BD86068C0F381000228F5D188
:100740000CE000BFFFF770FEC11B414502D903203A
:10075000BDE8F087606810F00C0FF3D1D9F80010F5
:1007600021F007013143C9F80010D9F8000000F06A
:100770000700B04201D00120EAE72878400705D5FC
:100780006068E96820F4E06008436060287800074A
:1007900006D56068296920F4605040EAC1006060B5
:1007A0000020FFF761FE0020D2E700000020024099
:1007B0000010024000B500F017F808494968F0221F
:1007C00092FAA2F201F0F001B2FA82F2D140044AA8
:1007D000515CC8400349086000BD000000100240A1
:1007E000781000080400002010B51AA385B00FCBC4
:1007F0008DE80F001BA01C4B006804905A681B4832
:1008000002F00C01042902D0082902D0184805B0D2
:1008100010BD4FF4701494FAA4F402F47011B4FAF9
:1008200084F4E140D2031DF801100FD55A684FF44B
:10083000003393FAA3F302F40032B3FA83F3DA40FD
:1008400004AB9A5CB0FBF2F04843E0E70948484348
:10085000DDE7000002030405060708090A0B0C0D7A
:100860000E0F10100102000000100240001BB70024
:1008700000127A0000093D002DE9F84F0546007886
:10088000FA4EC0074FF0010425D070686704C0F32A
:100890008100012807D07068C0F3810002281BD1B5
:1008A0007068C00318D597FAA7F0B0FA80F040F04E
:1008B0002000400901D0306800E0706A97FAA7F183
:1008C000B1FA81F101F01F0104FA01F1084202D0EE
:1008D0006868002876D081E0306820F4803030608D
:1008E000306820F480203060FFF79EFD804605E0F0
:1008F000FFF79AFDA0EB080064287CD897FAA7F0D0
:10090000B0FA80F040F02000400901D0306800E0EB
:10091000706A97FAA7F1B1FA81F101F01F0104FAA8
:1009200001F10842E4D16868B0F5803F0BD010B106
:10093000B0F5A02F11D0306820F4803030603068DE
:1009400020F4802002E0306840F480303060686835
:1009500020B3FFF769FD80460AE0306840F480204C
:100960003060F0E7FFF760FDA0EB08006428C4D812
:1009700097FAA7F0B0FA80F040F02000400901D0CB
:10098000306800E0706A97FAA7F1B1FA81F101F0DE
:100990001F0104FA01F10842E4D01FE0FFF744FD13
:1009A000804605E0FFF740FDA0EB08006428A4D8CE
:1009B00097FAA7F0B0FA80F040F02000400902D08A
:1009C000306801E0B7E0706A97FAA7F1B1FA81F1F7
:1009D00001F01F0104FA01F10842E3D12878DFF8A1
:1009E000908280074FF000094FF002075AD57068D7
:1009F00010F00C0F00E07AE14FF0F80B07D07068B0
:100A0000C0F3810002281BD17068C00318D497FA84
:100A1000A7F0B0FA80F040F02000400901D0306823
:100A200000E0706A97FAA7F1B1FA81F101F01F01B5
:100A300004FA01F108422AD0286901287BD126E076
:100A4000286980B394FAA4F0B0FA80F048F8204006
:100A5000FFF7EAFC824605E0FFF7E6FCA0EB0A00A0
:100A6000642884D897FAA7F0B0FA80F040F020000C
:100A7000400901D0306800E0706A97FAA7F1B1FA36
:100A800081F101F01F0104FA01F10842E4D030685D
:100A90009BFAABF26969B2FA82F220F0F800914059
:100AA0000843306025E0FFE794FAA4F1B1FA81F140
:100AB00048F82190FFF7B8FC824605E0FFF7B4FC48
:100AC000A0EB0A006428CCD897FAA7F0B0FA80F01F
:100AD00040F02000400901D0306800E0706A97FAC9
:100AE000A7F1B1FA81F101F01F0104FA01F1084206
:100AF000E4D1287800076ED5A869B8B394FAA4F0B9
:100B0000B0FA80F008EB8000C0F88044FFF78CFC5E
:100B1000824605E0FFF788FCA0EB0A006428A0D815
:100B200097FAA7F0B0FA80F040F06000B4EB501FE5
:100B300002D130680CE096E197FAA7F0B0FA80F0A5
:100B400040F06000B7EB501F01D1306A00E0706ADE
:100B500097FAA7F1B1FA81F101F01F0104FA01F24D
:100B60001042D7D00120FFF76CFB34E0FFE794FA86
:100B7000A4F1B1FA81F108EB8101C1F88094FFF78B
:100B800053FC824606E000BFFFF74EFCA0EB0A00D4
:100B9000642898D897FAA7F0B0FA80F040F0600087
:100BA000B4EB501F01D130680BE097FAA7F0B0FA10
:100BB00080F040F06000B7EB501F01D1306A00E0D8
:100BC000706A97FAA7F1B1FA81F101F01F0104FAF6
:100BD00001F21042D8D12878400770D5F06940F072
:100BE0008050F061F069DFF88CB000F08050009028
:100BF000DBF8001041F48071CBF80010FFF714FC13
:100C0000824605E0FFF710FCA0EB0A0064286ED8CE
:100C1000DBF80000C005F5D5306A20F00100306235
:100C2000306A20F004003062FFF7FEFB834641F299
:100C3000883A05E0FFF7F8FBA0EB0B01514556D8C9
:100C400097FAA7F0B0FA80F040F04000B4EB501FE4
:100C500001D1306811E097FAA7F0B0FA80F040F0C7
:100C60004000B7EB501F07D1306A06E00010024089
:100C70000000424200700040706A97FAA7F1B1FA92
:100C800081F101F01F0104FA01F10842D2D1E868B4
:100C900001280AD008B1052812D0306A20F00100DE
:100CA0003062306A20F0040002E0306A40F0010057
:100CB0003062E86898B3FFF7B7FB83460CE05AE070
:100CC000306A40F004003062EFE700BFFFF7ACFB92
:100CD000A0EB0B0151450AD897FAA7F0B0FA80F0C3
:100CE00040F04000B4EB501F02D130680CE09DE0B2
:100CF00097FAA7F0B0FA80F040F04000B7EB501F31
:100D000001D1306A00E0706A97FAA7F1B1FA81F177
:100D100001F01F0204FA02F10842D7D02BE0FFE7EE
:100D2000FFF782FB834605E0FFF77EFBA0EB0B019C
:100D300051457BD897FAA7F0B0FA80F040F0400018
:100D4000B4EB501F01D130680BE097FAA7F0B0FA6E
:100D500080F040F04000B7EB501F01D1306A00E056
:100D6000706A97FAA7F1B1FA81F101F01F0204FA53
:100D700002F10842D8D1E86980B37168C1F38101FA
:100D8000022970D04FF080714F000228484609D0E8
:100D900091FAA1F1B1FA81F148F82100FFF744FB83
:100DA000054669E0894691FAA1F1B1FA81F1C2469E
:100DB00048F82100FFF738FB804605E0FFF734FBD9
:100DC000A0EB0800642854D897FAA7F0B0FA80F096
:100DD00040F02000400902D0306801E061E0706A14
:100DE00097FAA7F1B1FA81F101F01F0104FA01F1BC
:100DF0000842E3D1286AB0F5803F05D17068A96840
:100E000020F4003008437060D5E908010843716898
:100E100021F474110843706099FAA9F0B0FA80F0D7
:100E20004AF82040FFF700FB054606E021E000BF3E
:100E3000FFF7FAFA401B64281BD897FAA7F0B0FA1C
:100E400080F040F02000400901D0306800E0706A76
:100E500097FAA7F1B1FA81F101F01F0104FA01F14B
:100E60000842E5D01DE01EE0FFF7DEFA401B6428D3
:100E700002D90320BDE8F88F97FAA7F0B0FA80F006
:100E800040F02000400901D0306800E0706A97FA15
:100E9000A7F1B1FA81F101F01F0104FA01F1084252
:100EA000E2D10020E6E70120E4E74FF0E02104284A
:100EB000086903D020F004000861704740F0040086
:100EC000FAE7704710B5401EB0F1807F01D30120D2
:100ED00010BD4FF0E02460610F21601700F040F872
:100EE0000020A06107202061002010BD10B5FFF791
:100EF000E8FF10BD174810B5816986B041F02001A8
:100F00008161816901F020010491816941F004014E
:100F10008161816901F004010491816941F0080156
:100F200081618069012400F008000490082000908D
:100F30000020CDE9010469460748FFF78DF920201C
:100F4000CDE900040220039069460448FFF784F9C4
:100F500006B010BD0010024000080140000C014026
:100F60000907090E002806DA00F00F0000F1E02062
:100F700080F8141D704700F1E02080F800147047DD
:100F800010B5FFF757FABDE81040FFF7AFBF30B517
:100F90008FB0012000900225000400240795CDE9C0
:100FA0000104CDE908046846FFF766FC0320CDE99B
:100FB0000A058020CDE90C0400210AA80E94FFF751
:100FC000B5FAFFF7F7FB4FF47A71B0FBF1F0FFF7DA
:100FD00079FF0420FFF769FF00221146501EFFF73A
:100FE00073FA0FB030BD00000D48016841F00101F7
:100FF000016041680B4A1140416001680A4A114092
:101000000160016821F480210160416821F4FE0142
:1010100041604FF41F0181600449C00308607047BC
:10102000001002400000FFF8FFFFF6FE08ED00E0B0
:10103000FFF708FAFFF7ABFFFFF75CFF0C4D0D4C15
:1010400008212846FFF7E6F90028F9D101222021DE
:101050002046FFF7E4F9FA20FFF7F3F800222021F9
:101060002046FFF7DCF9FA20FFF7EBF8E8E700008D
:1010700000080140000C01400000000001020304D0
:101080000102030406070809A81000080000002058
:101090000800000028010008B01000080800002027
:1010A00060060000440100080000000000A24A049D
:04000005080000ED02
:00000001FF
