:020000040800F2
:1000000018070020550100085D0100085F01000885
:1000100000000000000000000000000000000000E0
:100020000000000000000000000000006101000866
:100030000000000000000000630100080903000840
:100040006701000800000000670100086701000860
:1000500067010008670100086701000867010008E0
:100060000000000067010008670100086701000840
:100070006701000867010008670100080000000030
:100080006701000800000000000000006701000890
:100090000000000067010008670100086701000810
:1000A0000000000067010008000000006701000870
:1000B00000F002F800F03EF80CA030C80838241810
:1000C0002D18A246671EAB4654465D46AC4201D190
:1000D00000F030F87E460F3E0FCCB6460126334284
:1000E00000D0FB1AA246AB4633431847201200004B
:1000F00040120000103A02D378C878C1FAD85207EB
:1001000001D330C830C101D504680C6070470000CD
:100110000023002400250026103A01D378C1FBD823
:10012000520700D330C100D50B6070471FB51FBD0B
:1001300010B510BD00F02DF81146FFF7F7FF00F0E5
:10014000ADFA00F045F803B4FFF7F2FF03BC00F08E
:100150004BF800000748804707480047FEE7FEE7E6
:10016000FEE7FEE7FEE7FEE704480549054A064BC1
:100170007047000021030008B100000818010020AA
:10018000180700201803002018030020704770474C
:100190007047754600F024F8AE46050069465346A0
:1001A000C008C000854618B020B5FFF7DDFF60BC71
:1001B00000274908B6460026C0C5C0C5C0C5C0C591
:1001C000C0C5C0C5C0C5C0C5403D49008D467047CB
:1001D00010B50446C046C0462046FFF7B4FF10BD28
:1001E00000487047B400002001491820ABBEFEE76C
:1001F000260002007047000010B50A4C601E0A4934
:10020000884200D90CE0601E084948610321081F9C
:1002100000F0C0F80020054988610720086100BF90
:1002200010BD000080BB0000FFFFFF0000E000E009
:100230000CB50020019000903148006801210904AC
:1002400008432F49086000BF2D4800680121490478
:10025000084000900198401C01900098002804D1AB
:100260000521090301988842EED125480068012143
:1002700049040840002802D00120009001E000203D
:1002800000900098012839D111201E4908601C48AF
:1002900040681B4948600846406848600846406816
:1002A0003F210904884316494860084640681121E7
:1002B00009040843124948600846006801210906FC
:1002C00008430F49086000BF0D4800680121490636
:1002D00008400028F8D00A48406880088000084993
:1002E000486008464068022108430549486000BF4D
:1002F000034840680C2108400828F9D10CBD0000D3
:10030000001002400020024004480068002804D089
:1003100002480068401E0149086070470400002040
:1003200019480068012108431749086008464068D9
:1003300016490840144948600846006814490840B6
:1003400011490860084600680121890488430E4964
:100350000860084640683F21090488430A4948600C
:100360000846C06A00090001C8620846006BFF2108
:1003700014318843044908630846406B4008400034
:100380004863002088607047001002400CB8FF08E6
:10039000FFFFF6FE10B5002819DB1A4A03231B02E3
:1003A000D21883089B00D2588307DC0EFF23A3409A
:1003B0009A438B071B0E8407E40EA3401A43114B8C
:1003C000032424021B198408A4001A5118E00E4AC1
:1003D00003071B0F083B9B089B00D2588307DC0ECA
:1003E000FF23A3409A438B071B0E8407E40EA34010
:1003F0001A43054B0407240F083CA408A4001A5113
:1004000010BD000000E100E01CED00E001B5044972
:100410000098086000BF024800680028FBD108BDB2
:1004200004000020F7B506460C460298002801D0CB
:10043000002000E0601E87B2002000F0CFF8002509
:1004400026E0029800280ED000F0ACF8A54206DAAB
:100450003846791C8FB2305C1049C87711E0002013
:100460000E49C8770DE000F0ABF8A54206DA384631
:10047000791E8FB2305C0949087002E000200749FC
:10048000087000F0D7F83220FFF7C0FF681C85B273
:10049000204620308542D4DBFEBD0000080000204D
:1004A00001460A204843014A801870470C09000899
:1004B000F7B582B00D461A4800788000194A1158E5
:1004C0000298884704462678641C2078641C0190B2
:1004D0000498864202DD002005B0F0BD00211BE03B
:1004E0000020009000BF0FE0225C07235F1A012369
:1004F000BB401A40002A05D001228240009B1A43CB
:10050000D2B20092421CD0B2019A9042ECDB009829
:1005100028706D1C481CC1B2B142E1DB3046DBE7FC
:100520000000002008090008F7B582B0064617460B
:10053000002534460AE0207800F024F8401985B2FE
:10054000641CBD4202DD002005B0F0BD207800280B
:10055000F1D1002534460FE0791B8AB22078039947
:10056000FFF7A6FF01900198281885B2019903981A
:1005700040180390641C00BF20780028ECD1284666
:10058000E2E7000070B50446044800788000044AA1
:100590001158204688470546287870BD0000002085
:1005A00008090008012006E004490A5C411E034BCB
:1005B0005A54411C88B22028F6DB704708000020FE
:1005C0001F2005E0411E044A515C1154411E88B2AF
:1005D0000028F7D1704700000800002001460020E5
:1005E00003E0034A1154421C90B22028F9DB704703
:1005F0000800002010B500F07DF80121FF2000F078
:100600005EF90721FF2000F066F90021FF2000F0CD
:1006100041F90221FF2000F046F90020FFF7DEFF3C
:1006200000F008F810BD10B504462146FF2000F088
:100630005EF910BD7CB500242AE0002021E00022F4
:10064000002114E0C5006D18134E755D0126A6400B
:100650003540002D01D0012500E000252B4607255F
:100660006E1A1D46B5401543EAB24B1CD9B2082993
:10067000E8DB611C0902114343006D46E952411C4D
:10068000C8B20428DBDB684600F0E7F8601CC4B29F
:10069000082CD2DB7CBD000008000020FFF7C8FD5D
:1006A000FFF7AAFDFFF7A6FF0120FFF7BCFFFF2021
:1006B000F530FFF7ABFE0020FFF7B5FF10E08C220E
:1006C000084909A0FFF730FF0446012221460548EA
:1006D000FFF7A8FE002221460248FFF7A3FE00BF55
:1006E000EDE7000028000020CFF0E8E2E5F220EC82
:1006F000E8F0000018484069012149040843164900
:1007000048610920C0064068C008C0000921C90628
:100710004860084680683F2108430921C90688606F
:1007200008460068152108430921C90608600846E3
:100730004069022108430921C90648610846406909
:100740004008400048610846406904218843092167
:10075000C90648617047000000100240FCB504461D
:100760000D461646280230430746002011E0FF2CB4
:1007700003D141006A46575209E0A04203D141002B
:100780006A46575203E0002142006B469952411CD1
:10079000C8B20428EBDB684600F05FF8FCBD10B57A
:1007A000014600200B041A0E27E0134683408024E4
:1007B0002340002B08D00923DB065B690124234377
:1007C0000924E406636107E00923DB065B695B0833
:1007D0005B000924E40663610923DB065B690424EA
:1007E00023430924E406636123465B690424A3438D
:1007F0000924E4066361431C98B20828D5DB002075
:10080000CAB227E01346834080242340002B08D03F
:100810000923DB065B69012423430924E4066361A1
:1008200007E00923DB065B695B085B000924E4063B
:1008300063610923DB065B69042423430924E4067E
:10084000636123465B690424A3430924E4066361CE
:10085000431C98B20828D5DB10BD30B504460920EA
:10086000C0064069022188430921C9064861002564
:1008700005E02088A41CFFF792FF681CC5B2042D78
:10088000F7DB0920C0064069022108430921C90697
:10089000486130BD30B505460C4622460921284640
:1008A000FFF75CFF30BD30B505460C460F2C00DD70
:1008B0000F2422460A212846FFF750FF30BD30B5ED
:1008C00005460C46002C00D0012422460C21284667
:1008D000FFF744FF30BD30B505460C46072C00DD60
:1008E000072422460B212846FFF738FF30BD30B5DC
:1008F00005460C46002C00D0012422460F21284634
:10090000FFF72CFF30BD0000A1040008060800001E
:1009100000000000000006080000000000000000C9
:1009200006080000000000000000060800000000AB
:10093000000000000608000000000000000006089B
:100940000000000000000000060800000000000099
:10095000000006080000000000000000060800007B
:100960000000000000000608000000000000000079
:10097000060800000000000000000608000000005B
:10098000000000000608000000000000000006084B
:100990000000000000000000060800000000000049
:1009A000000006080000000000000000060800002B
:1009B0000000000000000608000000000000000029
:1009C000060800000000000000000608000000000B
:1009D00000000000060800000000000000000608FB
:1009E00000000000000000000608000000000000F9
:1009F00000000608000000000000000006080000DB
:100A000000000000000006080000000000000000D8
:100A100006080000000000000000060800000000BA
:100A200000000000060800000000000000000608AA
:100A300000000000000000000608000000000000A8
:100A4000000006080000000000000000060800008A
:100A500000000000000006082020202020002000C8
:100A60000608484848000000000006085050F850AA
:100A7000F850500006082078A07028F020000608E2
:100A8000C0C810204098180006086090A040A890A8
:100A900068000608602040000000000006081020E2
:100AA0004040402010000608402010101020400058
:100AB0000608005020F8205000000608002020F80A
:100AC000202000000608000000000060204006080A
:100AD000000000F8000000000608000000000060B0
:100AE000600006080008102040800000060870889A
:100AF00098A8C88870000608206020202020700078
:100B00000608708808304080F800060870880830B1
:100B100008887000060810305090F8101000060881
:100B2000F880F008088870000608304080F0888857
:100B300070000608F8081020404040000608708841
:100B400088708888700006087088887808106000AF
:100B50000608006060006060000006080000606039
:100B60000060204006081020408040201000060849
:100B70000000F800F8000000060880402010204027
:100B80008000060870880810200020000608708881
:100B90000868A8A870000608708888F88888880007
:100BA0000608F08888F08888F00006087088808041
:100BB000808870000608E09088888890E000060829
:100BC000F88080F08080F8000608F88080F080804F
:100BD00080000608708880809888780006088888D9
:100BE00088F888888800060870202020202070005F
:100BF0000608381010101090600006088890A0C0F9
:100C0000A09088000608808080808080F800060818
:100C100088D8A8A88888880006088888C8A89888DE
:100C20008800060870888888888870000608F08820
:100C300088F080808000060870888888A890680006
:100C40000608F08888F0A0908800060870888070F8
:100C5000088870000608F8202020202020000608C0
:100C600088888888888870000608888888888850DE
:100C700020000608888888A8A8A850000608888848
:100C8000502050888800060888888850202020003E
:100C90000608F80810204080F80006087040404020
:100CA0004040700006080080402010080000060840
:100CB00070101010101070000608205088000000FE
:100CC0000000060800000000000000F806084020B0
:100CD0001000000000000608000070087888780006
:100CE00006088080B0C88888F00006080000708080
:100CF00080887000060808086898888878000608C8
:100D000000007088F88070000608304840E04040DD
:100D100040000608000078888878087006088080FF
:100D2000B0C8888888000608200060202020700055
:100D3000060810003010101090600608808090A007
:100D4000C0A0900006086020202020207000060827
:100D50000000D0A88888880006080000B0C88888ED
:100D60008800060800007088888870000608000067
:100D7000F08888F080800608000078888878080865
:100D800006080000B0C88080800006080000788057
:100D90007008F00006084040E04040483000060877
:100DA00000008888889868000608000088888850B5
:100DB0002000060800008888A8A850000608000047
:100DC00088502050880006080000888888780870BD
:100DD00006080000F8102040F80006081020204007
:100DE00020201000060820202020202020000608B7
:100DF00040202010202040000608689000000000DD
:100E000000000608000000000000000006080000C6
:100E100000000000000006080000000000000000C4
:100E200006080000000000000000060800000000A6
:100E30000000000006080000000000000000060896
:100E40000000000000000000060800000000000094
:100E50000000060800000000000000000608000076
:100E60000000000000000608000000000000000074
:100E70000608000000000000000006080000000056
:100E80000000000006080000000000000000060846
:100E90000000000000000000060800000000000044
:100EA0000000060800000000000000000608000026
:100EB0000000000000000608000000000000000024
:100EC0000608000000000000000006080000000006
:100ED00000000000060800000000000000000608F6
:100EE00000000000000000000608000000000000F4
:100EF00000000608000000000000000006080000D6
:100F000000000000000006080000000000000000D3
:100F100006080000000000000000060800000000B5
:100F200000000000060800000000000000000608A5
:100F300000000000000000000608000000000000A3
:100F40000000060800000000000000000608000085
:100F50000000000000000608000000000000000083
:100F60000608000000000000000006080000000065
:100F70000000000006080000000000000000060855
:100F80000000000000000000060800000000000053
:100F900000000608000000000000000006085000E5
:100FA000F880F080F8000608000000000000000053
:100FB0000608000000000000000006080000000015
:100FC0000000000006080000000000000000060805
:100FD0000000000000000000060800000000000003
:100FE00000000608000000000000000006080000E5
:100FF00000000000000006080000000000000000E3
:1010000006080000000000000000060800000000C4
:1010100000000000060800000000000000000608B4
:1010200000000000000000000608000000000000B2
:101030000000060800000000000000000608500044
:101040007088F880700006080000000000000000B2
:101050000608000000000000000006080000000074
:101060000000000006080000000000000000060864
:101070000000000000000000060800000000000062
:10108000000006080000000000000000060870884C
:1010900088F8888888000608F88080F08888F00042
:1010A0000608F08888F08888F0000608F8808080BC
:1010B0008080800006083050505050F888000608A4
:1010C000F88080F08080F8000608A8A8A870A8A87A
:1010D000A80006087088081008887000060888882C
:1010E00098A8C88888000608A88898A8C888880092
:1010F0000608888890E09088880006083848888824
:1011000088888800060888D8D8A8A8888800060893
:10111000888888F888888800060870888888888881
:1011200070000608F8888888888888000608F08893
:101130008888F08080000608708880808088700031
:101140000608F820202020202000060888888888AB
:101150007808F000060870A8A8A8A8702000060863
:101160008888502050888800060888888888888861
:10117000F808060888888888F80808000608A8A8DB
:10118000A8A8A8A8F8000608A8A8A8A8A8A8F808C9
:101190000608C0404070484870000608888888C823
:1011A000A8A8C800060840404070484870000608DB
:1011B0007088083808887000060890A8A8E8A8A8D1
:1011C000900006087888888878488800060800001B
:1011D0007008788878000608186080F088887000A9
:1011E00006080000F088F088F00006080000F8808B
:1011F0008080800006080000305050F88800060803
:1012000000007088F880700006080000A8A870A888
:10121000A80006080000708810887000060800000A
:101220008898A8C88800060870008898A8C8880010
:10123000060800008890E090880006080000384802
:10124000888888000608000088D8A88888000608D2
:1012500000008888F8888800060800007088888860
:10126000700006080000F8888888880006080000DA
:10127000F088F08080000608000070888088700088
:1012800006080000F82020202000060800008888BA
:101290007808F0000608000070A8A8702000060872
:1012A0000000885020508800060800008888888840
:1012B000F808060800008888F808080006080000FA
:1012C000A8A8A8A8F80006080000A8A8A8A8F808D8
:1012D00006080000C04070487000060800008888BA
:1012E000C8A8C80006080000404070487000060802
:1012F00000007088388870000608000090A8E8A8F0
:101300009000060800007888784888002C130008B0
:101310000000002008000000F4000008341300085A
:101320000800002010070000100100080000000065
:0413300000000000B9
:04000005080000B13E
:00000001FF
